{
    "abi": [
        {
            "inputs": [
                {
                    "internalType": "string",
                    "name": "_name",
                    "type": "string"
                },
                {
                    "internalType": "string",
                    "name": "_description",
                    "type": "string"
                },
                {
                    "internalType": "string",
                    "name": "_ownerName",
                    "type": "string"
                },
                {
                    "internalType": "address",
                    "name": "_owner_address",
                    "type": "address"
                }
            ],
            "name": "createCrowdFundContract",
            "outputs": [],
            "stateMutability": "nonpayable",
            "type": "function"
        },
        {
            "inputs": [
                {
                    "internalType": "uint256",
                    "name": "",
                    "type": "uint256"
                }
            ],
            "name": "createdCrowdFunds",
            "outputs": [
                {
                    "internalType": "contract CrowdFund",
                    "name": "",
                    "type": "address"
                }
            ],
            "stateMutability": "view",
            "type": "function"
        },
        {
            "inputs": [
                {
                    "internalType": "string",
                    "name": "_name",
                    "type": "string"
                }
            ],
            "name": "crowdFundBalance",
            "outputs": [
                {
                    "internalType": "uint256",
                    "name": "",
                    "type": "uint256"
                }
            ],
            "stateMutability": "view",
            "type": "function"
        },
        {
            "inputs": [
                {
                    "internalType": "string",
                    "name": "_username",
                    "type": "string"
                },
                {
                    "internalType": "string",
                    "name": "_crowd_fund_name",
                    "type": "string"
                }
            ],
            "name": "fund",
            "outputs": [],
            "stateMutability": "payable",
            "type": "function"
        },
        {
            "inputs": [
                {
                    "internalType": "string",
                    "name": "_name",
                    "type": "string"
                }
            ],
            "name": "getCrowdFundObject",
            "outputs": [
                {
                    "internalType": "contract CrowdFund",
                    "name": "",
                    "type": "address"
                }
            ],
            "stateMutability": "view",
            "type": "function"
        },
        {
            "inputs": [
                {
                    "internalType": "string",
                    "name": "_ownerName",
                    "type": "string"
                }
            ],
            "name": "getOwnerCrowdFunds",
            "outputs": [
                {
                    "internalType": "contract CrowdFund[]",
                    "name": "",
                    "type": "address[]"
                }
            ],
            "stateMutability": "view",
            "type": "function"
        },
        {
            "inputs": [
                {
                    "internalType": "string",
                    "name": "_name",
                    "type": "string"
                }
            ],
            "name": "getSingleCrowdFund",
            "outputs": [
                {
                    "internalType": "string",
                    "name": "",
                    "type": "string"
                },
                {
                    "internalType": "string",
                    "name": "",
                    "type": "string"
                },
                {
                    "internalType": "uint256",
                    "name": "",
                    "type": "uint256"
                },
                {
                    "internalType": "uint256",
                    "name": "",
                    "type": "uint256"
                }
            ],
            "stateMutability": "view",
            "type": "function"
        },
        {
            "inputs": [
                {
                    "internalType": "address",
                    "name": "_address",
                    "type": "address"
                }
            ],
            "name": "getSingleCrowdFundByAddress",
            "outputs": [
                {
                    "internalType": "string",
                    "name": "",
                    "type": "string"
                },
                {
                    "internalType": "string",
                    "name": "",
                    "type": "string"
                },
                {
                    "internalType": "uint256",
                    "name": "",
                    "type": "uint256"
                },
                {
                    "internalType": "uint256",
                    "name": "",
                    "type": "uint256"
                }
            ],
            "stateMutability": "view",
            "type": "function"
        },
        {
            "inputs": [
                {
                    "internalType": "string",
                    "name": "",
                    "type": "string"
                }
            ],
            "name": "nameToCrowdFund",
            "outputs": [
                {
                    "internalType": "contract CrowdFund",
                    "name": "",
                    "type": "address"
                }
            ],
            "stateMutability": "view",
            "type": "function"
        },
        {
            "inputs": [
                {
                    "internalType": "string",
                    "name": "",
                    "type": "string"
                },
                {
                    "internalType": "uint256",
                    "name": "",
                    "type": "uint256"
                }
            ],
            "name": "ownerToCrowdFunds",
            "outputs": [
                {
                    "internalType": "contract CrowdFund",
                    "name": "",
                    "type": "address"
                }
            ],
            "stateMutability": "view",
            "type": "function"
        },
        {
            "inputs": [
                {
                    "internalType": "string",
                    "name": "_crowd_fund_name",
                    "type": "string"
                }
            ],
            "name": "withdrawBalance",
            "outputs": [],
            "stateMutability": "payable",
            "type": "function"
        }
    ],
    "bytecode": "608060405234801561001057600080fd5b50611dc3806100206000396000f3fe608060405260043610620000a95760003560e01c806375a640be116200006c57806375a640be14620001b55780637a0ada9714620001ec578063948f62a11462000211578063a379b51f1462000245578063bd61c193146200025c578063e9e88dc3146200028157600080fd5b80630cc2f6e514620000ae578063273ef72f14620000d55780632c86d6a3146200010d5780633ce42962146200016b57806366ea5e8f1462000190575b600080fd5b348015620000bb57600080fd5b50620000d3620000cd36600462000af9565b62000298565b005b348015620000e257600080fd5b50620000fa620000f436600462000a55565b6200041d565b6040519081526020015b60405180910390f35b3480156200011a57600080fd5b50620001526200012c36600462000a55565b80516020818301810180516000825292820191909301209152546001600160a01b031681565b6040516001600160a01b03909116815260200162000104565b3480156200017857600080fd5b50620001526200018a36600462000c19565b620004a9565b3480156200019d57600080fd5b5062000152620001af36600462000c62565b620004f1565b348015620001c257600080fd5b50620001da620001d436600462000a55565b6200051c565b60405162000104949392919062000dd2565b348015620001f957600080fd5b50620001da6200020b36600462000a37565b6200061f565b3480156200021e57600080fd5b50620002366200023036600462000a55565b62000664565b60405162000104919062000d2a565b620000d36200025636600462000a8e565b6200074e565b3480156200026957600080fd5b50620001526200027b36600462000a55565b62000827565b620000d36200029236600462000a55565b62000859565b620002a384620008c8565b156200030a5760405162461bcd60e51b815260206004820152602b60248201527f412043726f77642046756e6420576974682054686973204e616d6520416c726560448201526a30b23c9022bc34b9ba399760a91b60648201526084015b60405180910390fd5b6000848484846040516200031e906200095c565b6200032d949392919062000d79565b604051809103906000f0801580156200034a573d6000803e3d6000fd5b5090506001836040516200035f919062000d0c565b908152604051602091819003820181208054600181018255600091825292812090920180546001600160a01b0319166001600160a01b038516179055829190620003ab90889062000d0c565b90815260405190819003602001902080546001600160a01b039283166001600160a01b031991821617909155600280546001810182556000919091527f405787fa12a823e0f2b7631cc41b3ba8828b3321ca811111fa75cd3aa3bb5ace01805493909216921691909117905550505050565b6000806200042b8362000827565b9050806001600160a01b031663b69ef8a86040518163ffffffff1660e01b815260040160206040518083038186803b1580156200046757600080fd5b505afa1580156200047c573d6000803e3d6000fd5b505050506040513d601f19601f82011682018060405250810190620004a2919062000c7c565b9392505050565b81516020818401810180516001825292820191850191909120919052805482908110620004d557600080fd5b6000918252602090912001546001600160a01b03169150829050565b600281815481106200050257600080fd5b6000918252602090912001546001600160a01b0316905081565b6060806000806200052d85620008c8565b620005875760405162461bcd60e51b8152602060048201526024808201527f5468657265204973204e6f2043726f776446756e6420576974682054686174206044820152634e616d6560e01b606482015260840162000301565b6000620005948662000827565b9050806001600160a01b031663152583de6040518163ffffffff1660e01b815260040160006040518083038186803b158015620005d057600080fd5b505afa158015620005e5573d6000803e3d6000fd5b505050506040513d6000823e601f3d908101601f191682016040526200060f919081019062000b9e565b9450945094509450509193509193565b6060806000806000859050806001600160a01b031663152583de6040518163ffffffff1660e01b815260040160006040518083038186803b158015620005d057600080fd5b6060620006718262000909565b620006cf5760405162461bcd60e51b815260206004820152602760248201527f54686973205573657220446f6573204e6f74204861766520416e792043726f776044820152663210233ab7321760c91b606482015260840162000301565b6000600183604051620006e3919062000d0c565b90815260408051918290036020908101832080548083028501830190935282845291908301828280156200074157602002820191906000526020600020905b81546001600160a01b0316815260019091019060200180831162000722575b5093979650505050505050565b60006200075b8262000827565b90503433311015620007ba5760405162461bcd60e51b815260206004820152602160248201527f73656e64657220646f6573206e6f74206861766520656e6f7567682066756e646044820152607360f81b606482015260840162000301565b604051634800510960e01b81526001600160a01b038216906348005109903490620007ee9087908390339060040162000e0f565b6000604051808303818588803b1580156200080857600080fd5b505af11580156200081d573d6000803e3d6000fd5b5050505050505050565b600080826040516200083a919062000d0c565b908152604051908190036020019020546001600160a01b031692915050565b6000620008668262000827565b6040516351cff8d960e01b81523360048201529091506001600160a01b038216906351cff8d990602401600060405180830381600087803b158015620008ab57600080fd5b505af1158015620008c0573d6000803e3d6000fd5b505050505050565b60008082604051620008db919062000d0c565b908152604051908190036020019020546001600160a01b03166200090157506000919050565b506001919050565b6000806001836040516200091e919062000d0c565b90815260200160405180910390206040516020016200093e919062000cc4565b60405160208183030381529060405251116200090157600092915050565b610ea18062000eed83390190565b80356001600160a01b03811681146200098257600080fd5b919050565b600082601f8301126200099957600080fd5b8135620009b0620009aa8262000e78565b62000e44565b818152846020838601011115620009c657600080fd5b816020850160208301376000918101602001919091529392505050565b600082601f830112620009f557600080fd5b815162000a06620009aa8262000e78565b81815284602083860101111562000a1c57600080fd5b62000a2f82602083016020870162000ea3565b949350505050565b60006020828403121562000a4a57600080fd5b620004a2826200096a565b60006020828403121562000a6857600080fd5b813567ffffffffffffffff81111562000a8057600080fd5b62000a2f8482850162000987565b6000806040838503121562000aa257600080fd5b823567ffffffffffffffff8082111562000abb57600080fd5b62000ac98683870162000987565b9350602085013591508082111562000ae057600080fd5b5062000aef8582860162000987565b9150509250929050565b6000806000806080858703121562000b1057600080fd5b843567ffffffffffffffff8082111562000b2957600080fd5b62000b378883890162000987565b9550602087013591508082111562000b4e57600080fd5b62000b5c8883890162000987565b9450604087013591508082111562000b7357600080fd5b5062000b828782880162000987565b92505062000b93606086016200096a565b905092959194509250565b6000806000806080858703121562000bb557600080fd5b845167ffffffffffffffff8082111562000bce57600080fd5b62000bdc88838901620009e3565b9550602087015191508082111562000bf357600080fd5b5062000c0287828801620009e3565b604087015160609097015195989097509350505050565b6000806040838503121562000c2d57600080fd5b823567ffffffffffffffff81111562000c4557600080fd5b62000c538582860162000987565b95602094909401359450505050565b60006020828403121562000c7557600080fd5b5035919050565b60006020828403121562000c8f57600080fd5b5051919050565b6000815180845262000cb081602086016020860162000ea3565b601f01601f19169290920160200192915050565b60008183548391508460005260208060002060005b8381101562000d005781546001600160a01b03168552938201936001918201910162000cd9565b50929695505050505050565b6000825162000d2081846020870162000ea3565b9190910192915050565b6020808252825182820181905260009190848201906040850190845b8181101562000d6d5783516001600160a01b03168352928401929184019160010162000d46565b50909695505050505050565b60808152600062000d8e608083018762000c96565b828103602084015262000da2818762000c96565b9050828103604084015262000db8818662000c96565b91505060018060a01b038316606083015295945050505050565b60808152600062000de7608083018762000c96565b828103602084015262000dfb818762000c96565b604084019590955250506060015292915050565b60608152600062000e24606083018662000c96565b6020830194909452506001600160a01b0391909116604090910152919050565b604051601f8201601f1916810167ffffffffffffffff8111828210171562000e705762000e7062000ed6565b604052919050565b600067ffffffffffffffff82111562000e955762000e9562000ed6565b50601f01601f191660200190565b60005b8381101562000ec057818101518382015260200162000ea6565b8381111562000ed0576000848401525b50505050565b634e487b7160e01b600052604160045260246000fdfe60806040523480156200001157600080fd5b5060405162000ea138038062000ea18339810160408190526200003491620001f8565b600080546001600160a01b0319166001600160a01b0383161790558351620000649060019060208701906200009b565b5082516200007a9060039060208601906200009b565b508151620000909060029060208501906200009b565b5050505050620002fe565b828054620000a990620002ab565b90600052602060002090601f016020900481019282620000cd576000855562000118565b82601f10620000e857805160ff191683800117855562000118565b8280016001018555821562000118579182015b8281111562000118578251825591602001919060010190620000fb565b50620001269291506200012a565b5090565b5b808211156200012657600081556001016200012b565b600082601f8301126200015357600080fd5b81516001600160401b0380821115620001705762000170620002e8565b604051601f8301601f19908116603f011681019082821181831017156200019b576200019b620002e8565b81604052838152602092508683858801011115620001b857600080fd5b600091505b83821015620001dc5785820183015181830184015290820190620001bd565b83821115620001ee5760008385830101525b9695505050505050565b600080600080608085870312156200020f57600080fd5b84516001600160401b03808211156200022757600080fd5b620002358883890162000141565b955060208701519150808211156200024c57600080fd5b6200025a8883890162000141565b945060408701519150808211156200027157600080fd5b50620002808782880162000141565b606087015190935090506001600160a01b0381168114620002a057600080fd5b939692955090935050565b600181811c90821680620002c057607f821691505b60208210811415620002e257634e487b7160e01b600052602260045260246000fd5b50919050565b634e487b7160e01b600052604160045260246000fd5b610b93806200030e6000396000f3fe6080604052600436106100dd5760003560e01c8063893d20e81161007f578063b69ef8a811610059578063b69ef8a814610235578063b7629a861461024b578063dc0d3dff14610283578063dc79a7fc146102a357600080fd5b8063893d20e8146101a35780638f84aa09146101d5578063b436c2bf146101f557600080fd5b806348005109116100bb578063480051091461015157806351cff8d91461016657806365ac2320146101795780637284e4161461018e57600080fd5b806306fdde03146100e257806312065fe01461010d578063152583de1461012c575b600080fd5b3480156100ee57600080fd5b506100f76102b8565b6040516101049190610a1e565b60405180910390f35b34801561011957600080fd5b506004545b604051908152602001610104565b34801561013857600080fd5b50610141610346565b6040516101049493929190610a31565b61016461015f3660046108ca565b610482565b005b61016461017436600461086b565b6105cd565b34801561018557600080fd5b506100f76106e4565b34801561019a57600080fd5b506100f76106f1565b3480156101af57600080fd5b506000546001600160a01b03165b6040516001600160a01b039091168152602001610104565b3480156101e157600080fd5b506000546101bd906001600160a01b031681565b34801561020157600080fd5b5061022561021036600461086b565b60066020526000908152604090205460ff1681565b6040519015158152602001610104565b34801561024157600080fd5b5061011e60045481565b34801561025757600080fd5b5061011e61026636600461088d565b805160208183018101805160058252928201919093012091525481565b34801561028f57600080fd5b506100f761029e366004610921565b6106fe565b3480156102af57600080fd5b5060075461011e565b600180546102c590610ac5565b80601f01602080910402602001604051908101604052809291908181526020018280546102f190610ac5565b801561033e5780601f106103135761010080835404028352916020019161033e565b820191906000526020600020905b81548152906001019060200180831161032157829003601f168201915b505050505081565b6060806000806001600260045461035c60075490565b83805461036890610ac5565b80601f016020809104026020016040519081016040528092919081815260200182805461039490610ac5565b80156103e15780601f106103b6576101008083540402835291602001916103e1565b820191906000526020600020905b8154815290600101906020018083116103c457829003601f168201915b505050505093508280546103f490610ac5565b80601f016020809104026020016040519081016040528092919081815260200182805461042090610ac5565b801561046d5780601f106104425761010080835404028352916020019161046d565b820191906000526020600020905b81548152906001019060200180831161045057829003601f168201915b50505050509250935093509350935090919293565b65e91baec5f5076001600160a01b038216318111156104e85760405162461bcd60e51b815260206004820152601e60248201527f5468697320697320746f6f206c6974746c6520746f2062652073656e742e000060448201526064015b60405180910390fd5b82600460008282546104fa9190610a6a565b92505081905550826005856040516105129190610966565b9081526020016040518091039020600082825461052f9190610a6a565b90915550506001600160a01b03821660009081526006602052604090205460ff1615156001141561055f576105c7565b6007805460018101825560009190915284516105a2917fa66cc928b5edb82af9bd49922954155ab7b0942694bea4ce44661d9a8736c68801906020870190610729565b506001600160a01b0382166000908152600660205260409020805460ff191660011790555b50505050565b6000546001600160a01b038281169116146106355760405162461bcd60e51b815260206004820152602260248201527f4f6e6c7920546865204f776e65722043616e2057697468647261772046756e64604482015261399760f11b60648201526084016104df565b47600460008282546106479190610a82565b90915550506040516001600160a01b038216904780156108fc02916000818181858888f19350505050158015610681573d6000803e3d6000fd5b5060005b6007548110156106e0576000600560076000815481106106a7576106a7610b31565b906000526020600020016040516106be9190610982565b90815260405190819003602001902055806106d881610b00565b915050610685565b5050565b600280546102c590610ac5565b600380546102c590610ac5565b6007818154811061070e57600080fd5b9060005260206000200160009150905080546102c590610ac5565b82805461073590610ac5565b90600052602060002090601f016020900481019282610757576000855561079d565b82601f1061077057805160ff191683800117855561079d565b8280016001018555821561079d579182015b8281111561079d578251825591602001919060010190610782565b506107a99291506107ad565b5090565b5b808211156107a957600081556001016107ae565b80356001600160a01b03811681146107d957600080fd5b919050565b600082601f8301126107ef57600080fd5b813567ffffffffffffffff8082111561080a5761080a610b47565b604051601f8301601f19908116603f0116810190828211818310171561083257610832610b47565b8160405283815286602085880101111561084b57600080fd5b836020870160208301376000602085830101528094505050505092915050565b60006020828403121561087d57600080fd5b610886826107c2565b9392505050565b60006020828403121561089f57600080fd5b813567ffffffffffffffff8111156108b657600080fd5b6108c2848285016107de565b949350505050565b6000806000606084860312156108df57600080fd5b833567ffffffffffffffff8111156108f657600080fd5b610902868287016107de565b93505060208401359150610918604085016107c2565b90509250925092565b60006020828403121561093357600080fd5b5035919050565b60008151808452610952816020860160208601610a99565b601f01601f19169290920160200192915050565b60008251610978818460208701610a99565b9190910192915050565b600080835481600182811c91508083168061099e57607f831692505b60208084108214156109be57634e487b7160e01b86526022600452602486fd5b8180156109d257600181146109e357610a10565b60ff19861689528489019650610a10565b60008a81526020902060005b86811015610a085781548b8201529085019083016109ef565b505084890196505b509498975050505050505050565b602081526000610886602083018461093a565b608081526000610a44608083018761093a565b8281036020840152610a56818761093a565b604084019590955250506060015292915050565b60008219821115610a7d57610a7d610b1b565b500190565b600082821015610a9457610a94610b1b565b500390565b60005b83811015610ab4578181015183820152602001610a9c565b838111156105c75750506000910152565b600181811c90821680610ad957607f821691505b60208210811415610afa57634e487b7160e01b600052602260045260246000fd5b50919050565b6000600019821415610b1457610b14610b1b565b5060010190565b634e487b7160e01b600052601160045260246000fd5b634e487b7160e01b600052603260045260246000fd5b634e487b7160e01b600052604160045260246000fdfea2646970667358221220bcb6915c76ad3cd347d778cbc8036a90c1faf29860118df085571b7c54a3b46c64736f6c63430008070033a2646970667358221220c1b0c6e841af88471c20dba3b3427399b8fda55cc2a1ab487fa21adf869ecd2664736f6c63430008070033",
    "bytecodeSha1": "515eec8c0509c2b35449c6f19314e9599cb27a62",
    "compiler": {
        "evm_version": "istanbul",
        "optimizer": {
            "enabled": true,
            "runs": 200
        },
        "version": "0.8.7+commit.e28d00a7"
    },
    "contractName": "CrowdFundFactory",
    "language": "Solidity",
    "natspec": {
        "kind": "dev",
        "methods": {},
        "version": 1
    },
    "opcodes": "PUSH1 0x80 PUSH1 0x40 MSTORE PUSH1 0x4 CALLDATASIZE LT PUSH3 0xA9 JUMPI PUSH1 0x0 CALLDATALOAD PUSH1 0xE0 SHR DUP1 PUSH4 0x75A640BE GT PUSH3 0x6C JUMPI DUP1 PUSH4 0x75A640BE EQ PUSH3 0x1B5 JUMPI DUP1 PUSH4 0x7A0ADA97 EQ PUSH3 0x1EC JUMPI DUP1 PUSH4 0x948F62A1 EQ PUSH3 0x211 JUMPI DUP1 PUSH4 0xA379B51F EQ PUSH3 0x245 JUMPI DUP1 PUSH4 0xBD61C193 EQ PUSH3 0x25C JUMPI DUP1 PUSH4 0xE9E88DC3 EQ PUSH3 0x281 JUMPI PUSH1 0x0 DUP1 REVERT JUMPDEST DUP1 PUSH4 0xCC2F6E5 EQ PUSH3 0xAE JUMPI DUP1 PUSH4 0x273EF72F EQ PUSH3 0xD5 JUMPI DUP1 PUSH4 0x2C86D6A3 EQ PUSH3 0x10D JUMPI DUP1 PUSH4 0x3CE42962 EQ PUSH3 0x16B JUMPI DUP1 PUSH4 0x66EA5E8F EQ PUSH3 0x190 JUMPI JUMPDEST PUSH1 0x0 DUP1 REVERT JUMPDEST CALLVALUE DUP1 ISZERO PUSH3 0xBB JUMPI PUSH1 0x0 DUP1 REVERT JUMPDEST POP PUSH3 0xD3 PUSH3 0xCD CALLDATASIZE PUSH1 0x4 PUSH3 0xAF9 JUMP JUMPDEST PUSH3 0x298 JUMP JUMPDEST STOP JUMPDEST CALLVALUE DUP1 ISZERO PUSH3 0xE2 JUMPI PUSH1 0x0 DUP1 REVERT JUMPDEST POP PUSH3 0xFA PUSH3 0xF4 CALLDATASIZE PUSH1 0x4 PUSH3 0xA55 JUMP JUMPDEST PUSH3 0x41D JUMP JUMPDEST PUSH1 0x40 MLOAD SWAP1 DUP2 MSTORE PUSH1 0x20 ADD JUMPDEST PUSH1 0x40 MLOAD DUP1 SWAP2 SUB SWAP1 RETURN JUMPDEST CALLVALUE DUP1 ISZERO PUSH3 0x11A JUMPI PUSH1 0x0 DUP1 REVERT JUMPDEST POP PUSH3 0x152 PUSH3 0x12C CALLDATASIZE PUSH1 0x4 PUSH3 0xA55 JUMP JUMPDEST DUP1 MLOAD PUSH1 0x20 DUP2 DUP4 ADD DUP2 ADD DUP1 MLOAD PUSH1 0x0 DUP3 MSTORE SWAP3 DUP3 ADD SWAP2 SWAP1 SWAP4 ADD KECCAK256 SWAP2 MSTORE SLOAD PUSH1 0x1 PUSH1 0x1 PUSH1 0xA0 SHL SUB AND DUP2 JUMP JUMPDEST PUSH1 0x40 MLOAD PUSH1 0x1 PUSH1 0x1 PUSH1 0xA0 SHL SUB SWAP1 SWAP2 AND DUP2 MSTORE PUSH1 0x20 ADD PUSH3 0x104 JUMP JUMPDEST CALLVALUE DUP1 ISZERO PUSH3 0x178 JUMPI PUSH1 0x0 DUP1 REVERT JUMPDEST POP PUSH3 0x152 PUSH3 0x18A CALLDATASIZE PUSH1 0x4 PUSH3 0xC19 JUMP JUMPDEST PUSH3 0x4A9 JUMP JUMPDEST CALLVALUE DUP1 ISZERO PUSH3 0x19D JUMPI PUSH1 0x0 DUP1 REVERT JUMPDEST POP PUSH3 0x152 PUSH3 0x1AF CALLDATASIZE PUSH1 0x4 PUSH3 0xC62 JUMP JUMPDEST PUSH3 0x4F1 JUMP JUMPDEST CALLVALUE DUP1 ISZERO PUSH3 0x1C2 JUMPI PUSH1 0x0 DUP1 REVERT JUMPDEST POP PUSH3 0x1DA PUSH3 0x1D4 CALLDATASIZE PUSH1 0x4 PUSH3 0xA55 JUMP JUMPDEST PUSH3 0x51C JUMP JUMPDEST PUSH1 0x40 MLOAD PUSH3 0x104 SWAP5 SWAP4 SWAP3 SWAP2 SWAP1 PUSH3 0xDD2 JUMP JUMPDEST CALLVALUE DUP1 ISZERO PUSH3 0x1F9 JUMPI PUSH1 0x0 DUP1 REVERT JUMPDEST POP PUSH3 0x1DA PUSH3 0x20B CALLDATASIZE PUSH1 0x4 PUSH3 0xA37 JUMP JUMPDEST PUSH3 0x61F JUMP JUMPDEST CALLVALUE DUP1 ISZERO PUSH3 0x21E JUMPI PUSH1 0x0 DUP1 REVERT JUMPDEST POP PUSH3 0x236 PUSH3 0x230 CALLDATASIZE PUSH1 0x4 PUSH3 0xA55 JUMP JUMPDEST PUSH3 0x664 JUMP JUMPDEST PUSH1 0x40 MLOAD PUSH3 0x104 SWAP2 SWAP1 PUSH3 0xD2A JUMP JUMPDEST PUSH3 0xD3 PUSH3 0x256 CALLDATASIZE PUSH1 0x4 PUSH3 0xA8E JUMP JUMPDEST PUSH3 0x74E JUMP JUMPDEST CALLVALUE DUP1 ISZERO PUSH3 0x269 JUMPI PUSH1 0x0 DUP1 REVERT JUMPDEST POP PUSH3 0x152 PUSH3 0x27B CALLDATASIZE PUSH1 0x4 PUSH3 0xA55 JUMP JUMPDEST PUSH3 0x827 JUMP JUMPDEST PUSH3 0xD3 PUSH3 0x292 CALLDATASIZE PUSH1 0x4 PUSH3 0xA55 JUMP JUMPDEST PUSH3 0x859 JUMP JUMPDEST PUSH3 0x2A3 DUP5 PUSH3 0x8C8 JUMP JUMPDEST ISZERO PUSH3 0x30A JUMPI PUSH1 0x40 MLOAD PUSH3 0x461BCD PUSH1 0xE5 SHL DUP2 MSTORE PUSH1 0x20 PUSH1 0x4 DUP3 ADD MSTORE PUSH1 0x2B PUSH1 0x24 DUP3 ADD MSTORE PUSH32 0x412043726F77642046756E6420576974682054686973204E616D6520416C7265 PUSH1 0x44 DUP3 ADD MSTORE PUSH11 0x30B23C9022BC34B9BA3997 PUSH1 0xA9 SHL PUSH1 0x64 DUP3 ADD MSTORE PUSH1 0x84 ADD JUMPDEST PUSH1 0x40 MLOAD DUP1 SWAP2 SUB SWAP1 REVERT JUMPDEST PUSH1 0x0 DUP5 DUP5 DUP5 DUP5 PUSH1 0x40 MLOAD PUSH3 0x31E SWAP1 PUSH3 0x95C JUMP JUMPDEST PUSH3 0x32D SWAP5 SWAP4 SWAP3 SWAP2 SWAP1 PUSH3 0xD79 JUMP JUMPDEST PUSH1 0x40 MLOAD DUP1 SWAP2 SUB SWAP1 PUSH1 0x0 CREATE DUP1 ISZERO DUP1 ISZERO PUSH3 0x34A JUMPI RETURNDATASIZE PUSH1 0x0 DUP1 RETURNDATACOPY RETURNDATASIZE PUSH1 0x0 REVERT JUMPDEST POP SWAP1 POP PUSH1 0x1 DUP4 PUSH1 0x40 MLOAD PUSH3 0x35F SWAP2 SWAP1 PUSH3 0xD0C JUMP JUMPDEST SWAP1 DUP2 MSTORE PUSH1 0x40 MLOAD PUSH1 0x20 SWAP2 DUP2 SWAP1 SUB DUP3 ADD DUP2 KECCAK256 DUP1 SLOAD PUSH1 0x1 DUP2 ADD DUP3 SSTORE PUSH1 0x0 SWAP2 DUP3 MSTORE SWAP3 DUP2 KECCAK256 SWAP1 SWAP3 ADD DUP1 SLOAD PUSH1 0x1 PUSH1 0x1 PUSH1 0xA0 SHL SUB NOT AND PUSH1 0x1 PUSH1 0x1 PUSH1 0xA0 SHL SUB DUP6 AND OR SWAP1 SSTORE DUP3 SWAP2 SWAP1 PUSH3 0x3AB SWAP1 DUP9 SWAP1 PUSH3 0xD0C JUMP JUMPDEST SWAP1 DUP2 MSTORE PUSH1 0x40 MLOAD SWAP1 DUP2 SWAP1 SUB PUSH1 0x20 ADD SWAP1 KECCAK256 DUP1 SLOAD PUSH1 0x1 PUSH1 0x1 PUSH1 0xA0 SHL SUB SWAP3 DUP4 AND PUSH1 0x1 PUSH1 0x1 PUSH1 0xA0 SHL SUB NOT SWAP2 DUP3 AND OR SWAP1 SWAP2 SSTORE PUSH1 0x2 DUP1 SLOAD PUSH1 0x1 DUP2 ADD DUP3 SSTORE PUSH1 0x0 SWAP2 SWAP1 SWAP2 MSTORE PUSH32 0x405787FA12A823E0F2B7631CC41B3BA8828B3321CA811111FA75CD3AA3BB5ACE ADD DUP1 SLOAD SWAP4 SWAP1 SWAP3 AND SWAP3 AND SWAP2 SWAP1 SWAP2 OR SWAP1 SSTORE POP POP POP POP JUMP JUMPDEST PUSH1 0x0 DUP1 PUSH3 0x42B DUP4 PUSH3 0x827 JUMP JUMPDEST SWAP1 POP DUP1 PUSH1 0x1 PUSH1 0x1 PUSH1 0xA0 SHL SUB AND PUSH4 0xB69EF8A8 PUSH1 0x40 MLOAD DUP2 PUSH4 0xFFFFFFFF AND PUSH1 0xE0 SHL DUP2 MSTORE PUSH1 0x4 ADD PUSH1 0x20 PUSH1 0x40 MLOAD DUP1 DUP4 SUB DUP2 DUP7 DUP1 EXTCODESIZE ISZERO DUP1 ISZERO PUSH3 0x467 JUMPI PUSH1 0x0 DUP1 REVERT JUMPDEST POP GAS STATICCALL ISZERO DUP1 ISZERO PUSH3 0x47C JUMPI RETURNDATASIZE PUSH1 0x0 DUP1 RETURNDATACOPY RETURNDATASIZE PUSH1 0x0 REVERT JUMPDEST POP POP POP POP PUSH1 0x40 MLOAD RETURNDATASIZE PUSH1 0x1F NOT PUSH1 0x1F DUP3 ADD AND DUP3 ADD DUP1 PUSH1 0x40 MSTORE POP DUP2 ADD SWAP1 PUSH3 0x4A2 SWAP2 SWAP1 PUSH3 0xC7C JUMP JUMPDEST SWAP4 SWAP3 POP POP POP JUMP JUMPDEST DUP2 MLOAD PUSH1 0x20 DUP2 DUP5 ADD DUP2 ADD DUP1 MLOAD PUSH1 0x1 DUP3 MSTORE SWAP3 DUP3 ADD SWAP2 DUP6 ADD SWAP2 SWAP1 SWAP2 KECCAK256 SWAP2 SWAP1 MSTORE DUP1 SLOAD DUP3 SWAP1 DUP2 LT PUSH3 0x4D5 JUMPI PUSH1 0x0 DUP1 REVERT JUMPDEST PUSH1 0x0 SWAP2 DUP3 MSTORE PUSH1 0x20 SWAP1 SWAP2 KECCAK256 ADD SLOAD PUSH1 0x1 PUSH1 0x1 PUSH1 0xA0 SHL SUB AND SWAP2 POP DUP3 SWAP1 POP JUMP JUMPDEST PUSH1 0x2 DUP2 DUP2 SLOAD DUP2 LT PUSH3 0x502 JUMPI PUSH1 0x0 DUP1 REVERT JUMPDEST PUSH1 0x0 SWAP2 DUP3 MSTORE PUSH1 0x20 SWAP1 SWAP2 KECCAK256 ADD SLOAD PUSH1 0x1 PUSH1 0x1 PUSH1 0xA0 SHL SUB AND SWAP1 POP DUP2 JUMP JUMPDEST PUSH1 0x60 DUP1 PUSH1 0x0 DUP1 PUSH3 0x52D DUP6 PUSH3 0x8C8 JUMP JUMPDEST PUSH3 0x587 JUMPI PUSH1 0x40 MLOAD PUSH3 0x461BCD PUSH1 0xE5 SHL DUP2 MSTORE PUSH1 0x20 PUSH1 0x4 DUP3 ADD MSTORE PUSH1 0x24 DUP1 DUP3 ADD MSTORE PUSH32 0x5468657265204973204E6F2043726F776446756E642057697468205468617420 PUSH1 0x44 DUP3 ADD MSTORE PUSH4 0x4E616D65 PUSH1 0xE0 SHL PUSH1 0x64 DUP3 ADD MSTORE PUSH1 0x84 ADD PUSH3 0x301 JUMP JUMPDEST PUSH1 0x0 PUSH3 0x594 DUP7 PUSH3 0x827 JUMP JUMPDEST SWAP1 POP DUP1 PUSH1 0x1 PUSH1 0x1 PUSH1 0xA0 SHL SUB AND PUSH4 0x152583DE PUSH1 0x40 MLOAD DUP2 PUSH4 0xFFFFFFFF AND PUSH1 0xE0 SHL DUP2 MSTORE PUSH1 0x4 ADD PUSH1 0x0 PUSH1 0x40 MLOAD DUP1 DUP4 SUB DUP2 DUP7 DUP1 EXTCODESIZE ISZERO DUP1 ISZERO PUSH3 0x5D0 JUMPI PUSH1 0x0 DUP1 REVERT JUMPDEST POP GAS STATICCALL ISZERO DUP1 ISZERO PUSH3 0x5E5 JUMPI RETURNDATASIZE PUSH1 0x0 DUP1 RETURNDATACOPY RETURNDATASIZE PUSH1 0x0 REVERT JUMPDEST POP POP POP POP PUSH1 0x40 MLOAD RETURNDATASIZE PUSH1 0x0 DUP3 RETURNDATACOPY PUSH1 0x1F RETURNDATASIZE SWAP1 DUP2 ADD PUSH1 0x1F NOT AND DUP3 ADD PUSH1 0x40 MSTORE PUSH3 0x60F SWAP2 SWAP1 DUP2 ADD SWAP1 PUSH3 0xB9E JUMP JUMPDEST SWAP5 POP SWAP5 POP SWAP5 POP SWAP5 POP POP SWAP2 SWAP4 POP SWAP2 SWAP4 JUMP JUMPDEST PUSH1 0x60 DUP1 PUSH1 0x0 DUP1 PUSH1 0x0 DUP6 SWAP1 POP DUP1 PUSH1 0x1 PUSH1 0x1 PUSH1 0xA0 SHL SUB AND PUSH4 0x152583DE PUSH1 0x40 MLOAD DUP2 PUSH4 0xFFFFFFFF AND PUSH1 0xE0 SHL DUP2 MSTORE PUSH1 0x4 ADD PUSH1 0x0 PUSH1 0x40 MLOAD DUP1 DUP4 SUB DUP2 DUP7 DUP1 EXTCODESIZE ISZERO DUP1 ISZERO PUSH3 0x5D0 JUMPI PUSH1 0x0 DUP1 REVERT JUMPDEST PUSH1 0x60 PUSH3 0x671 DUP3 PUSH3 0x909 JUMP JUMPDEST PUSH3 0x6CF JUMPI PUSH1 0x40 MLOAD PUSH3 0x461BCD PUSH1 0xE5 SHL DUP2 MSTORE PUSH1 0x20 PUSH1 0x4 DUP3 ADD MSTORE PUSH1 0x27 PUSH1 0x24 DUP3 ADD MSTORE PUSH32 0x54686973205573657220446F6573204E6F74204861766520416E792043726F77 PUSH1 0x44 DUP3 ADD MSTORE PUSH7 0x3210233AB73217 PUSH1 0xC9 SHL PUSH1 0x64 DUP3 ADD MSTORE PUSH1 0x84 ADD PUSH3 0x301 JUMP JUMPDEST PUSH1 0x0 PUSH1 0x1 DUP4 PUSH1 0x40 MLOAD PUSH3 0x6E3 SWAP2 SWAP1 PUSH3 0xD0C JUMP JUMPDEST SWAP1 DUP2 MSTORE PUSH1 0x40 DUP1 MLOAD SWAP2 DUP3 SWAP1 SUB PUSH1 0x20 SWAP1 DUP2 ADD DUP4 KECCAK256 DUP1 SLOAD DUP1 DUP4 MUL DUP6 ADD DUP4 ADD SWAP1 SWAP4 MSTORE DUP3 DUP5 MSTORE SWAP2 SWAP1 DUP4 ADD DUP3 DUP3 DUP1 ISZERO PUSH3 0x741 JUMPI PUSH1 0x20 MUL DUP3 ADD SWAP2 SWAP1 PUSH1 0x0 MSTORE PUSH1 0x20 PUSH1 0x0 KECCAK256 SWAP1 JUMPDEST DUP2 SLOAD PUSH1 0x1 PUSH1 0x1 PUSH1 0xA0 SHL SUB AND DUP2 MSTORE PUSH1 0x1 SWAP1 SWAP2 ADD SWAP1 PUSH1 0x20 ADD DUP1 DUP4 GT PUSH3 0x722 JUMPI JUMPDEST POP SWAP4 SWAP8 SWAP7 POP POP POP POP POP POP POP JUMP JUMPDEST PUSH1 0x0 PUSH3 0x75B DUP3 PUSH3 0x827 JUMP JUMPDEST SWAP1 POP CALLVALUE CALLER BALANCE LT ISZERO PUSH3 0x7BA JUMPI PUSH1 0x40 MLOAD PUSH3 0x461BCD PUSH1 0xE5 SHL DUP2 MSTORE PUSH1 0x20 PUSH1 0x4 DUP3 ADD MSTORE PUSH1 0x21 PUSH1 0x24 DUP3 ADD MSTORE PUSH32 0x73656E64657220646F6573206E6F74206861766520656E6F7567682066756E64 PUSH1 0x44 DUP3 ADD MSTORE PUSH1 0x73 PUSH1 0xF8 SHL PUSH1 0x64 DUP3 ADD MSTORE PUSH1 0x84 ADD PUSH3 0x301 JUMP JUMPDEST PUSH1 0x40 MLOAD PUSH4 0x48005109 PUSH1 0xE0 SHL DUP2 MSTORE PUSH1 0x1 PUSH1 0x1 PUSH1 0xA0 SHL SUB DUP3 AND SWAP1 PUSH4 0x48005109 SWAP1 CALLVALUE SWAP1 PUSH3 0x7EE SWAP1 DUP8 SWAP1 DUP4 SWAP1 CALLER SWAP1 PUSH1 0x4 ADD PUSH3 0xE0F JUMP JUMPDEST PUSH1 0x0 PUSH1 0x40 MLOAD DUP1 DUP4 SUB DUP2 DUP6 DUP9 DUP1 EXTCODESIZE ISZERO DUP1 ISZERO PUSH3 0x808 JUMPI PUSH1 0x0 DUP1 REVERT JUMPDEST POP GAS CALL ISZERO DUP1 ISZERO PUSH3 0x81D JUMPI RETURNDATASIZE PUSH1 0x0 DUP1 RETURNDATACOPY RETURNDATASIZE PUSH1 0x0 REVERT JUMPDEST POP POP POP POP POP POP POP POP JUMP JUMPDEST PUSH1 0x0 DUP1 DUP3 PUSH1 0x40 MLOAD PUSH3 0x83A SWAP2 SWAP1 PUSH3 0xD0C JUMP JUMPDEST SWAP1 DUP2 MSTORE PUSH1 0x40 MLOAD SWAP1 DUP2 SWAP1 SUB PUSH1 0x20 ADD SWAP1 KECCAK256 SLOAD PUSH1 0x1 PUSH1 0x1 PUSH1 0xA0 SHL SUB AND SWAP3 SWAP2 POP POP JUMP JUMPDEST PUSH1 0x0 PUSH3 0x866 DUP3 PUSH3 0x827 JUMP JUMPDEST PUSH1 0x40 MLOAD PUSH4 0x51CFF8D9 PUSH1 0xE0 SHL DUP2 MSTORE CALLER PUSH1 0x4 DUP3 ADD MSTORE SWAP1 SWAP2 POP PUSH1 0x1 PUSH1 0x1 PUSH1 0xA0 SHL SUB DUP3 AND SWAP1 PUSH4 0x51CFF8D9 SWAP1 PUSH1 0x24 ADD PUSH1 0x0 PUSH1 0x40 MLOAD DUP1 DUP4 SUB DUP2 PUSH1 0x0 DUP8 DUP1 EXTCODESIZE ISZERO DUP1 ISZERO PUSH3 0x8AB JUMPI PUSH1 0x0 DUP1 REVERT JUMPDEST POP GAS CALL ISZERO DUP1 ISZERO PUSH3 0x8C0 JUMPI RETURNDATASIZE PUSH1 0x0 DUP1 RETURNDATACOPY RETURNDATASIZE PUSH1 0x0 REVERT JUMPDEST POP POP POP POP POP POP JUMP JUMPDEST PUSH1 0x0 DUP1 DUP3 PUSH1 0x40 MLOAD PUSH3 0x8DB SWAP2 SWAP1 PUSH3 0xD0C JUMP JUMPDEST SWAP1 DUP2 MSTORE PUSH1 0x40 MLOAD SWAP1 DUP2 SWAP1 SUB PUSH1 0x20 ADD SWAP1 KECCAK256 SLOAD PUSH1 0x1 PUSH1 0x1 PUSH1 0xA0 SHL SUB AND PUSH3 0x901 JUMPI POP PUSH1 0x0 SWAP2 SWAP1 POP JUMP JUMPDEST POP PUSH1 0x1 SWAP2 SWAP1 POP JUMP JUMPDEST PUSH1 0x0 DUP1 PUSH1 0x1 DUP4 PUSH1 0x40 MLOAD PUSH3 0x91E SWAP2 SWAP1 PUSH3 0xD0C JUMP JUMPDEST SWAP1 DUP2 MSTORE PUSH1 0x20 ADD PUSH1 0x40 MLOAD DUP1 SWAP2 SUB SWAP1 KECCAK256 PUSH1 0x40 MLOAD PUSH1 0x20 ADD PUSH3 0x93E SWAP2 SWAP1 PUSH3 0xCC4 JUMP JUMPDEST PUSH1 0x40 MLOAD PUSH1 0x20 DUP2 DUP4 SUB SUB DUP2 MSTORE SWAP1 PUSH1 0x40 MSTORE MLOAD GT PUSH3 0x901 JUMPI PUSH1 0x0 SWAP3 SWAP2 POP POP JUMP JUMPDEST PUSH2 0xEA1 DUP1 PUSH3 0xEED DUP4 CODECOPY ADD SWAP1 JUMP JUMPDEST DUP1 CALLDATALOAD PUSH1 0x1 PUSH1 0x1 PUSH1 0xA0 SHL SUB DUP2 AND DUP2 EQ PUSH3 0x982 JUMPI PUSH1 0x0 DUP1 REVERT JUMPDEST SWAP2 SWAP1 POP JUMP JUMPDEST PUSH1 0x0 DUP3 PUSH1 0x1F DUP4 ADD SLT PUSH3 0x999 JUMPI PUSH1 0x0 DUP1 REVERT JUMPDEST DUP2 CALLDATALOAD PUSH3 0x9B0 PUSH3 0x9AA DUP3 PUSH3 0xE78 JUMP JUMPDEST PUSH3 0xE44 JUMP JUMPDEST DUP2 DUP2 MSTORE DUP5 PUSH1 0x20 DUP4 DUP7 ADD ADD GT ISZERO PUSH3 0x9C6 JUMPI PUSH1 0x0 DUP1 REVERT JUMPDEST DUP2 PUSH1 0x20 DUP6 ADD PUSH1 0x20 DUP4 ADD CALLDATACOPY PUSH1 0x0 SWAP2 DUP2 ADD PUSH1 0x20 ADD SWAP2 SWAP1 SWAP2 MSTORE SWAP4 SWAP3 POP POP POP JUMP JUMPDEST PUSH1 0x0 DUP3 PUSH1 0x1F DUP4 ADD SLT PUSH3 0x9F5 JUMPI PUSH1 0x0 DUP1 REVERT JUMPDEST DUP2 MLOAD PUSH3 0xA06 PUSH3 0x9AA DUP3 PUSH3 0xE78 JUMP JUMPDEST DUP2 DUP2 MSTORE DUP5 PUSH1 0x20 DUP4 DUP7 ADD ADD GT ISZERO PUSH3 0xA1C JUMPI PUSH1 0x0 DUP1 REVERT JUMPDEST PUSH3 0xA2F DUP3 PUSH1 0x20 DUP4 ADD PUSH1 0x20 DUP8 ADD PUSH3 0xEA3 JUMP JUMPDEST SWAP5 SWAP4 POP POP POP POP JUMP JUMPDEST PUSH1 0x0 PUSH1 0x20 DUP3 DUP5 SUB SLT ISZERO PUSH3 0xA4A JUMPI PUSH1 0x0 DUP1 REVERT JUMPDEST PUSH3 0x4A2 DUP3 PUSH3 0x96A JUMP JUMPDEST PUSH1 0x0 PUSH1 0x20 DUP3 DUP5 SUB SLT ISZERO PUSH3 0xA68 JUMPI PUSH1 0x0 DUP1 REVERT JUMPDEST DUP2 CALLDATALOAD PUSH8 0xFFFFFFFFFFFFFFFF DUP2 GT ISZERO PUSH3 0xA80 JUMPI PUSH1 0x0 DUP1 REVERT JUMPDEST PUSH3 0xA2F DUP5 DUP3 DUP6 ADD PUSH3 0x987 JUMP JUMPDEST PUSH1 0x0 DUP1 PUSH1 0x40 DUP4 DUP6 SUB SLT ISZERO PUSH3 0xAA2 JUMPI PUSH1 0x0 DUP1 REVERT JUMPDEST DUP3 CALLDATALOAD PUSH8 0xFFFFFFFFFFFFFFFF DUP1 DUP3 GT ISZERO PUSH3 0xABB JUMPI PUSH1 0x0 DUP1 REVERT JUMPDEST PUSH3 0xAC9 DUP7 DUP4 DUP8 ADD PUSH3 0x987 JUMP JUMPDEST SWAP4 POP PUSH1 0x20 DUP6 ADD CALLDATALOAD SWAP2 POP DUP1 DUP3 GT ISZERO PUSH3 0xAE0 JUMPI PUSH1 0x0 DUP1 REVERT JUMPDEST POP PUSH3 0xAEF DUP6 DUP3 DUP7 ADD PUSH3 0x987 JUMP JUMPDEST SWAP2 POP POP SWAP3 POP SWAP3 SWAP1 POP JUMP JUMPDEST PUSH1 0x0 DUP1 PUSH1 0x0 DUP1 PUSH1 0x80 DUP6 DUP8 SUB SLT ISZERO PUSH3 0xB10 JUMPI PUSH1 0x0 DUP1 REVERT JUMPDEST DUP5 CALLDATALOAD PUSH8 0xFFFFFFFFFFFFFFFF DUP1 DUP3 GT ISZERO PUSH3 0xB29 JUMPI PUSH1 0x0 DUP1 REVERT JUMPDEST PUSH3 0xB37 DUP9 DUP4 DUP10 ADD PUSH3 0x987 JUMP JUMPDEST SWAP6 POP PUSH1 0x20 DUP8 ADD CALLDATALOAD SWAP2 POP DUP1 DUP3 GT ISZERO PUSH3 0xB4E JUMPI PUSH1 0x0 DUP1 REVERT JUMPDEST PUSH3 0xB5C DUP9 DUP4 DUP10 ADD PUSH3 0x987 JUMP JUMPDEST SWAP5 POP PUSH1 0x40 DUP8 ADD CALLDATALOAD SWAP2 POP DUP1 DUP3 GT ISZERO PUSH3 0xB73 JUMPI PUSH1 0x0 DUP1 REVERT JUMPDEST POP PUSH3 0xB82 DUP8 DUP3 DUP9 ADD PUSH3 0x987 JUMP JUMPDEST SWAP3 POP POP PUSH3 0xB93 PUSH1 0x60 DUP7 ADD PUSH3 0x96A JUMP JUMPDEST SWAP1 POP SWAP3 SWAP6 SWAP2 SWAP5 POP SWAP3 POP JUMP JUMPDEST PUSH1 0x0 DUP1 PUSH1 0x0 DUP1 PUSH1 0x80 DUP6 DUP8 SUB SLT ISZERO PUSH3 0xBB5 JUMPI PUSH1 0x0 DUP1 REVERT JUMPDEST DUP5 MLOAD PUSH8 0xFFFFFFFFFFFFFFFF DUP1 DUP3 GT ISZERO PUSH3 0xBCE JUMPI PUSH1 0x0 DUP1 REVERT JUMPDEST PUSH3 0xBDC DUP9 DUP4 DUP10 ADD PUSH3 0x9E3 JUMP JUMPDEST SWAP6 POP PUSH1 0x20 DUP8 ADD MLOAD SWAP2 POP DUP1 DUP3 GT ISZERO PUSH3 0xBF3 JUMPI PUSH1 0x0 DUP1 REVERT JUMPDEST POP PUSH3 0xC02 DUP8 DUP3 DUP9 ADD PUSH3 0x9E3 JUMP JUMPDEST PUSH1 0x40 DUP8 ADD MLOAD PUSH1 0x60 SWAP1 SWAP8 ADD MLOAD SWAP6 SWAP9 SWAP1 SWAP8 POP SWAP4 POP POP POP POP JUMP JUMPDEST PUSH1 0x0 DUP1 PUSH1 0x40 DUP4 DUP6 SUB SLT ISZERO PUSH3 0xC2D JUMPI PUSH1 0x0 DUP1 REVERT JUMPDEST DUP3 CALLDATALOAD PUSH8 0xFFFFFFFFFFFFFFFF DUP2 GT ISZERO PUSH3 0xC45 JUMPI PUSH1 0x0 DUP1 REVERT JUMPDEST PUSH3 0xC53 DUP6 DUP3 DUP7 ADD PUSH3 0x987 JUMP JUMPDEST SWAP6 PUSH1 0x20 SWAP5 SWAP1 SWAP5 ADD CALLDATALOAD SWAP5 POP POP POP POP JUMP JUMPDEST PUSH1 0x0 PUSH1 0x20 DUP3 DUP5 SUB SLT ISZERO PUSH3 0xC75 JUMPI PUSH1 0x0 DUP1 REVERT JUMPDEST POP CALLDATALOAD SWAP2 SWAP1 POP JUMP JUMPDEST PUSH1 0x0 PUSH1 0x20 DUP3 DUP5 SUB SLT ISZERO PUSH3 0xC8F JUMPI PUSH1 0x0 DUP1 REVERT JUMPDEST POP MLOAD SWAP2 SWAP1 POP JUMP JUMPDEST PUSH1 0x0 DUP2 MLOAD DUP1 DUP5 MSTORE PUSH3 0xCB0 DUP2 PUSH1 0x20 DUP7 ADD PUSH1 0x20 DUP7 ADD PUSH3 0xEA3 JUMP JUMPDEST PUSH1 0x1F ADD PUSH1 0x1F NOT AND SWAP3 SWAP1 SWAP3 ADD PUSH1 0x20 ADD SWAP3 SWAP2 POP POP JUMP JUMPDEST PUSH1 0x0 DUP2 DUP4 SLOAD DUP4 SWAP2 POP DUP5 PUSH1 0x0 MSTORE PUSH1 0x20 DUP1 PUSH1 0x0 KECCAK256 PUSH1 0x0 JUMPDEST DUP4 DUP2 LT ISZERO PUSH3 0xD00 JUMPI DUP2 SLOAD PUSH1 0x1 PUSH1 0x1 PUSH1 0xA0 SHL SUB AND DUP6 MSTORE SWAP4 DUP3 ADD SWAP4 PUSH1 0x1 SWAP2 DUP3 ADD SWAP2 ADD PUSH3 0xCD9 JUMP JUMPDEST POP SWAP3 SWAP7 SWAP6 POP POP POP POP POP POP JUMP JUMPDEST PUSH1 0x0 DUP3 MLOAD PUSH3 0xD20 DUP2 DUP5 PUSH1 0x20 DUP8 ADD PUSH3 0xEA3 JUMP JUMPDEST SWAP2 SWAP1 SWAP2 ADD SWAP3 SWAP2 POP POP JUMP JUMPDEST PUSH1 0x20 DUP1 DUP3 MSTORE DUP3 MLOAD DUP3 DUP3 ADD DUP2 SWAP1 MSTORE PUSH1 0x0 SWAP2 SWAP1 DUP5 DUP3 ADD SWAP1 PUSH1 0x40 DUP6 ADD SWAP1 DUP5 JUMPDEST DUP2 DUP2 LT ISZERO PUSH3 0xD6D JUMPI DUP4 MLOAD PUSH1 0x1 PUSH1 0x1 PUSH1 0xA0 SHL SUB AND DUP4 MSTORE SWAP3 DUP5 ADD SWAP3 SWAP2 DUP5 ADD SWAP2 PUSH1 0x1 ADD PUSH3 0xD46 JUMP JUMPDEST POP SWAP1 SWAP7 SWAP6 POP POP POP POP POP POP JUMP JUMPDEST PUSH1 0x80 DUP2 MSTORE PUSH1 0x0 PUSH3 0xD8E PUSH1 0x80 DUP4 ADD DUP8 PUSH3 0xC96 JUMP JUMPDEST DUP3 DUP2 SUB PUSH1 0x20 DUP5 ADD MSTORE PUSH3 0xDA2 DUP2 DUP8 PUSH3 0xC96 JUMP JUMPDEST SWAP1 POP DUP3 DUP2 SUB PUSH1 0x40 DUP5 ADD MSTORE PUSH3 0xDB8 DUP2 DUP7 PUSH3 0xC96 JUMP JUMPDEST SWAP2 POP POP PUSH1 0x1 DUP1 PUSH1 0xA0 SHL SUB DUP4 AND PUSH1 0x60 DUP4 ADD MSTORE SWAP6 SWAP5 POP POP POP POP POP JUMP JUMPDEST PUSH1 0x80 DUP2 MSTORE PUSH1 0x0 PUSH3 0xDE7 PUSH1 0x80 DUP4 ADD DUP8 PUSH3 0xC96 JUMP JUMPDEST DUP3 DUP2 SUB PUSH1 0x20 DUP5 ADD MSTORE PUSH3 0xDFB DUP2 DUP8 PUSH3 0xC96 JUMP JUMPDEST PUSH1 0x40 DUP5 ADD SWAP6 SWAP1 SWAP6 MSTORE POP POP PUSH1 0x60 ADD MSTORE SWAP3 SWAP2 POP POP JUMP JUMPDEST PUSH1 0x60 DUP2 MSTORE PUSH1 0x0 PUSH3 0xE24 PUSH1 0x60 DUP4 ADD DUP7 PUSH3 0xC96 JUMP JUMPDEST PUSH1 0x20 DUP4 ADD SWAP5 SWAP1 SWAP5 MSTORE POP PUSH1 0x1 PUSH1 0x1 PUSH1 0xA0 SHL SUB SWAP2 SWAP1 SWAP2 AND PUSH1 0x40 SWAP1 SWAP2 ADD MSTORE SWAP2 SWAP1 POP JUMP JUMPDEST PUSH1 0x40 MLOAD PUSH1 0x1F DUP3 ADD PUSH1 0x1F NOT AND DUP2 ADD PUSH8 0xFFFFFFFFFFFFFFFF DUP2 GT DUP3 DUP3 LT OR ISZERO PUSH3 0xE70 JUMPI PUSH3 0xE70 PUSH3 0xED6 JUMP JUMPDEST PUSH1 0x40 MSTORE SWAP2 SWAP1 POP JUMP JUMPDEST PUSH1 0x0 PUSH8 0xFFFFFFFFFFFFFFFF DUP3 GT ISZERO PUSH3 0xE95 JUMPI PUSH3 0xE95 PUSH3 0xED6 JUMP JUMPDEST POP PUSH1 0x1F ADD PUSH1 0x1F NOT AND PUSH1 0x20 ADD SWAP1 JUMP JUMPDEST PUSH1 0x0 JUMPDEST DUP4 DUP2 LT ISZERO PUSH3 0xEC0 JUMPI DUP2 DUP2 ADD MLOAD DUP4 DUP3 ADD MSTORE PUSH1 0x20 ADD PUSH3 0xEA6 JUMP JUMPDEST DUP4 DUP2 GT ISZERO PUSH3 0xED0 JUMPI PUSH1 0x0 DUP5 DUP5 ADD MSTORE JUMPDEST POP POP POP POP JUMP JUMPDEST PUSH4 0x4E487B71 PUSH1 0xE0 SHL PUSH1 0x0 MSTORE PUSH1 0x41 PUSH1 0x4 MSTORE PUSH1 0x24 PUSH1 0x0 REVERT INVALID PUSH1 0x80 PUSH1 0x40 MSTORE CALLVALUE DUP1 ISZERO PUSH3 0x11 JUMPI PUSH1 0x0 DUP1 REVERT JUMPDEST POP PUSH1 0x40 MLOAD PUSH3 0xEA1 CODESIZE SUB DUP1 PUSH3 0xEA1 DUP4 CODECOPY DUP2 ADD PUSH1 0x40 DUP2 SWAP1 MSTORE PUSH3 0x34 SWAP2 PUSH3 0x1F8 JUMP JUMPDEST PUSH1 0x0 DUP1 SLOAD PUSH1 0x1 PUSH1 0x1 PUSH1 0xA0 SHL SUB NOT AND PUSH1 0x1 PUSH1 0x1 PUSH1 0xA0 SHL SUB DUP4 AND OR SWAP1 SSTORE DUP4 MLOAD PUSH3 0x64 SWAP1 PUSH1 0x1 SWAP1 PUSH1 0x20 DUP8 ADD SWAP1 PUSH3 0x9B JUMP JUMPDEST POP DUP3 MLOAD PUSH3 0x7A SWAP1 PUSH1 0x3 SWAP1 PUSH1 0x20 DUP7 ADD SWAP1 PUSH3 0x9B JUMP JUMPDEST POP DUP2 MLOAD PUSH3 0x90 SWAP1 PUSH1 0x2 SWAP1 PUSH1 0x20 DUP6 ADD SWAP1 PUSH3 0x9B JUMP JUMPDEST POP POP POP POP POP PUSH3 0x2FE JUMP JUMPDEST DUP3 DUP1 SLOAD PUSH3 0xA9 SWAP1 PUSH3 0x2AB JUMP JUMPDEST SWAP1 PUSH1 0x0 MSTORE PUSH1 0x20 PUSH1 0x0 KECCAK256 SWAP1 PUSH1 0x1F ADD PUSH1 0x20 SWAP1 DIV DUP2 ADD SWAP3 DUP3 PUSH3 0xCD JUMPI PUSH1 0x0 DUP6 SSTORE PUSH3 0x118 JUMP JUMPDEST DUP3 PUSH1 0x1F LT PUSH3 0xE8 JUMPI DUP1 MLOAD PUSH1 0xFF NOT AND DUP4 DUP1 ADD OR DUP6 SSTORE PUSH3 0x118 JUMP JUMPDEST DUP3 DUP1 ADD PUSH1 0x1 ADD DUP6 SSTORE DUP3 ISZERO PUSH3 0x118 JUMPI SWAP2 DUP3 ADD JUMPDEST DUP3 DUP2 GT ISZERO PUSH3 0x118 JUMPI DUP3 MLOAD DUP3 SSTORE SWAP2 PUSH1 0x20 ADD SWAP2 SWAP1 PUSH1 0x1 ADD SWAP1 PUSH3 0xFB JUMP JUMPDEST POP PUSH3 0x126 SWAP3 SWAP2 POP PUSH3 0x12A JUMP JUMPDEST POP SWAP1 JUMP JUMPDEST JUMPDEST DUP1 DUP3 GT ISZERO PUSH3 0x126 JUMPI PUSH1 0x0 DUP2 SSTORE PUSH1 0x1 ADD PUSH3 0x12B JUMP JUMPDEST PUSH1 0x0 DUP3 PUSH1 0x1F DUP4 ADD SLT PUSH3 0x153 JUMPI PUSH1 0x0 DUP1 REVERT JUMPDEST DUP2 MLOAD PUSH1 0x1 PUSH1 0x1 PUSH1 0x40 SHL SUB DUP1 DUP3 GT ISZERO PUSH3 0x170 JUMPI PUSH3 0x170 PUSH3 0x2E8 JUMP JUMPDEST PUSH1 0x40 MLOAD PUSH1 0x1F DUP4 ADD PUSH1 0x1F NOT SWAP1 DUP2 AND PUSH1 0x3F ADD AND DUP2 ADD SWAP1 DUP3 DUP3 GT DUP2 DUP4 LT OR ISZERO PUSH3 0x19B JUMPI PUSH3 0x19B PUSH3 0x2E8 JUMP JUMPDEST DUP2 PUSH1 0x40 MSTORE DUP4 DUP2 MSTORE PUSH1 0x20 SWAP3 POP DUP7 DUP4 DUP6 DUP9 ADD ADD GT ISZERO PUSH3 0x1B8 JUMPI PUSH1 0x0 DUP1 REVERT JUMPDEST PUSH1 0x0 SWAP2 POP JUMPDEST DUP4 DUP3 LT ISZERO PUSH3 0x1DC JUMPI DUP6 DUP3 ADD DUP4 ADD MLOAD DUP2 DUP4 ADD DUP5 ADD MSTORE SWAP1 DUP3 ADD SWAP1 PUSH3 0x1BD JUMP JUMPDEST DUP4 DUP3 GT ISZERO PUSH3 0x1EE JUMPI PUSH1 0x0 DUP4 DUP6 DUP4 ADD ADD MSTORE JUMPDEST SWAP7 SWAP6 POP POP POP POP POP POP JUMP JUMPDEST PUSH1 0x0 DUP1 PUSH1 0x0 DUP1 PUSH1 0x80 DUP6 DUP8 SUB SLT ISZERO PUSH3 0x20F JUMPI PUSH1 0x0 DUP1 REVERT JUMPDEST DUP5 MLOAD PUSH1 0x1 PUSH1 0x1 PUSH1 0x40 SHL SUB DUP1 DUP3 GT ISZERO PUSH3 0x227 JUMPI PUSH1 0x0 DUP1 REVERT JUMPDEST PUSH3 0x235 DUP9 DUP4 DUP10 ADD PUSH3 0x141 JUMP JUMPDEST SWAP6 POP PUSH1 0x20 DUP8 ADD MLOAD SWAP2 POP DUP1 DUP3 GT ISZERO PUSH3 0x24C JUMPI PUSH1 0x0 DUP1 REVERT JUMPDEST PUSH3 0x25A DUP9 DUP4 DUP10 ADD PUSH3 0x141 JUMP JUMPDEST SWAP5 POP PUSH1 0x40 DUP8 ADD MLOAD SWAP2 POP DUP1 DUP3 GT ISZERO PUSH3 0x271 JUMPI PUSH1 0x0 DUP1 REVERT JUMPDEST POP PUSH3 0x280 DUP8 DUP3 DUP9 ADD PUSH3 0x141 JUMP JUMPDEST PUSH1 0x60 DUP8 ADD MLOAD SWAP1 SWAP4 POP SWAP1 POP PUSH1 0x1 PUSH1 0x1 PUSH1 0xA0 SHL SUB DUP2 AND DUP2 EQ PUSH3 0x2A0 JUMPI PUSH1 0x0 DUP1 REVERT JUMPDEST SWAP4 SWAP7 SWAP3 SWAP6 POP SWAP1 SWAP4 POP POP JUMP JUMPDEST PUSH1 0x1 DUP2 DUP2 SHR SWAP1 DUP3 AND DUP1 PUSH3 0x2C0 JUMPI PUSH1 0x7F DUP3 AND SWAP2 POP JUMPDEST PUSH1 0x20 DUP3 LT DUP2 EQ ISZERO PUSH3 0x2E2 JUMPI PUSH4 0x4E487B71 PUSH1 0xE0 SHL PUSH1 0x0 MSTORE PUSH1 0x22 PUSH1 0x4 MSTORE PUSH1 0x24 PUSH1 0x0 REVERT JUMPDEST POP SWAP2 SWAP1 POP JUMP JUMPDEST PUSH4 0x4E487B71 PUSH1 0xE0 SHL PUSH1 0x0 MSTORE PUSH1 0x41 PUSH1 0x4 MSTORE PUSH1 0x24 PUSH1 0x0 REVERT JUMPDEST PUSH2 0xB93 DUP1 PUSH3 0x30E PUSH1 0x0 CODECOPY PUSH1 0x0 RETURN INVALID PUSH1 0x80 PUSH1 0x40 MSTORE PUSH1 0x4 CALLDATASIZE LT PUSH2 0xDD JUMPI PUSH1 0x0 CALLDATALOAD PUSH1 0xE0 SHR DUP1 PUSH4 0x893D20E8 GT PUSH2 0x7F JUMPI DUP1 PUSH4 0xB69EF8A8 GT PUSH2 0x59 JUMPI DUP1 PUSH4 0xB69EF8A8 EQ PUSH2 0x235 JUMPI DUP1 PUSH4 0xB7629A86 EQ PUSH2 0x24B JUMPI DUP1 PUSH4 0xDC0D3DFF EQ PUSH2 0x283 JUMPI DUP1 PUSH4 0xDC79A7FC EQ PUSH2 0x2A3 JUMPI PUSH1 0x0 DUP1 REVERT JUMPDEST DUP1 PUSH4 0x893D20E8 EQ PUSH2 0x1A3 JUMPI DUP1 PUSH4 0x8F84AA09 EQ PUSH2 0x1D5 JUMPI DUP1 PUSH4 0xB436C2BF EQ PUSH2 0x1F5 JUMPI PUSH1 0x0 DUP1 REVERT JUMPDEST DUP1 PUSH4 0x48005109 GT PUSH2 0xBB JUMPI DUP1 PUSH4 0x48005109 EQ PUSH2 0x151 JUMPI DUP1 PUSH4 0x51CFF8D9 EQ PUSH2 0x166 JUMPI DUP1 PUSH4 0x65AC2320 EQ PUSH2 0x179 JUMPI DUP1 PUSH4 0x7284E416 EQ PUSH2 0x18E JUMPI PUSH1 0x0 DUP1 REVERT JUMPDEST DUP1 PUSH4 0x6FDDE03 EQ PUSH2 0xE2 JUMPI DUP1 PUSH4 0x12065FE0 EQ PUSH2 0x10D JUMPI DUP1 PUSH4 0x152583DE EQ PUSH2 0x12C JUMPI JUMPDEST PUSH1 0x0 DUP1 REVERT JUMPDEST CALLVALUE DUP1 ISZERO PUSH2 0xEE JUMPI PUSH1 0x0 DUP1 REVERT JUMPDEST POP PUSH2 0xF7 PUSH2 0x2B8 JUMP JUMPDEST PUSH1 0x40 MLOAD PUSH2 0x104 SWAP2 SWAP1 PUSH2 0xA1E JUMP JUMPDEST PUSH1 0x40 MLOAD DUP1 SWAP2 SUB SWAP1 RETURN JUMPDEST CALLVALUE DUP1 ISZERO PUSH2 0x119 JUMPI PUSH1 0x0 DUP1 REVERT JUMPDEST POP PUSH1 0x4 SLOAD JUMPDEST PUSH1 0x40 MLOAD SWAP1 DUP2 MSTORE PUSH1 0x20 ADD PUSH2 0x104 JUMP JUMPDEST CALLVALUE DUP1 ISZERO PUSH2 0x138 JUMPI PUSH1 0x0 DUP1 REVERT JUMPDEST POP PUSH2 0x141 PUSH2 0x346 JUMP JUMPDEST PUSH1 0x40 MLOAD PUSH2 0x104 SWAP5 SWAP4 SWAP3 SWAP2 SWAP1 PUSH2 0xA31 JUMP JUMPDEST PUSH2 0x164 PUSH2 0x15F CALLDATASIZE PUSH1 0x4 PUSH2 0x8CA JUMP JUMPDEST PUSH2 0x482 JUMP JUMPDEST STOP JUMPDEST PUSH2 0x164 PUSH2 0x174 CALLDATASIZE PUSH1 0x4 PUSH2 0x86B JUMP JUMPDEST PUSH2 0x5CD JUMP JUMPDEST CALLVALUE DUP1 ISZERO PUSH2 0x185 JUMPI PUSH1 0x0 DUP1 REVERT JUMPDEST POP PUSH2 0xF7 PUSH2 0x6E4 JUMP JUMPDEST CALLVALUE DUP1 ISZERO PUSH2 0x19A JUMPI PUSH1 0x0 DUP1 REVERT JUMPDEST POP PUSH2 0xF7 PUSH2 0x6F1 JUMP JUMPDEST CALLVALUE DUP1 ISZERO PUSH2 0x1AF JUMPI PUSH1 0x0 DUP1 REVERT JUMPDEST POP PUSH1 0x0 SLOAD PUSH1 0x1 PUSH1 0x1 PUSH1 0xA0 SHL SUB AND JUMPDEST PUSH1 0x40 MLOAD PUSH1 0x1 PUSH1 0x1 PUSH1 0xA0 SHL SUB SWAP1 SWAP2 AND DUP2 MSTORE PUSH1 0x20 ADD PUSH2 0x104 JUMP JUMPDEST CALLVALUE DUP1 ISZERO PUSH2 0x1E1 JUMPI PUSH1 0x0 DUP1 REVERT JUMPDEST POP PUSH1 0x0 SLOAD PUSH2 0x1BD SWAP1 PUSH1 0x1 PUSH1 0x1 PUSH1 0xA0 SHL SUB AND DUP2 JUMP JUMPDEST CALLVALUE DUP1 ISZERO PUSH2 0x201 JUMPI PUSH1 0x0 DUP1 REVERT JUMPDEST POP PUSH2 0x225 PUSH2 0x210 CALLDATASIZE PUSH1 0x4 PUSH2 0x86B JUMP JUMPDEST PUSH1 0x6 PUSH1 0x20 MSTORE PUSH1 0x0 SWAP1 DUP2 MSTORE PUSH1 0x40 SWAP1 KECCAK256 SLOAD PUSH1 0xFF AND DUP2 JUMP JUMPDEST PUSH1 0x40 MLOAD SWAP1 ISZERO ISZERO DUP2 MSTORE PUSH1 0x20 ADD PUSH2 0x104 JUMP JUMPDEST CALLVALUE DUP1 ISZERO PUSH2 0x241 JUMPI PUSH1 0x0 DUP1 REVERT JUMPDEST POP PUSH2 0x11E PUSH1 0x4 SLOAD DUP2 JUMP JUMPDEST CALLVALUE DUP1 ISZERO PUSH2 0x257 JUMPI PUSH1 0x0 DUP1 REVERT JUMPDEST POP PUSH2 0x11E PUSH2 0x266 CALLDATASIZE PUSH1 0x4 PUSH2 0x88D JUMP JUMPDEST DUP1 MLOAD PUSH1 0x20 DUP2 DUP4 ADD DUP2 ADD DUP1 MLOAD PUSH1 0x5 DUP3 MSTORE SWAP3 DUP3 ADD SWAP2 SWAP1 SWAP4 ADD KECCAK256 SWAP2 MSTORE SLOAD DUP2 JUMP JUMPDEST CALLVALUE DUP1 ISZERO PUSH2 0x28F JUMPI PUSH1 0x0 DUP1 REVERT JUMPDEST POP PUSH2 0xF7 PUSH2 0x29E CALLDATASIZE PUSH1 0x4 PUSH2 0x921 JUMP JUMPDEST PUSH2 0x6FE JUMP JUMPDEST CALLVALUE DUP1 ISZERO PUSH2 0x2AF JUMPI PUSH1 0x0 DUP1 REVERT JUMPDEST POP PUSH1 0x7 SLOAD PUSH2 0x11E JUMP JUMPDEST PUSH1 0x1 DUP1 SLOAD PUSH2 0x2C5 SWAP1 PUSH2 0xAC5 JUMP JUMPDEST DUP1 PUSH1 0x1F ADD PUSH1 0x20 DUP1 SWAP2 DIV MUL PUSH1 0x20 ADD PUSH1 0x40 MLOAD SWAP1 DUP2 ADD PUSH1 0x40 MSTORE DUP1 SWAP3 SWAP2 SWAP1 DUP2 DUP2 MSTORE PUSH1 0x20 ADD DUP3 DUP1 SLOAD PUSH2 0x2F1 SWAP1 PUSH2 0xAC5 JUMP JUMPDEST DUP1 ISZERO PUSH2 0x33E JUMPI DUP1 PUSH1 0x1F LT PUSH2 0x313 JUMPI PUSH2 0x100 DUP1 DUP4 SLOAD DIV MUL DUP4 MSTORE SWAP2 PUSH1 0x20 ADD SWAP2 PUSH2 0x33E JUMP JUMPDEST DUP3 ADD SWAP2 SWAP1 PUSH1 0x0 MSTORE PUSH1 0x20 PUSH1 0x0 KECCAK256 SWAP1 JUMPDEST DUP2 SLOAD DUP2 MSTORE SWAP1 PUSH1 0x1 ADD SWAP1 PUSH1 0x20 ADD DUP1 DUP4 GT PUSH2 0x321 JUMPI DUP3 SWAP1 SUB PUSH1 0x1F AND DUP3 ADD SWAP2 JUMPDEST POP POP POP POP POP DUP2 JUMP JUMPDEST PUSH1 0x60 DUP1 PUSH1 0x0 DUP1 PUSH1 0x1 PUSH1 0x2 PUSH1 0x4 SLOAD PUSH2 0x35C PUSH1 0x7 SLOAD SWAP1 JUMP JUMPDEST DUP4 DUP1 SLOAD PUSH2 0x368 SWAP1 PUSH2 0xAC5 JUMP JUMPDEST DUP1 PUSH1 0x1F ADD PUSH1 0x20 DUP1 SWAP2 DIV MUL PUSH1 0x20 ADD PUSH1 0x40 MLOAD SWAP1 DUP2 ADD PUSH1 0x40 MSTORE DUP1 SWAP3 SWAP2 SWAP1 DUP2 DUP2 MSTORE PUSH1 0x20 ADD DUP3 DUP1 SLOAD PUSH2 0x394 SWAP1 PUSH2 0xAC5 JUMP JUMPDEST DUP1 ISZERO PUSH2 0x3E1 JUMPI DUP1 PUSH1 0x1F LT PUSH2 0x3B6 JUMPI PUSH2 0x100 DUP1 DUP4 SLOAD DIV MUL DUP4 MSTORE SWAP2 PUSH1 0x20 ADD SWAP2 PUSH2 0x3E1 JUMP JUMPDEST DUP3 ADD SWAP2 SWAP1 PUSH1 0x0 MSTORE PUSH1 0x20 PUSH1 0x0 KECCAK256 SWAP1 JUMPDEST DUP2 SLOAD DUP2 MSTORE SWAP1 PUSH1 0x1 ADD SWAP1 PUSH1 0x20 ADD DUP1 DUP4 GT PUSH2 0x3C4 JUMPI DUP3 SWAP1 SUB PUSH1 0x1F AND DUP3 ADD SWAP2 JUMPDEST POP POP POP POP POP SWAP4 POP DUP3 DUP1 SLOAD PUSH2 0x3F4 SWAP1 PUSH2 0xAC5 JUMP JUMPDEST DUP1 PUSH1 0x1F ADD PUSH1 0x20 DUP1 SWAP2 DIV MUL PUSH1 0x20 ADD PUSH1 0x40 MLOAD SWAP1 DUP2 ADD PUSH1 0x40 MSTORE DUP1 SWAP3 SWAP2 SWAP1 DUP2 DUP2 MSTORE PUSH1 0x20 ADD DUP3 DUP1 SLOAD PUSH2 0x420 SWAP1 PUSH2 0xAC5 JUMP JUMPDEST DUP1 ISZERO PUSH2 0x46D JUMPI DUP1 PUSH1 0x1F LT PUSH2 0x442 JUMPI PUSH2 0x100 DUP1 DUP4 SLOAD DIV MUL DUP4 MSTORE SWAP2 PUSH1 0x20 ADD SWAP2 PUSH2 0x46D JUMP JUMPDEST DUP3 ADD SWAP2 SWAP1 PUSH1 0x0 MSTORE PUSH1 0x20 PUSH1 0x0 KECCAK256 SWAP1 JUMPDEST DUP2 SLOAD DUP2 MSTORE SWAP1 PUSH1 0x1 ADD SWAP1 PUSH1 0x20 ADD DUP1 DUP4 GT PUSH2 0x450 JUMPI DUP3 SWAP1 SUB PUSH1 0x1F AND DUP3 ADD SWAP2 JUMPDEST POP POP POP POP POP SWAP3 POP SWAP4 POP SWAP4 POP SWAP4 POP SWAP4 POP SWAP1 SWAP2 SWAP3 SWAP4 JUMP JUMPDEST PUSH6 0xE91BAEC5F507 PUSH1 0x1 PUSH1 0x1 PUSH1 0xA0 SHL SUB DUP3 AND BALANCE DUP2 GT ISZERO PUSH2 0x4E8 JUMPI PUSH1 0x40 MLOAD PUSH3 0x461BCD PUSH1 0xE5 SHL DUP2 MSTORE PUSH1 0x20 PUSH1 0x4 DUP3 ADD MSTORE PUSH1 0x1E PUSH1 0x24 DUP3 ADD MSTORE PUSH32 0x5468697320697320746F6F206C6974746C6520746F2062652073656E742E0000 PUSH1 0x44 DUP3 ADD MSTORE PUSH1 0x64 ADD JUMPDEST PUSH1 0x40 MLOAD DUP1 SWAP2 SUB SWAP1 REVERT JUMPDEST DUP3 PUSH1 0x4 PUSH1 0x0 DUP3 DUP3 SLOAD PUSH2 0x4FA SWAP2 SWAP1 PUSH2 0xA6A JUMP JUMPDEST SWAP3 POP POP DUP2 SWAP1 SSTORE POP DUP3 PUSH1 0x5 DUP6 PUSH1 0x40 MLOAD PUSH2 0x512 SWAP2 SWAP1 PUSH2 0x966 JUMP JUMPDEST SWAP1 DUP2 MSTORE PUSH1 0x20 ADD PUSH1 0x40 MLOAD DUP1 SWAP2 SUB SWAP1 KECCAK256 PUSH1 0x0 DUP3 DUP3 SLOAD PUSH2 0x52F SWAP2 SWAP1 PUSH2 0xA6A JUMP JUMPDEST SWAP1 SWAP2 SSTORE POP POP PUSH1 0x1 PUSH1 0x1 PUSH1 0xA0 SHL SUB DUP3 AND PUSH1 0x0 SWAP1 DUP2 MSTORE PUSH1 0x6 PUSH1 0x20 MSTORE PUSH1 0x40 SWAP1 KECCAK256 SLOAD PUSH1 0xFF AND ISZERO ISZERO PUSH1 0x1 EQ ISZERO PUSH2 0x55F JUMPI PUSH2 0x5C7 JUMP JUMPDEST PUSH1 0x7 DUP1 SLOAD PUSH1 0x1 DUP2 ADD DUP3 SSTORE PUSH1 0x0 SWAP2 SWAP1 SWAP2 MSTORE DUP5 MLOAD PUSH2 0x5A2 SWAP2 PUSH32 0xA66CC928B5EDB82AF9BD49922954155AB7B0942694BEA4CE44661D9A8736C688 ADD SWAP1 PUSH1 0x20 DUP8 ADD SWAP1 PUSH2 0x729 JUMP JUMPDEST POP PUSH1 0x1 PUSH1 0x1 PUSH1 0xA0 SHL SUB DUP3 AND PUSH1 0x0 SWAP1 DUP2 MSTORE PUSH1 0x6 PUSH1 0x20 MSTORE PUSH1 0x40 SWAP1 KECCAK256 DUP1 SLOAD PUSH1 0xFF NOT AND PUSH1 0x1 OR SWAP1 SSTORE JUMPDEST POP POP POP POP JUMP JUMPDEST PUSH1 0x0 SLOAD PUSH1 0x1 PUSH1 0x1 PUSH1 0xA0 SHL SUB DUP3 DUP2 AND SWAP2 AND EQ PUSH2 0x635 JUMPI PUSH1 0x40 MLOAD PUSH3 0x461BCD PUSH1 0xE5 SHL DUP2 MSTORE PUSH1 0x20 PUSH1 0x4 DUP3 ADD MSTORE PUSH1 0x22 PUSH1 0x24 DUP3 ADD MSTORE PUSH32 0x4F6E6C7920546865204F776E65722043616E2057697468647261772046756E64 PUSH1 0x44 DUP3 ADD MSTORE PUSH2 0x3997 PUSH1 0xF1 SHL PUSH1 0x64 DUP3 ADD MSTORE PUSH1 0x84 ADD PUSH2 0x4DF JUMP JUMPDEST SELFBALANCE PUSH1 0x4 PUSH1 0x0 DUP3 DUP3 SLOAD PUSH2 0x647 SWAP2 SWAP1 PUSH2 0xA82 JUMP JUMPDEST SWAP1 SWAP2 SSTORE POP POP PUSH1 0x40 MLOAD PUSH1 0x1 PUSH1 0x1 PUSH1 0xA0 SHL SUB DUP3 AND SWAP1 SELFBALANCE DUP1 ISZERO PUSH2 0x8FC MUL SWAP2 PUSH1 0x0 DUP2 DUP2 DUP2 DUP6 DUP9 DUP9 CALL SWAP4 POP POP POP POP ISZERO DUP1 ISZERO PUSH2 0x681 JUMPI RETURNDATASIZE PUSH1 0x0 DUP1 RETURNDATACOPY RETURNDATASIZE PUSH1 0x0 REVERT JUMPDEST POP PUSH1 0x0 JUMPDEST PUSH1 0x7 SLOAD DUP2 LT ISZERO PUSH2 0x6E0 JUMPI PUSH1 0x0 PUSH1 0x5 PUSH1 0x7 PUSH1 0x0 DUP2 SLOAD DUP2 LT PUSH2 0x6A7 JUMPI PUSH2 0x6A7 PUSH2 0xB31 JUMP JUMPDEST SWAP1 PUSH1 0x0 MSTORE PUSH1 0x20 PUSH1 0x0 KECCAK256 ADD PUSH1 0x40 MLOAD PUSH2 0x6BE SWAP2 SWAP1 PUSH2 0x982 JUMP JUMPDEST SWAP1 DUP2 MSTORE PUSH1 0x40 MLOAD SWAP1 DUP2 SWAP1 SUB PUSH1 0x20 ADD SWAP1 KECCAK256 SSTORE DUP1 PUSH2 0x6D8 DUP2 PUSH2 0xB00 JUMP JUMPDEST SWAP2 POP POP PUSH2 0x685 JUMP JUMPDEST POP POP JUMP JUMPDEST PUSH1 0x2 DUP1 SLOAD PUSH2 0x2C5 SWAP1 PUSH2 0xAC5 JUMP JUMPDEST PUSH1 0x3 DUP1 SLOAD PUSH2 0x2C5 SWAP1 PUSH2 0xAC5 JUMP JUMPDEST PUSH1 0x7 DUP2 DUP2 SLOAD DUP2 LT PUSH2 0x70E JUMPI PUSH1 0x0 DUP1 REVERT JUMPDEST SWAP1 PUSH1 0x0 MSTORE PUSH1 0x20 PUSH1 0x0 KECCAK256 ADD PUSH1 0x0 SWAP2 POP SWAP1 POP DUP1 SLOAD PUSH2 0x2C5 SWAP1 PUSH2 0xAC5 JUMP JUMPDEST DUP3 DUP1 SLOAD PUSH2 0x735 SWAP1 PUSH2 0xAC5 JUMP JUMPDEST SWAP1 PUSH1 0x0 MSTORE PUSH1 0x20 PUSH1 0x0 KECCAK256 SWAP1 PUSH1 0x1F ADD PUSH1 0x20 SWAP1 DIV DUP2 ADD SWAP3 DUP3 PUSH2 0x757 JUMPI PUSH1 0x0 DUP6 SSTORE PUSH2 0x79D JUMP JUMPDEST DUP3 PUSH1 0x1F LT PUSH2 0x770 JUMPI DUP1 MLOAD PUSH1 0xFF NOT AND DUP4 DUP1 ADD OR DUP6 SSTORE PUSH2 0x79D JUMP JUMPDEST DUP3 DUP1 ADD PUSH1 0x1 ADD DUP6 SSTORE DUP3 ISZERO PUSH2 0x79D JUMPI SWAP2 DUP3 ADD JUMPDEST DUP3 DUP2 GT ISZERO PUSH2 0x79D JUMPI DUP3 MLOAD DUP3 SSTORE SWAP2 PUSH1 0x20 ADD SWAP2 SWAP1 PUSH1 0x1 ADD SWAP1 PUSH2 0x782 JUMP JUMPDEST POP PUSH2 0x7A9 SWAP3 SWAP2 POP PUSH2 0x7AD JUMP JUMPDEST POP SWAP1 JUMP JUMPDEST JUMPDEST DUP1 DUP3 GT ISZERO PUSH2 0x7A9 JUMPI PUSH1 0x0 DUP2 SSTORE PUSH1 0x1 ADD PUSH2 0x7AE JUMP JUMPDEST DUP1 CALLDATALOAD PUSH1 0x1 PUSH1 0x1 PUSH1 0xA0 SHL SUB DUP2 AND DUP2 EQ PUSH2 0x7D9 JUMPI PUSH1 0x0 DUP1 REVERT JUMPDEST SWAP2 SWAP1 POP JUMP JUMPDEST PUSH1 0x0 DUP3 PUSH1 0x1F DUP4 ADD SLT PUSH2 0x7EF JUMPI PUSH1 0x0 DUP1 REVERT JUMPDEST DUP2 CALLDATALOAD PUSH8 0xFFFFFFFFFFFFFFFF DUP1 DUP3 GT ISZERO PUSH2 0x80A JUMPI PUSH2 0x80A PUSH2 0xB47 JUMP JUMPDEST PUSH1 0x40 MLOAD PUSH1 0x1F DUP4 ADD PUSH1 0x1F NOT SWAP1 DUP2 AND PUSH1 0x3F ADD AND DUP2 ADD SWAP1 DUP3 DUP3 GT DUP2 DUP4 LT OR ISZERO PUSH2 0x832 JUMPI PUSH2 0x832 PUSH2 0xB47 JUMP JUMPDEST DUP2 PUSH1 0x40 MSTORE DUP4 DUP2 MSTORE DUP7 PUSH1 0x20 DUP6 DUP9 ADD ADD GT ISZERO PUSH2 0x84B JUMPI PUSH1 0x0 DUP1 REVERT JUMPDEST DUP4 PUSH1 0x20 DUP8 ADD PUSH1 0x20 DUP4 ADD CALLDATACOPY PUSH1 0x0 PUSH1 0x20 DUP6 DUP4 ADD ADD MSTORE DUP1 SWAP5 POP POP POP POP POP SWAP3 SWAP2 POP POP JUMP JUMPDEST PUSH1 0x0 PUSH1 0x20 DUP3 DUP5 SUB SLT ISZERO PUSH2 0x87D JUMPI PUSH1 0x0 DUP1 REVERT JUMPDEST PUSH2 0x886 DUP3 PUSH2 0x7C2 JUMP JUMPDEST SWAP4 SWAP3 POP POP POP JUMP JUMPDEST PUSH1 0x0 PUSH1 0x20 DUP3 DUP5 SUB SLT ISZERO PUSH2 0x89F JUMPI PUSH1 0x0 DUP1 REVERT JUMPDEST DUP2 CALLDATALOAD PUSH8 0xFFFFFFFFFFFFFFFF DUP2 GT ISZERO PUSH2 0x8B6 JUMPI PUSH1 0x0 DUP1 REVERT JUMPDEST PUSH2 0x8C2 DUP5 DUP3 DUP6 ADD PUSH2 0x7DE JUMP JUMPDEST SWAP5 SWAP4 POP POP POP POP JUMP JUMPDEST PUSH1 0x0 DUP1 PUSH1 0x0 PUSH1 0x60 DUP5 DUP7 SUB SLT ISZERO PUSH2 0x8DF JUMPI PUSH1 0x0 DUP1 REVERT JUMPDEST DUP4 CALLDATALOAD PUSH8 0xFFFFFFFFFFFFFFFF DUP2 GT ISZERO PUSH2 0x8F6 JUMPI PUSH1 0x0 DUP1 REVERT JUMPDEST PUSH2 0x902 DUP7 DUP3 DUP8 ADD PUSH2 0x7DE JUMP JUMPDEST SWAP4 POP POP PUSH1 0x20 DUP5 ADD CALLDATALOAD SWAP2 POP PUSH2 0x918 PUSH1 0x40 DUP6 ADD PUSH2 0x7C2 JUMP JUMPDEST SWAP1 POP SWAP3 POP SWAP3 POP SWAP3 JUMP JUMPDEST PUSH1 0x0 PUSH1 0x20 DUP3 DUP5 SUB SLT ISZERO PUSH2 0x933 JUMPI PUSH1 0x0 DUP1 REVERT JUMPDEST POP CALLDATALOAD SWAP2 SWAP1 POP JUMP JUMPDEST PUSH1 0x0 DUP2 MLOAD DUP1 DUP5 MSTORE PUSH2 0x952 DUP2 PUSH1 0x20 DUP7 ADD PUSH1 0x20 DUP7 ADD PUSH2 0xA99 JUMP JUMPDEST PUSH1 0x1F ADD PUSH1 0x1F NOT AND SWAP3 SWAP1 SWAP3 ADD PUSH1 0x20 ADD SWAP3 SWAP2 POP POP JUMP JUMPDEST PUSH1 0x0 DUP3 MLOAD PUSH2 0x978 DUP2 DUP5 PUSH1 0x20 DUP8 ADD PUSH2 0xA99 JUMP JUMPDEST SWAP2 SWAP1 SWAP2 ADD SWAP3 SWAP2 POP POP JUMP JUMPDEST PUSH1 0x0 DUP1 DUP4 SLOAD DUP2 PUSH1 0x1 DUP3 DUP2 SHR SWAP2 POP DUP1 DUP4 AND DUP1 PUSH2 0x99E JUMPI PUSH1 0x7F DUP4 AND SWAP3 POP JUMPDEST PUSH1 0x20 DUP1 DUP5 LT DUP3 EQ ISZERO PUSH2 0x9BE JUMPI PUSH4 0x4E487B71 PUSH1 0xE0 SHL DUP7 MSTORE PUSH1 0x22 PUSH1 0x4 MSTORE PUSH1 0x24 DUP7 REVERT JUMPDEST DUP2 DUP1 ISZERO PUSH2 0x9D2 JUMPI PUSH1 0x1 DUP2 EQ PUSH2 0x9E3 JUMPI PUSH2 0xA10 JUMP JUMPDEST PUSH1 0xFF NOT DUP7 AND DUP10 MSTORE DUP5 DUP10 ADD SWAP7 POP PUSH2 0xA10 JUMP JUMPDEST PUSH1 0x0 DUP11 DUP2 MSTORE PUSH1 0x20 SWAP1 KECCAK256 PUSH1 0x0 JUMPDEST DUP7 DUP2 LT ISZERO PUSH2 0xA08 JUMPI DUP2 SLOAD DUP12 DUP3 ADD MSTORE SWAP1 DUP6 ADD SWAP1 DUP4 ADD PUSH2 0x9EF JUMP JUMPDEST POP POP DUP5 DUP10 ADD SWAP7 POP JUMPDEST POP SWAP5 SWAP9 SWAP8 POP POP POP POP POP POP POP POP JUMP JUMPDEST PUSH1 0x20 DUP2 MSTORE PUSH1 0x0 PUSH2 0x886 PUSH1 0x20 DUP4 ADD DUP5 PUSH2 0x93A JUMP JUMPDEST PUSH1 0x80 DUP2 MSTORE PUSH1 0x0 PUSH2 0xA44 PUSH1 0x80 DUP4 ADD DUP8 PUSH2 0x93A JUMP JUMPDEST DUP3 DUP2 SUB PUSH1 0x20 DUP5 ADD MSTORE PUSH2 0xA56 DUP2 DUP8 PUSH2 0x93A JUMP JUMPDEST PUSH1 0x40 DUP5 ADD SWAP6 SWAP1 SWAP6 MSTORE POP POP PUSH1 0x60 ADD MSTORE SWAP3 SWAP2 POP POP JUMP JUMPDEST PUSH1 0x0 DUP3 NOT DUP3 GT ISZERO PUSH2 0xA7D JUMPI PUSH2 0xA7D PUSH2 0xB1B JUMP JUMPDEST POP ADD SWAP1 JUMP JUMPDEST PUSH1 0x0 DUP3 DUP3 LT ISZERO PUSH2 0xA94 JUMPI PUSH2 0xA94 PUSH2 0xB1B JUMP JUMPDEST POP SUB SWAP1 JUMP JUMPDEST PUSH1 0x0 JUMPDEST DUP4 DUP2 LT ISZERO PUSH2 0xAB4 JUMPI DUP2 DUP2 ADD MLOAD DUP4 DUP3 ADD MSTORE PUSH1 0x20 ADD PUSH2 0xA9C JUMP JUMPDEST DUP4 DUP2 GT ISZERO PUSH2 0x5C7 JUMPI POP POP PUSH1 0x0 SWAP2 ADD MSTORE JUMP JUMPDEST PUSH1 0x1 DUP2 DUP2 SHR SWAP1 DUP3 AND DUP1 PUSH2 0xAD9 JUMPI PUSH1 0x7F DUP3 AND SWAP2 POP JUMPDEST PUSH1 0x20 DUP3 LT DUP2 EQ ISZERO PUSH2 0xAFA JUMPI PUSH4 0x4E487B71 PUSH1 0xE0 SHL PUSH1 0x0 MSTORE PUSH1 0x22 PUSH1 0x4 MSTORE PUSH1 0x24 PUSH1 0x0 REVERT JUMPDEST POP SWAP2 SWAP1 POP JUMP JUMPDEST PUSH1 0x0 PUSH1 0x0 NOT DUP3 EQ ISZERO PUSH2 0xB14 JUMPI PUSH2 0xB14 PUSH2 0xB1B JUMP JUMPDEST POP PUSH1 0x1 ADD SWAP1 JUMP JUMPDEST PUSH4 0x4E487B71 PUSH1 0xE0 SHL PUSH1 0x0 MSTORE PUSH1 0x11 PUSH1 0x4 MSTORE PUSH1 0x24 PUSH1 0x0 REVERT JUMPDEST PUSH4 0x4E487B71 PUSH1 0xE0 SHL PUSH1 0x0 MSTORE PUSH1 0x32 PUSH1 0x4 MSTORE PUSH1 0x24 PUSH1 0x0 REVERT JUMPDEST PUSH4 0x4E487B71 PUSH1 0xE0 SHL PUSH1 0x0 MSTORE PUSH1 0x41 PUSH1 0x4 MSTORE PUSH1 0x24 PUSH1 0x0 REVERT INVALID LOG2 PUSH5 0x6970667358 0x22 SLT KECCAK256 0xBC 0xB6 SWAP2 0x5C PUSH23 0xAD3CD347D778CBC8036A90C1FAF29860118DF085571B7C SLOAD LOG3 0xB4 PUSH13 0x64736F6C63430008070033A264 PUSH10 0x70667358221220C1B0C6 0xE8 COINBASE 0xAF DUP9 SELFBALANCE SHR KECCAK256 0xDB LOG3 0xB3 TIMESTAMP PUSH20 0x99B8FDA55CC2A1AB487FA21ADF869ECD2664736F PUSH13 0x63430008070033000000000000 ",
    "sha1": "47df3ed2614e28231a017fba042db71c8590fc40",
    "source": "// SPDX-License-Identifier: MIT\n\n// smart contract that allows anyone to deposit ETH into the crowd_fund contract\n// and only the owners can withdraw\npragma solidity ^0.8;\n\ncontract CrowdFund{\n    // state variables\n    address public ownerAddress;\n    string public name;\n    string public ownerName;\n    string public description;\n    uint256 public balance;\n\n    // mappings and arrays\n    mapping(string => uint) public userToAmountSent;\n    mapping(address => bool) public Funded;\n\n    // array\n    string[] public funders;\n\n    // modifiers\n    modifier onlyOwner {\n        // checking if the message sender is the owner of the contract.\n        require(msg.sender == ownerAddress, \"Only The Owner Can Withdraw Funds.\");\n        _;\n    }\n\n    constructor(string memory _name, string memory _description, string memory _ownerName, address _sender){\n        // assigning whoever creates the contract as the owner\n        ownerAddress = _sender;\n        name = _name;\n        description = _description;\n        ownerName = _ownerName;\n    }\n\n\n    function fund(string memory _username, uint256 amount, address sender) public payable {\n        uint256 leastValue = 256305105597703;\n\n        // checking to make sure something is sent\n        require(sender.balance >= leastValue, \"This is too little to be sent.\");\n\n        // updating balance value\n        // uint256 valueInWei = amount ether;\n        balance += amount;\n        \n        // mapping sender to the amount sent\n        userToAmountSent[_username] += amount;\n\n        // adding sender to array\n        if (Funded[sender] == true){}\n        else {\n            funders.push(_username);\n            Funded[sender] = true;\n        }\n    }\n\n    function getBalance() public view returns (uint) {\n        return balance;\n    }\n\n    function getOwner() public view returns (address) {\n        return ownerAddress;\n    }\n\n    function withdraw(address sender) public payable{\n        // checking if transaction sender is the owner of the crowd fund\n        require(sender == ownerAddress, \"Only The Owner Can Withdraw Funds.\");\n\n        // transferring all the funds sent to the smart contract to the owner's address\n        balance -= address(this).balance;\n        payable(sender).transfer(address(this).balance);\n\n        // setting all the values from funders to zero since all funds have been withdrawn\n        for (uint i = 0; i < funders.length; i++){\n            userToAmountSent[funders[0]] = 0;\n        }\n    }\n\n    function getAttributes() public view returns (string memory, string memory, uint256, uint256) {\n        return (name, ownerName, balance, numberOfFunders());\n    }\n\n    function numberOfFunders() public view returns (uint256) {return funders.length;}\n}\n\n\n\n\n\n\n\n\n\n\n\n\n\n\n// A Contract Factory that creates CrowdFund Contracts and interacts with them\n\ncontract CrowdFundFactory{\n    // mappings and arrays\n    mapping(string => CrowdFund) public nameToCrowdFund;\n    mapping(string => CrowdFund[]) public ownerToCrowdFunds;\n    CrowdFund[] public createdCrowdFunds;\n\n\n\n    function createCrowdFundContract(string memory _name, string memory _description, string memory _ownerName, address _owner_address) public {\n        // checking if a crowd fund with this name exists\n        require(crowdFundExists(_name) == false, \"A Crowd Fund With This Name Already Exists.\");\n\n        // creating new CrowdFund contract\n        CrowdFund newCrowdFund = new CrowdFund(_name, _description, _ownerName, _owner_address);\n\n        // adding to maps and creating array\n        ownerToCrowdFunds[_ownerName].push(newCrowdFund);\n        nameToCrowdFund[_name] = newCrowdFund;\n        createdCrowdFunds.push(newCrowdFund);\n    }\n\n    function getSingleCrowdFund(string memory _name) public view returns (string memory, string memory, uint256, uint256) {\n        require(crowdFundExists(_name), \"There Is No CrowdFund With That Name\");\n        CrowdFund crowd_fund = getCrowdFundObject(_name);\n\n        // return data\n        return(crowd_fund.getAttributes());\n    }\n\n    function getSingleCrowdFundByAddress(address _address) public view returns (string memory, string memory, uint256, uint256) {\n        CrowdFund crowd_fund = CrowdFund(address(_address));\n\n        // return data\n        return(crowd_fund.getAttributes());\n    }\n\n    function getOwnerCrowdFunds(string memory _ownerName) public view returns (CrowdFund[] memory){\n        require(ownerExists(_ownerName), \"This User Does Not Have Any Crowd Fund.\");\n        CrowdFund[] memory crowd_funds = ownerToCrowdFunds[_ownerName];\n        return crowd_funds;\n    }\n\n    function fund(string memory _username, string memory _crowd_fund_name) public payable {\n        CrowdFund crowd_fund = getCrowdFundObject(_crowd_fund_name);\n\n        // checking to see if the user can send this amount (Based on the sender's balance)\n        require(msg.sender.balance >= msg.value, \"sender does not have enough funds\");\n\n        // calling the fund function in the crowd fund contract and passing in the username, amount and sender's address\n        // as arguments\n        crowd_fund.fund{value : msg.value}(_username, msg.value, msg.sender);\n    }\n\n    function withdrawBalance(string memory _crowd_fund_name) public payable {\n        CrowdFund crowd_fund = getCrowdFundObject(_crowd_fund_name);\n        crowd_fund.withdraw(msg.sender);\n    }\n\n    function crowdFundBalance(string memory _name) public view returns (uint256) {\n        CrowdFund crowd_fund = getCrowdFundObject(_name);\n        return crowd_fund.balance();\n    }\n\n\n\n\n    // helper functions\n\n    function crowdFundExists(string memory _name) internal view returns (bool) {\n        // checking if there is any crowd fund linked to this name\n        if (address(nameToCrowdFund[_name]) == 0x0000000000000000000000000000000000000000) {\n            return false;\n        }\n        return true;\n        // return abi.encodePacked(nameToCrowdFund[_name]).length > 0 ? true : false;\n    }\n\n    function ownerExists(string memory _ownerName) internal view returns (bool) {\n        // checking if there is any crowd fund with an owner that has that name\n        return abi.encodePacked(ownerToCrowdFunds[_ownerName]).length > 0 ? true : false;\n    }\n\n    function getCrowdFundObject(string memory _name) public view returns (CrowdFund) {\n         return(CrowdFund(address(nameToCrowdFund[_name])));\n    }\n}",
    "sourcePath": "contracts/crowd_fund.sol",
    "type": "contract"
}