{
  "abi": [
    {
      "inputs": [
        {
          "internalType": "string",
          "name": "_name",
          "type": "string"
        },
        {
          "internalType": "string",
          "name": "_description",
          "type": "string"
        },
        {
          "internalType": "string",
          "name": "_ownerName",
          "type": "string"
        }
      ],
      "name": "createCrowdFundContract",
      "outputs": [],
      "stateMutability": "nonpayable",
      "type": "function"
    },
    {
      "inputs": [
        {
          "internalType": "uint256",
          "name": "",
          "type": "uint256"
        }
      ],
      "name": "createdCrowdFunds",
      "outputs": [
        {
          "internalType": "contract CrowdFund",
          "name": "",
          "type": "address"
        }
      ],
      "stateMutability": "view",
      "type": "function"
    },
    {
      "inputs": [
        {
          "internalType": "string",
          "name": "_name",
          "type": "string"
        }
      ],
      "name": "crowdFundBalance",
      "outputs": [
        {
          "internalType": "uint256",
          "name": "",
          "type": "uint256"
        }
      ],
      "stateMutability": "view",
      "type": "function"
    },
    {
      "inputs": [
        {
          "internalType": "string",
          "name": "_username",
          "type": "string"
        },
        {
          "internalType": "string",
          "name": "_crowd_fund_name",
          "type": "string"
        }
      ],
      "name": "fund",
      "outputs": [],
      "stateMutability": "payable",
      "type": "function"
    },
    {
      "inputs": [
        {
          "internalType": "string",
          "name": "_name",
          "type": "string"
        }
      ],
      "name": "getCrowdFundObject",
      "outputs": [
        {
          "internalType": "contract CrowdFund",
          "name": "",
          "type": "address"
        }
      ],
      "stateMutability": "view",
      "type": "function"
    },
    {
      "inputs": [
        {
          "internalType": "string",
          "name": "_ownerName",
          "type": "string"
        }
      ],
      "name": "getOwnerCrowdFunds",
      "outputs": [
        {
          "internalType": "contract CrowdFund[]",
          "name": "",
          "type": "address[]"
        }
      ],
      "stateMutability": "view",
      "type": "function"
    },
    {
      "inputs": [
        {
          "internalType": "string",
          "name": "_name",
          "type": "string"
        }
      ],
      "name": "getSingleCrowdFund",
      "outputs": [
        {
          "internalType": "string",
          "name": "",
          "type": "string"
        },
        {
          "internalType": "string",
          "name": "",
          "type": "string"
        },
        {
          "internalType": "uint256",
          "name": "",
          "type": "uint256"
        },
        {
          "internalType": "uint256",
          "name": "",
          "type": "uint256"
        },
        {
          "internalType": "string",
          "name": "",
          "type": "string"
        }
      ],
      "stateMutability": "view",
      "type": "function"
    },
    {
      "inputs": [
        {
          "internalType": "address",
          "name": "_address",
          "type": "address"
        }
      ],
      "name": "getSingleCrowdFundByAddress",
      "outputs": [
        {
          "internalType": "string",
          "name": "",
          "type": "string"
        },
        {
          "internalType": "string",
          "name": "",
          "type": "string"
        },
        {
          "internalType": "uint256",
          "name": "",
          "type": "uint256"
        },
        {
          "internalType": "uint256",
          "name": "",
          "type": "uint256"
        },
        {
          "internalType": "string",
          "name": "",
          "type": "string"
        }
      ],
      "stateMutability": "view",
      "type": "function"
    },
    {
      "inputs": [
        {
          "internalType": "string",
          "name": "",
          "type": "string"
        }
      ],
      "name": "nameToCrowdFund",
      "outputs": [
        {
          "internalType": "contract CrowdFund",
          "name": "",
          "type": "address"
        }
      ],
      "stateMutability": "view",
      "type": "function"
    },
    {
      "inputs": [
        {
          "internalType": "string",
          "name": "",
          "type": "string"
        },
        {
          "internalType": "uint256",
          "name": "",
          "type": "uint256"
        }
      ],
      "name": "ownerToCrowdFunds",
      "outputs": [
        {
          "internalType": "contract CrowdFund",
          "name": "",
          "type": "address"
        }
      ],
      "stateMutability": "view",
      "type": "function"
    },
    {
      "inputs": [
        {
          "internalType": "string",
          "name": "_crowd_fund_name",
          "type": "string"
        }
      ],
      "name": "withdrawBalance",
      "outputs": [],
      "stateMutability": "payable",
      "type": "function"
    }
  ],
  "bytecode": "608060405234801561001057600080fd5b50611e3a806100206000396000f3fe608060405260043610620000a95760003560e01c80637a0ada97116200006c5780637a0ada9714620001c6578063948f62a114620001eb578063a379b51f146200021f578063aaae66551462000238578063bd61c193146200025d578063e9e88dc3146200028257600080fd5b8063273ef72f14620000ae5780632c86d6a314620000e65780633ce42962146200014457806366ea5e8f146200016957806375a640be146200018e575b600080fd5b348015620000bb57600080fd5b50620000d3620000cd366004620009ee565b62000299565b6040519081526020015b60405180910390f35b348015620000f357600080fd5b506200012b62000105366004620009ee565b80516020818301810180516000825292820191909301209152546001600160a01b031681565b6040516001600160a01b039091168152602001620000dd565b3480156200015157600080fd5b506200012b6200016336600462000bca565b62000325565b3480156200017657600080fd5b506200012b6200018836600462000c13565b6200036d565b3480156200019b57600080fd5b50620001b3620001ad366004620009ee565b62000398565b604051620000dd95949392919062000d83565b348015620001d357600080fd5b50620001b3620001e5366004620009c3565b620004a4565b348015620001f857600080fd5b50620002106200020a366004620009ee565b620004eb565b604051620000dd919062000cdb565b620002366200023036600462000a27565b620005d5565b005b3480156200024557600080fd5b50620002366200025736600462000a92565b62000650565b3480156200026a57600080fd5b506200012b6200027c366004620009ee565b620007d0565b6200023662000293366004620009ee565b62000802565b600080620002a783620007d0565b9050806001600160a01b031663b69ef8a86040518163ffffffff1660e01b815260040160206040518083038186803b158015620002e357600080fd5b505afa158015620002f8573d6000803e3d6000fd5b505050506040513d601f19601f820116820180604052508101906200031e919062000c2d565b9392505050565b815160208184018101805160018252928201918501919091209190528054829081106200035157600080fd5b6000918252602090912001546001600160a01b03169150829050565b600281815481106200037e57600080fd5b6000918252602090912001546001600160a01b0316905081565b6060806000806060620003ab8662000871565b620004095760405162461bcd60e51b8152602060048201526024808201527f5468657265204973204e6f2043726f776446756e6420576974682054686174206044820152634e616d6560e01b60648201526084015b60405180910390fd5b60006200041687620007d0565b9050806001600160a01b031663152583de6040518163ffffffff1660e01b815260040160006040518083038186803b1580156200045257600080fd5b505afa15801562000467573d6000803e3d6000fd5b505050506040513d6000823e601f3d908101601f1916820160405262000491919081019062000b24565b939b929a50909850965090945092505050565b60608060008060606000869050806001600160a01b031663152583de6040518163ffffffff1660e01b815260040160006040518083038186803b1580156200045257600080fd5b6060620004f882620008b2565b620005565760405162461bcd60e51b815260206004820152602760248201527f54686973205573657220446f6573204e6f74204861766520416e792043726f776044820152663210233ab7321760c91b606482015260840162000400565b60006001836040516200056a919062000cbd565b9081526040805191829003602090810183208054808302850183019093528284529190830182828015620005c857602002820191906000526020600020905b81546001600160a01b03168152600190910190602001808311620005a9575b5093979650505050505050565b6000620005e282620007d0565b9050806001600160a01b03166348005109348534336040518563ffffffff1660e01b8152600401620006179392919062000dda565b6000604051808303818588803b1580156200063157600080fd5b505af115801562000646573d6000803e3d6000fd5b5050505050505050565b6200065b8362000871565b15620006be5760405162461bcd60e51b815260206004820152602b60248201527f412043726f77642046756e6420576974682054686973204e616d6520416c726560448201526a30b23c9022bc34b9ba399760a91b606482015260840162000400565b600083838333604051620006d29062000905565b620006e1949392919062000d2a565b604051809103906000f080158015620006fe573d6000803e3d6000fd5b50905060018260405162000713919062000cbd565b908152604051602091819003820181208054600181018255600091825292812090920180546001600160a01b0319166001600160a01b0385161790558291906200075f90879062000cbd565b90815260405190819003602001902080546001600160a01b039283166001600160a01b031991821617909155600280546001810182556000919091527f405787fa12a823e0f2b7631cc41b3ba8828b3321ca811111fa75cd3aa3bb5ace018054939092169216919091179055505050565b60008082604051620007e3919062000cbd565b908152604051908190036020019020546001600160a01b031692915050565b60006200080f82620007d0565b6040516351cff8d960e01b81523360048201529091506001600160a01b038216906351cff8d990602401600060405180830381600087803b1580156200085457600080fd5b505af115801562000869573d6000803e3d6000fd5b505050505050565b6000808260405162000884919062000cbd565b908152604051908190036020019020546001600160a01b0316620008aa57506000919050565b506001919050565b600080600183604051620008c7919062000cbd565b9081526020016040518091039020604051602001620008e7919062000c75565b6040516020818303038152906040525111620008aa57600092915050565b610f4d8062000eb883390190565b600082601f8301126200092557600080fd5b81356200093c620009368262000e43565b62000e0f565b8181528460208386010111156200095257600080fd5b816020850160208301376000918101602001919091529392505050565b600082601f8301126200098157600080fd5b815162000992620009368262000e43565b818152846020838601011115620009a857600080fd5b620009bb82602083016020870162000e6e565b949350505050565b600060208284031215620009d657600080fd5b81356001600160a01b03811681146200031e57600080fd5b60006020828403121562000a0157600080fd5b813567ffffffffffffffff81111562000a1957600080fd5b620009bb8482850162000913565b6000806040838503121562000a3b57600080fd5b823567ffffffffffffffff8082111562000a5457600080fd5b62000a628683870162000913565b9350602085013591508082111562000a7957600080fd5b5062000a888582860162000913565b9150509250929050565b60008060006060848603121562000aa857600080fd5b833567ffffffffffffffff8082111562000ac157600080fd5b62000acf8783880162000913565b9450602086013591508082111562000ae657600080fd5b62000af48783880162000913565b9350604086013591508082111562000b0b57600080fd5b5062000b1a8682870162000913565b9150509250925092565b600080600080600060a0868803121562000b3d57600080fd5b855167ffffffffffffffff8082111562000b5657600080fd5b62000b6489838a016200096f565b9650602088015191508082111562000b7b57600080fd5b62000b8989838a016200096f565b95506040880151945060608801519350608088015191508082111562000bae57600080fd5b5062000bbd888289016200096f565b9150509295509295909350565b6000806040838503121562000bde57600080fd5b823567ffffffffffffffff81111562000bf657600080fd5b62000c048582860162000913565b95602094909401359450505050565b60006020828403121562000c2657600080fd5b5035919050565b60006020828403121562000c4057600080fd5b5051919050565b6000815180845262000c6181602086016020860162000e6e565b601f01601f19169290920160200192915050565b60008183548391508460005260208060002060005b8381101562000cb15781546001600160a01b03168552938201936001918201910162000c8a565b50929695505050505050565b6000825162000cd181846020870162000e6e565b9190910192915050565b6020808252825182820181905260009190848201906040850190845b8181101562000d1e5783516001600160a01b03168352928401929184019160010162000cf7565b50909695505050505050565b60808152600062000d3f608083018762000c47565b828103602084015262000d53818762000c47565b9050828103604084015262000d69818662000c47565b91505060018060a01b038316606083015295945050505050565b60a08152600062000d9860a083018862000c47565b828103602084015262000dac818862000c47565b9050856040840152846060840152828103608084015262000dce818562000c47565b98975050505050505050565b60608152600062000def606083018662000c47565b6020830194909452506001600160a01b0391909116604090910152919050565b604051601f8201601f1916810167ffffffffffffffff8111828210171562000e3b5762000e3b62000ea1565b604052919050565b600067ffffffffffffffff82111562000e605762000e6062000ea1565b50601f01601f191660200190565b60005b8381101562000e8b57818101518382015260200162000e71565b8381111562000e9b576000848401525b50505050565b634e487b7160e01b600052604160045260246000fdfe60806040523480156200001157600080fd5b5060405162000f4d38038062000f4d8339810160408190526200003491620001f8565b600080546001600160a01b0319166001600160a01b0383161790558351620000649060019060208701906200009b565b5082516200007a9060039060208601906200009b565b508151620000909060029060208501906200009b565b5050505050620002fe565b828054620000a990620002ab565b90600052602060002090601f016020900481019282620000cd576000855562000118565b82601f10620000e857805160ff191683800117855562000118565b8280016001018555821562000118579182015b8281111562000118578251825591602001919060010190620000fb565b50620001269291506200012a565b5090565b5b808211156200012657600081556001016200012b565b600082601f8301126200015357600080fd5b81516001600160401b0380821115620001705762000170620002e8565b604051601f8301601f19908116603f011681019082821181831017156200019b576200019b620002e8565b81604052838152602092508683858801011115620001b857600080fd5b600091505b83821015620001dc5785820183015181830184015290820190620001bd565b83821115620001ee5760008385830101525b9695505050505050565b600080600080608085870312156200020f57600080fd5b84516001600160401b03808211156200022757600080fd5b620002358883890162000141565b955060208701519150808211156200024c57600080fd5b6200025a8883890162000141565b945060408701519150808211156200027157600080fd5b50620002808782880162000141565b606087015190935090506001600160a01b0381168114620002a057600080fd5b939692955090935050565b600181811c90821680620002c057607f821691505b60208210811415620002e257634e487b7160e01b600052602260045260246000fd5b50919050565b634e487b7160e01b600052604160045260246000fd5b610c3f806200030e6000396000f3fe6080604052600436106100dd5760003560e01c8063893d20e81161007f578063b69ef8a811610059578063b69ef8a814610236578063b7629a861461024c578063dc0d3dff14610284578063dc79a7fc146102a457600080fd5b8063893d20e8146101a45780638f84aa09146101d6578063b436c2bf146101f657600080fd5b806348005109116100bb578063480051091461015257806351cff8d91461016757806365ac23201461017a5780637284e4161461018f57600080fd5b806306fdde03146100e257806312065fe01461010d578063152583de1461012c575b600080fd5b3480156100ee57600080fd5b506100f76102b9565b6040516101049190610ab2565b60405180910390f35b34801561011957600080fd5b506004545b604051908152602001610104565b34801561013857600080fd5b50610141610347565b604051610104959493929190610ac5565b61016561016036600461095e565b610516565b005b6101656101753660046108ff565b610661565b34801561018657600080fd5b506100f7610778565b34801561019b57600080fd5b506100f7610785565b3480156101b057600080fd5b506000546001600160a01b03165b6040516001600160a01b039091168152602001610104565b3480156101e257600080fd5b506000546101be906001600160a01b031681565b34801561020257600080fd5b506102266102113660046108ff565b60066020526000908152604090205460ff1681565b6040519015158152602001610104565b34801561024257600080fd5b5061011e60045481565b34801561025857600080fd5b5061011e610267366004610921565b805160208183018101805160058252928201919093012091525481565b34801561029057600080fd5b506100f761029f3660046109b5565b610792565b3480156102b057600080fd5b5060075461011e565b600180546102c690610b71565b80601f01602080910402602001604051908101604052809291908181526020018280546102f290610b71565b801561033f5780601f106103145761010080835404028352916020019161033f565b820191906000526020600020905b81548152906001019060200180831161032257829003601f168201915b505050505081565b60608060008060606001600260045461035f60075490565b600384805461036d90610b71565b80601f016020809104026020016040519081016040528092919081815260200182805461039990610b71565b80156103e65780601f106103bb576101008083540402835291602001916103e6565b820191906000526020600020905b8154815290600101906020018083116103c957829003601f168201915b505050505094508380546103f990610b71565b80601f016020809104026020016040519081016040528092919081815260200182805461042590610b71565b80156104725780601f1061044757610100808354040283529160200191610472565b820191906000526020600020905b81548152906001019060200180831161045557829003601f168201915b5050505050935080805461048590610b71565b80601f01602080910402602001604051908101604052809291908181526020018280546104b190610b71565b80156104fe5780601f106104d3576101008083540402835291602001916104fe565b820191906000526020600020905b8154815290600101906020018083116104e157829003601f168201915b50505050509050945094509450945094509091929394565b65e91baec5f5076001600160a01b0382163181111561057c5760405162461bcd60e51b815260206004820152601e60248201527f5468697320697320746f6f206c6974746c6520746f2062652073656e742e000060448201526064015b60405180910390fd5b826004600082825461058e9190610b16565b92505081905550826005856040516105a691906109fa565b908152602001604051809103902060008282546105c39190610b16565b90915550506001600160a01b03821660009081526006602052604090205460ff161515600114156105f35761065b565b600780546001810182556000919091528451610636917fa66cc928b5edb82af9bd49922954155ab7b0942694bea4ce44661d9a8736c688019060208701906107bd565b506001600160a01b0382166000908152600660205260409020805460ff191660011790555b50505050565b6000546001600160a01b038281169116146106c95760405162461bcd60e51b815260206004820152602260248201527f4f6e6c7920546865204f776e65722043616e2057697468647261772046756e64604482015261399760f11b6064820152608401610573565b47600460008282546106db9190610b2e565b90915550506040516001600160a01b038216904780156108fc02916000818181858888f19350505050158015610715573d6000803e3d6000fd5b5060005b6007548110156107745760006005600760008154811061073b5761073b610bdd565b906000526020600020016040516107529190610a16565b908152604051908190036020019020558061076c81610bac565b915050610719565b5050565b600280546102c690610b71565b600380546102c690610b71565b600781815481106107a257600080fd5b9060005260206000200160009150905080546102c690610b71565b8280546107c990610b71565b90600052602060002090601f0160209004810192826107eb5760008555610831565b82601f1061080457805160ff1916838001178555610831565b82800160010185558215610831579182015b82811115610831578251825591602001919060010190610816565b5061083d929150610841565b5090565b5b8082111561083d5760008155600101610842565b80356001600160a01b038116811461086d57600080fd5b919050565b600082601f83011261088357600080fd5b813567ffffffffffffffff8082111561089e5761089e610bf3565b604051601f8301601f19908116603f011681019082821181831017156108c6576108c6610bf3565b816040528381528660208588010111156108df57600080fd5b836020870160208301376000602085830101528094505050505092915050565b60006020828403121561091157600080fd5b61091a82610856565b9392505050565b60006020828403121561093357600080fd5b813567ffffffffffffffff81111561094a57600080fd5b61095684828501610872565b949350505050565b60008060006060848603121561097357600080fd5b833567ffffffffffffffff81111561098a57600080fd5b61099686828701610872565b935050602084013591506109ac60408501610856565b90509250925092565b6000602082840312156109c757600080fd5b5035919050565b600081518084526109e6816020860160208601610b45565b601f01601f19169290920160200192915050565b60008251610a0c818460208701610b45565b9190910192915050565b600080835481600182811c915080831680610a3257607f831692505b6020808410821415610a5257634e487b7160e01b86526022600452602486fd5b818015610a665760018114610a7757610aa4565b60ff19861689528489019650610aa4565b60008a81526020902060005b86811015610a9c5781548b820152908501908301610a83565b505084890196505b509498975050505050505050565b60208152600061091a60208301846109ce565b60a081526000610ad860a08301886109ce565b8281036020840152610aea81886109ce565b90508560408401528460608401528281036080840152610b0a81856109ce565b98975050505050505050565b60008219821115610b2957610b29610bc7565b500190565b600082821015610b4057610b40610bc7565b500390565b60005b83811015610b60578181015183820152602001610b48565b8381111561065b5750506000910152565b600181811c90821680610b8557607f821691505b60208210811415610ba657634e487b7160e01b600052602260045260246000fd5b50919050565b6000600019821415610bc057610bc0610bc7565b5060010190565b634e487b7160e01b600052601160045260246000fd5b634e487b7160e01b600052603260045260246000fd5b634e487b7160e01b600052604160045260246000fdfea2646970667358221220c96beb64aa082d5bfe9e4e0538686f89bd711a281350c30f2adc4b0c4447589964736f6c63430008070033a2646970667358221220f0772d2003dd6522f32878960f72d82aab74dcf7d8898e57ca2a17d40915e2b164736f6c63430008070033",
  "bytecodeSha1": "fcbe2bdf2b93670776da0e24e3f8346d8ab716a3",
  "compiler": {
    "evm_version": "istanbul",
    "optimizer": {
      "enabled": true,
      "runs": 200
    },
    "version": "0.8.7+commit.e28d00a7"
  },
  "contractName": "CrowdFundFactory",
  "language": "Solidity",
  "natspec": {
    "kind": "dev",
    "methods": {},
    "version": 1
  },
  "opcodes": "PUSH1 0x80 PUSH1 0x40 MSTORE PUSH1 0x4 CALLDATASIZE LT PUSH3 0xA9 JUMPI PUSH1 0x0 CALLDATALOAD PUSH1 0xE0 SHR DUP1 PUSH4 0x7A0ADA97 GT PUSH3 0x6C JUMPI DUP1 PUSH4 0x7A0ADA97 EQ PUSH3 0x1C6 JUMPI DUP1 PUSH4 0x948F62A1 EQ PUSH3 0x1EB JUMPI DUP1 PUSH4 0xA379B51F EQ PUSH3 0x21F JUMPI DUP1 PUSH4 0xAAAE6655 EQ PUSH3 0x238 JUMPI DUP1 PUSH4 0xBD61C193 EQ PUSH3 0x25D JUMPI DUP1 PUSH4 0xE9E88DC3 EQ PUSH3 0x282 JUMPI PUSH1 0x0 DUP1 REVERT JUMPDEST DUP1 PUSH4 0x273EF72F EQ PUSH3 0xAE JUMPI DUP1 PUSH4 0x2C86D6A3 EQ PUSH3 0xE6 JUMPI DUP1 PUSH4 0x3CE42962 EQ PUSH3 0x144 JUMPI DUP1 PUSH4 0x66EA5E8F EQ PUSH3 0x169 JUMPI DUP1 PUSH4 0x75A640BE EQ PUSH3 0x18E JUMPI JUMPDEST PUSH1 0x0 DUP1 REVERT JUMPDEST CALLVALUE DUP1 ISZERO PUSH3 0xBB JUMPI PUSH1 0x0 DUP1 REVERT JUMPDEST POP PUSH3 0xD3 PUSH3 0xCD CALLDATASIZE PUSH1 0x4 PUSH3 0x9EE JUMP JUMPDEST PUSH3 0x299 JUMP JUMPDEST PUSH1 0x40 MLOAD SWAP1 DUP2 MSTORE PUSH1 0x20 ADD JUMPDEST PUSH1 0x40 MLOAD DUP1 SWAP2 SUB SWAP1 RETURN JUMPDEST CALLVALUE DUP1 ISZERO PUSH3 0xF3 JUMPI PUSH1 0x0 DUP1 REVERT JUMPDEST POP PUSH3 0x12B PUSH3 0x105 CALLDATASIZE PUSH1 0x4 PUSH3 0x9EE JUMP JUMPDEST DUP1 MLOAD PUSH1 0x20 DUP2 DUP4 ADD DUP2 ADD DUP1 MLOAD PUSH1 0x0 DUP3 MSTORE SWAP3 DUP3 ADD SWAP2 SWAP1 SWAP4 ADD KECCAK256 SWAP2 MSTORE SLOAD PUSH1 0x1 PUSH1 0x1 PUSH1 0xA0 SHL SUB AND DUP2 JUMP JUMPDEST PUSH1 0x40 MLOAD PUSH1 0x1 PUSH1 0x1 PUSH1 0xA0 SHL SUB SWAP1 SWAP2 AND DUP2 MSTORE PUSH1 0x20 ADD PUSH3 0xDD JUMP JUMPDEST CALLVALUE DUP1 ISZERO PUSH3 0x151 JUMPI PUSH1 0x0 DUP1 REVERT JUMPDEST POP PUSH3 0x12B PUSH3 0x163 CALLDATASIZE PUSH1 0x4 PUSH3 0xBCA JUMP JUMPDEST PUSH3 0x325 JUMP JUMPDEST CALLVALUE DUP1 ISZERO PUSH3 0x176 JUMPI PUSH1 0x0 DUP1 REVERT JUMPDEST POP PUSH3 0x12B PUSH3 0x188 CALLDATASIZE PUSH1 0x4 PUSH3 0xC13 JUMP JUMPDEST PUSH3 0x36D JUMP JUMPDEST CALLVALUE DUP1 ISZERO PUSH3 0x19B JUMPI PUSH1 0x0 DUP1 REVERT JUMPDEST POP PUSH3 0x1B3 PUSH3 0x1AD CALLDATASIZE PUSH1 0x4 PUSH3 0x9EE JUMP JUMPDEST PUSH3 0x398 JUMP JUMPDEST PUSH1 0x40 MLOAD PUSH3 0xDD SWAP6 SWAP5 SWAP4 SWAP3 SWAP2 SWAP1 PUSH3 0xD83 JUMP JUMPDEST CALLVALUE DUP1 ISZERO PUSH3 0x1D3 JUMPI PUSH1 0x0 DUP1 REVERT JUMPDEST POP PUSH3 0x1B3 PUSH3 0x1E5 CALLDATASIZE PUSH1 0x4 PUSH3 0x9C3 JUMP JUMPDEST PUSH3 0x4A4 JUMP JUMPDEST CALLVALUE DUP1 ISZERO PUSH3 0x1F8 JUMPI PUSH1 0x0 DUP1 REVERT JUMPDEST POP PUSH3 0x210 PUSH3 0x20A CALLDATASIZE PUSH1 0x4 PUSH3 0x9EE JUMP JUMPDEST PUSH3 0x4EB JUMP JUMPDEST PUSH1 0x40 MLOAD PUSH3 0xDD SWAP2 SWAP1 PUSH3 0xCDB JUMP JUMPDEST PUSH3 0x236 PUSH3 0x230 CALLDATASIZE PUSH1 0x4 PUSH3 0xA27 JUMP JUMPDEST PUSH3 0x5D5 JUMP JUMPDEST STOP JUMPDEST CALLVALUE DUP1 ISZERO PUSH3 0x245 JUMPI PUSH1 0x0 DUP1 REVERT JUMPDEST POP PUSH3 0x236 PUSH3 0x257 CALLDATASIZE PUSH1 0x4 PUSH3 0xA92 JUMP JUMPDEST PUSH3 0x650 JUMP JUMPDEST CALLVALUE DUP1 ISZERO PUSH3 0x26A JUMPI PUSH1 0x0 DUP1 REVERT JUMPDEST POP PUSH3 0x12B PUSH3 0x27C CALLDATASIZE PUSH1 0x4 PUSH3 0x9EE JUMP JUMPDEST PUSH3 0x7D0 JUMP JUMPDEST PUSH3 0x236 PUSH3 0x293 CALLDATASIZE PUSH1 0x4 PUSH3 0x9EE JUMP JUMPDEST PUSH3 0x802 JUMP JUMPDEST PUSH1 0x0 DUP1 PUSH3 0x2A7 DUP4 PUSH3 0x7D0 JUMP JUMPDEST SWAP1 POP DUP1 PUSH1 0x1 PUSH1 0x1 PUSH1 0xA0 SHL SUB AND PUSH4 0xB69EF8A8 PUSH1 0x40 MLOAD DUP2 PUSH4 0xFFFFFFFF AND PUSH1 0xE0 SHL DUP2 MSTORE PUSH1 0x4 ADD PUSH1 0x20 PUSH1 0x40 MLOAD DUP1 DUP4 SUB DUP2 DUP7 DUP1 EXTCODESIZE ISZERO DUP1 ISZERO PUSH3 0x2E3 JUMPI PUSH1 0x0 DUP1 REVERT JUMPDEST POP GAS STATICCALL ISZERO DUP1 ISZERO PUSH3 0x2F8 JUMPI RETURNDATASIZE PUSH1 0x0 DUP1 RETURNDATACOPY RETURNDATASIZE PUSH1 0x0 REVERT JUMPDEST POP POP POP POP PUSH1 0x40 MLOAD RETURNDATASIZE PUSH1 0x1F NOT PUSH1 0x1F DUP3 ADD AND DUP3 ADD DUP1 PUSH1 0x40 MSTORE POP DUP2 ADD SWAP1 PUSH3 0x31E SWAP2 SWAP1 PUSH3 0xC2D JUMP JUMPDEST SWAP4 SWAP3 POP POP POP JUMP JUMPDEST DUP2 MLOAD PUSH1 0x20 DUP2 DUP5 ADD DUP2 ADD DUP1 MLOAD PUSH1 0x1 DUP3 MSTORE SWAP3 DUP3 ADD SWAP2 DUP6 ADD SWAP2 SWAP1 SWAP2 KECCAK256 SWAP2 SWAP1 MSTORE DUP1 SLOAD DUP3 SWAP1 DUP2 LT PUSH3 0x351 JUMPI PUSH1 0x0 DUP1 REVERT JUMPDEST PUSH1 0x0 SWAP2 DUP3 MSTORE PUSH1 0x20 SWAP1 SWAP2 KECCAK256 ADD SLOAD PUSH1 0x1 PUSH1 0x1 PUSH1 0xA0 SHL SUB AND SWAP2 POP DUP3 SWAP1 POP JUMP JUMPDEST PUSH1 0x2 DUP2 DUP2 SLOAD DUP2 LT PUSH3 0x37E JUMPI PUSH1 0x0 DUP1 REVERT JUMPDEST PUSH1 0x0 SWAP2 DUP3 MSTORE PUSH1 0x20 SWAP1 SWAP2 KECCAK256 ADD SLOAD PUSH1 0x1 PUSH1 0x1 PUSH1 0xA0 SHL SUB AND SWAP1 POP DUP2 JUMP JUMPDEST PUSH1 0x60 DUP1 PUSH1 0x0 DUP1 PUSH1 0x60 PUSH3 0x3AB DUP7 PUSH3 0x871 JUMP JUMPDEST PUSH3 0x409 JUMPI PUSH1 0x40 MLOAD PUSH3 0x461BCD PUSH1 0xE5 SHL DUP2 MSTORE PUSH1 0x20 PUSH1 0x4 DUP3 ADD MSTORE PUSH1 0x24 DUP1 DUP3 ADD MSTORE PUSH32 0x5468657265204973204E6F2043726F776446756E642057697468205468617420 PUSH1 0x44 DUP3 ADD MSTORE PUSH4 0x4E616D65 PUSH1 0xE0 SHL PUSH1 0x64 DUP3 ADD MSTORE PUSH1 0x84 ADD JUMPDEST PUSH1 0x40 MLOAD DUP1 SWAP2 SUB SWAP1 REVERT JUMPDEST PUSH1 0x0 PUSH3 0x416 DUP8 PUSH3 0x7D0 JUMP JUMPDEST SWAP1 POP DUP1 PUSH1 0x1 PUSH1 0x1 PUSH1 0xA0 SHL SUB AND PUSH4 0x152583DE PUSH1 0x40 MLOAD DUP2 PUSH4 0xFFFFFFFF AND PUSH1 0xE0 SHL DUP2 MSTORE PUSH1 0x4 ADD PUSH1 0x0 PUSH1 0x40 MLOAD DUP1 DUP4 SUB DUP2 DUP7 DUP1 EXTCODESIZE ISZERO DUP1 ISZERO PUSH3 0x452 JUMPI PUSH1 0x0 DUP1 REVERT JUMPDEST POP GAS STATICCALL ISZERO DUP1 ISZERO PUSH3 0x467 JUMPI RETURNDATASIZE PUSH1 0x0 DUP1 RETURNDATACOPY RETURNDATASIZE PUSH1 0x0 REVERT JUMPDEST POP POP POP POP PUSH1 0x40 MLOAD RETURNDATASIZE PUSH1 0x0 DUP3 RETURNDATACOPY PUSH1 0x1F RETURNDATASIZE SWAP1 DUP2 ADD PUSH1 0x1F NOT AND DUP3 ADD PUSH1 0x40 MSTORE PUSH3 0x491 SWAP2 SWAP1 DUP2 ADD SWAP1 PUSH3 0xB24 JUMP JUMPDEST SWAP4 SWAP12 SWAP3 SWAP11 POP SWAP1 SWAP9 POP SWAP7 POP SWAP1 SWAP5 POP SWAP3 POP POP POP JUMP JUMPDEST PUSH1 0x60 DUP1 PUSH1 0x0 DUP1 PUSH1 0x60 PUSH1 0x0 DUP7 SWAP1 POP DUP1 PUSH1 0x1 PUSH1 0x1 PUSH1 0xA0 SHL SUB AND PUSH4 0x152583DE PUSH1 0x40 MLOAD DUP2 PUSH4 0xFFFFFFFF AND PUSH1 0xE0 SHL DUP2 MSTORE PUSH1 0x4 ADD PUSH1 0x0 PUSH1 0x40 MLOAD DUP1 DUP4 SUB DUP2 DUP7 DUP1 EXTCODESIZE ISZERO DUP1 ISZERO PUSH3 0x452 JUMPI PUSH1 0x0 DUP1 REVERT JUMPDEST PUSH1 0x60 PUSH3 0x4F8 DUP3 PUSH3 0x8B2 JUMP JUMPDEST PUSH3 0x556 JUMPI PUSH1 0x40 MLOAD PUSH3 0x461BCD PUSH1 0xE5 SHL DUP2 MSTORE PUSH1 0x20 PUSH1 0x4 DUP3 ADD MSTORE PUSH1 0x27 PUSH1 0x24 DUP3 ADD MSTORE PUSH32 0x54686973205573657220446F6573204E6F74204861766520416E792043726F77 PUSH1 0x44 DUP3 ADD MSTORE PUSH7 0x3210233AB73217 PUSH1 0xC9 SHL PUSH1 0x64 DUP3 ADD MSTORE PUSH1 0x84 ADD PUSH3 0x400 JUMP JUMPDEST PUSH1 0x0 PUSH1 0x1 DUP4 PUSH1 0x40 MLOAD PUSH3 0x56A SWAP2 SWAP1 PUSH3 0xCBD JUMP JUMPDEST SWAP1 DUP2 MSTORE PUSH1 0x40 DUP1 MLOAD SWAP2 DUP3 SWAP1 SUB PUSH1 0x20 SWAP1 DUP2 ADD DUP4 KECCAK256 DUP1 SLOAD DUP1 DUP4 MUL DUP6 ADD DUP4 ADD SWAP1 SWAP4 MSTORE DUP3 DUP5 MSTORE SWAP2 SWAP1 DUP4 ADD DUP3 DUP3 DUP1 ISZERO PUSH3 0x5C8 JUMPI PUSH1 0x20 MUL DUP3 ADD SWAP2 SWAP1 PUSH1 0x0 MSTORE PUSH1 0x20 PUSH1 0x0 KECCAK256 SWAP1 JUMPDEST DUP2 SLOAD PUSH1 0x1 PUSH1 0x1 PUSH1 0xA0 SHL SUB AND DUP2 MSTORE PUSH1 0x1 SWAP1 SWAP2 ADD SWAP1 PUSH1 0x20 ADD DUP1 DUP4 GT PUSH3 0x5A9 JUMPI JUMPDEST POP SWAP4 SWAP8 SWAP7 POP POP POP POP POP POP POP JUMP JUMPDEST PUSH1 0x0 PUSH3 0x5E2 DUP3 PUSH3 0x7D0 JUMP JUMPDEST SWAP1 POP DUP1 PUSH1 0x1 PUSH1 0x1 PUSH1 0xA0 SHL SUB AND PUSH4 0x48005109 CALLVALUE DUP6 CALLVALUE CALLER PUSH1 0x40 MLOAD DUP6 PUSH4 0xFFFFFFFF AND PUSH1 0xE0 SHL DUP2 MSTORE PUSH1 0x4 ADD PUSH3 0x617 SWAP4 SWAP3 SWAP2 SWAP1 PUSH3 0xDDA JUMP JUMPDEST PUSH1 0x0 PUSH1 0x40 MLOAD DUP1 DUP4 SUB DUP2 DUP6 DUP9 DUP1 EXTCODESIZE ISZERO DUP1 ISZERO PUSH3 0x631 JUMPI PUSH1 0x0 DUP1 REVERT JUMPDEST POP GAS CALL ISZERO DUP1 ISZERO PUSH3 0x646 JUMPI RETURNDATASIZE PUSH1 0x0 DUP1 RETURNDATACOPY RETURNDATASIZE PUSH1 0x0 REVERT JUMPDEST POP POP POP POP POP POP POP POP JUMP JUMPDEST PUSH3 0x65B DUP4 PUSH3 0x871 JUMP JUMPDEST ISZERO PUSH3 0x6BE JUMPI PUSH1 0x40 MLOAD PUSH3 0x461BCD PUSH1 0xE5 SHL DUP2 MSTORE PUSH1 0x20 PUSH1 0x4 DUP3 ADD MSTORE PUSH1 0x2B PUSH1 0x24 DUP3 ADD MSTORE PUSH32 0x412043726F77642046756E6420576974682054686973204E616D6520416C7265 PUSH1 0x44 DUP3 ADD MSTORE PUSH11 0x30B23C9022BC34B9BA3997 PUSH1 0xA9 SHL PUSH1 0x64 DUP3 ADD MSTORE PUSH1 0x84 ADD PUSH3 0x400 JUMP JUMPDEST PUSH1 0x0 DUP4 DUP4 DUP4 CALLER PUSH1 0x40 MLOAD PUSH3 0x6D2 SWAP1 PUSH3 0x905 JUMP JUMPDEST PUSH3 0x6E1 SWAP5 SWAP4 SWAP3 SWAP2 SWAP1 PUSH3 0xD2A JUMP JUMPDEST PUSH1 0x40 MLOAD DUP1 SWAP2 SUB SWAP1 PUSH1 0x0 CREATE DUP1 ISZERO DUP1 ISZERO PUSH3 0x6FE JUMPI RETURNDATASIZE PUSH1 0x0 DUP1 RETURNDATACOPY RETURNDATASIZE PUSH1 0x0 REVERT JUMPDEST POP SWAP1 POP PUSH1 0x1 DUP3 PUSH1 0x40 MLOAD PUSH3 0x713 SWAP2 SWAP1 PUSH3 0xCBD JUMP JUMPDEST SWAP1 DUP2 MSTORE PUSH1 0x40 MLOAD PUSH1 0x20 SWAP2 DUP2 SWAP1 SUB DUP3 ADD DUP2 KECCAK256 DUP1 SLOAD PUSH1 0x1 DUP2 ADD DUP3 SSTORE PUSH1 0x0 SWAP2 DUP3 MSTORE SWAP3 DUP2 KECCAK256 SWAP1 SWAP3 ADD DUP1 SLOAD PUSH1 0x1 PUSH1 0x1 PUSH1 0xA0 SHL SUB NOT AND PUSH1 0x1 PUSH1 0x1 PUSH1 0xA0 SHL SUB DUP6 AND OR SWAP1 SSTORE DUP3 SWAP2 SWAP1 PUSH3 0x75F SWAP1 DUP8 SWAP1 PUSH3 0xCBD JUMP JUMPDEST SWAP1 DUP2 MSTORE PUSH1 0x40 MLOAD SWAP1 DUP2 SWAP1 SUB PUSH1 0x20 ADD SWAP1 KECCAK256 DUP1 SLOAD PUSH1 0x1 PUSH1 0x1 PUSH1 0xA0 SHL SUB SWAP3 DUP4 AND PUSH1 0x1 PUSH1 0x1 PUSH1 0xA0 SHL SUB NOT SWAP2 DUP3 AND OR SWAP1 SWAP2 SSTORE PUSH1 0x2 DUP1 SLOAD PUSH1 0x1 DUP2 ADD DUP3 SSTORE PUSH1 0x0 SWAP2 SWAP1 SWAP2 MSTORE PUSH32 0x405787FA12A823E0F2B7631CC41B3BA8828B3321CA811111FA75CD3AA3BB5ACE ADD DUP1 SLOAD SWAP4 SWAP1 SWAP3 AND SWAP3 AND SWAP2 SWAP1 SWAP2 OR SWAP1 SSTORE POP POP POP JUMP JUMPDEST PUSH1 0x0 DUP1 DUP3 PUSH1 0x40 MLOAD PUSH3 0x7E3 SWAP2 SWAP1 PUSH3 0xCBD JUMP JUMPDEST SWAP1 DUP2 MSTORE PUSH1 0x40 MLOAD SWAP1 DUP2 SWAP1 SUB PUSH1 0x20 ADD SWAP1 KECCAK256 SLOAD PUSH1 0x1 PUSH1 0x1 PUSH1 0xA0 SHL SUB AND SWAP3 SWAP2 POP POP JUMP JUMPDEST PUSH1 0x0 PUSH3 0x80F DUP3 PUSH3 0x7D0 JUMP JUMPDEST PUSH1 0x40 MLOAD PUSH4 0x51CFF8D9 PUSH1 0xE0 SHL DUP2 MSTORE CALLER PUSH1 0x4 DUP3 ADD MSTORE SWAP1 SWAP2 POP PUSH1 0x1 PUSH1 0x1 PUSH1 0xA0 SHL SUB DUP3 AND SWAP1 PUSH4 0x51CFF8D9 SWAP1 PUSH1 0x24 ADD PUSH1 0x0 PUSH1 0x40 MLOAD DUP1 DUP4 SUB DUP2 PUSH1 0x0 DUP8 DUP1 EXTCODESIZE ISZERO DUP1 ISZERO PUSH3 0x854 JUMPI PUSH1 0x0 DUP1 REVERT JUMPDEST POP GAS CALL ISZERO DUP1 ISZERO PUSH3 0x869 JUMPI RETURNDATASIZE PUSH1 0x0 DUP1 RETURNDATACOPY RETURNDATASIZE PUSH1 0x0 REVERT JUMPDEST POP POP POP POP POP POP JUMP JUMPDEST PUSH1 0x0 DUP1 DUP3 PUSH1 0x40 MLOAD PUSH3 0x884 SWAP2 SWAP1 PUSH3 0xCBD JUMP JUMPDEST SWAP1 DUP2 MSTORE PUSH1 0x40 MLOAD SWAP1 DUP2 SWAP1 SUB PUSH1 0x20 ADD SWAP1 KECCAK256 SLOAD PUSH1 0x1 PUSH1 0x1 PUSH1 0xA0 SHL SUB AND PUSH3 0x8AA JUMPI POP PUSH1 0x0 SWAP2 SWAP1 POP JUMP JUMPDEST POP PUSH1 0x1 SWAP2 SWAP1 POP JUMP JUMPDEST PUSH1 0x0 DUP1 PUSH1 0x1 DUP4 PUSH1 0x40 MLOAD PUSH3 0x8C7 SWAP2 SWAP1 PUSH3 0xCBD JUMP JUMPDEST SWAP1 DUP2 MSTORE PUSH1 0x20 ADD PUSH1 0x40 MLOAD DUP1 SWAP2 SUB SWAP1 KECCAK256 PUSH1 0x40 MLOAD PUSH1 0x20 ADD PUSH3 0x8E7 SWAP2 SWAP1 PUSH3 0xC75 JUMP JUMPDEST PUSH1 0x40 MLOAD PUSH1 0x20 DUP2 DUP4 SUB SUB DUP2 MSTORE SWAP1 PUSH1 0x40 MSTORE MLOAD GT PUSH3 0x8AA JUMPI PUSH1 0x0 SWAP3 SWAP2 POP POP JUMP JUMPDEST PUSH2 0xF4D DUP1 PUSH3 0xEB8 DUP4 CODECOPY ADD SWAP1 JUMP JUMPDEST PUSH1 0x0 DUP3 PUSH1 0x1F DUP4 ADD SLT PUSH3 0x925 JUMPI PUSH1 0x0 DUP1 REVERT JUMPDEST DUP2 CALLDATALOAD PUSH3 0x93C PUSH3 0x936 DUP3 PUSH3 0xE43 JUMP JUMPDEST PUSH3 0xE0F JUMP JUMPDEST DUP2 DUP2 MSTORE DUP5 PUSH1 0x20 DUP4 DUP7 ADD ADD GT ISZERO PUSH3 0x952 JUMPI PUSH1 0x0 DUP1 REVERT JUMPDEST DUP2 PUSH1 0x20 DUP6 ADD PUSH1 0x20 DUP4 ADD CALLDATACOPY PUSH1 0x0 SWAP2 DUP2 ADD PUSH1 0x20 ADD SWAP2 SWAP1 SWAP2 MSTORE SWAP4 SWAP3 POP POP POP JUMP JUMPDEST PUSH1 0x0 DUP3 PUSH1 0x1F DUP4 ADD SLT PUSH3 0x981 JUMPI PUSH1 0x0 DUP1 REVERT JUMPDEST DUP2 MLOAD PUSH3 0x992 PUSH3 0x936 DUP3 PUSH3 0xE43 JUMP JUMPDEST DUP2 DUP2 MSTORE DUP5 PUSH1 0x20 DUP4 DUP7 ADD ADD GT ISZERO PUSH3 0x9A8 JUMPI PUSH1 0x0 DUP1 REVERT JUMPDEST PUSH3 0x9BB DUP3 PUSH1 0x20 DUP4 ADD PUSH1 0x20 DUP8 ADD PUSH3 0xE6E JUMP JUMPDEST SWAP5 SWAP4 POP POP POP POP JUMP JUMPDEST PUSH1 0x0 PUSH1 0x20 DUP3 DUP5 SUB SLT ISZERO PUSH3 0x9D6 JUMPI PUSH1 0x0 DUP1 REVERT JUMPDEST DUP2 CALLDATALOAD PUSH1 0x1 PUSH1 0x1 PUSH1 0xA0 SHL SUB DUP2 AND DUP2 EQ PUSH3 0x31E JUMPI PUSH1 0x0 DUP1 REVERT JUMPDEST PUSH1 0x0 PUSH1 0x20 DUP3 DUP5 SUB SLT ISZERO PUSH3 0xA01 JUMPI PUSH1 0x0 DUP1 REVERT JUMPDEST DUP2 CALLDATALOAD PUSH8 0xFFFFFFFFFFFFFFFF DUP2 GT ISZERO PUSH3 0xA19 JUMPI PUSH1 0x0 DUP1 REVERT JUMPDEST PUSH3 0x9BB DUP5 DUP3 DUP6 ADD PUSH3 0x913 JUMP JUMPDEST PUSH1 0x0 DUP1 PUSH1 0x40 DUP4 DUP6 SUB SLT ISZERO PUSH3 0xA3B JUMPI PUSH1 0x0 DUP1 REVERT JUMPDEST DUP3 CALLDATALOAD PUSH8 0xFFFFFFFFFFFFFFFF DUP1 DUP3 GT ISZERO PUSH3 0xA54 JUMPI PUSH1 0x0 DUP1 REVERT JUMPDEST PUSH3 0xA62 DUP7 DUP4 DUP8 ADD PUSH3 0x913 JUMP JUMPDEST SWAP4 POP PUSH1 0x20 DUP6 ADD CALLDATALOAD SWAP2 POP DUP1 DUP3 GT ISZERO PUSH3 0xA79 JUMPI PUSH1 0x0 DUP1 REVERT JUMPDEST POP PUSH3 0xA88 DUP6 DUP3 DUP7 ADD PUSH3 0x913 JUMP JUMPDEST SWAP2 POP POP SWAP3 POP SWAP3 SWAP1 POP JUMP JUMPDEST PUSH1 0x0 DUP1 PUSH1 0x0 PUSH1 0x60 DUP5 DUP7 SUB SLT ISZERO PUSH3 0xAA8 JUMPI PUSH1 0x0 DUP1 REVERT JUMPDEST DUP4 CALLDATALOAD PUSH8 0xFFFFFFFFFFFFFFFF DUP1 DUP3 GT ISZERO PUSH3 0xAC1 JUMPI PUSH1 0x0 DUP1 REVERT JUMPDEST PUSH3 0xACF DUP8 DUP4 DUP9 ADD PUSH3 0x913 JUMP JUMPDEST SWAP5 POP PUSH1 0x20 DUP7 ADD CALLDATALOAD SWAP2 POP DUP1 DUP3 GT ISZERO PUSH3 0xAE6 JUMPI PUSH1 0x0 DUP1 REVERT JUMPDEST PUSH3 0xAF4 DUP8 DUP4 DUP9 ADD PUSH3 0x913 JUMP JUMPDEST SWAP4 POP PUSH1 0x40 DUP7 ADD CALLDATALOAD SWAP2 POP DUP1 DUP3 GT ISZERO PUSH3 0xB0B JUMPI PUSH1 0x0 DUP1 REVERT JUMPDEST POP PUSH3 0xB1A DUP7 DUP3 DUP8 ADD PUSH3 0x913 JUMP JUMPDEST SWAP2 POP POP SWAP3 POP SWAP3 POP SWAP3 JUMP JUMPDEST PUSH1 0x0 DUP1 PUSH1 0x0 DUP1 PUSH1 0x0 PUSH1 0xA0 DUP7 DUP9 SUB SLT ISZERO PUSH3 0xB3D JUMPI PUSH1 0x0 DUP1 REVERT JUMPDEST DUP6 MLOAD PUSH8 0xFFFFFFFFFFFFFFFF DUP1 DUP3 GT ISZERO PUSH3 0xB56 JUMPI PUSH1 0x0 DUP1 REVERT JUMPDEST PUSH3 0xB64 DUP10 DUP4 DUP11 ADD PUSH3 0x96F JUMP JUMPDEST SWAP7 POP PUSH1 0x20 DUP9 ADD MLOAD SWAP2 POP DUP1 DUP3 GT ISZERO PUSH3 0xB7B JUMPI PUSH1 0x0 DUP1 REVERT JUMPDEST PUSH3 0xB89 DUP10 DUP4 DUP11 ADD PUSH3 0x96F JUMP JUMPDEST SWAP6 POP PUSH1 0x40 DUP9 ADD MLOAD SWAP5 POP PUSH1 0x60 DUP9 ADD MLOAD SWAP4 POP PUSH1 0x80 DUP9 ADD MLOAD SWAP2 POP DUP1 DUP3 GT ISZERO PUSH3 0xBAE JUMPI PUSH1 0x0 DUP1 REVERT JUMPDEST POP PUSH3 0xBBD DUP9 DUP3 DUP10 ADD PUSH3 0x96F JUMP JUMPDEST SWAP2 POP POP SWAP3 SWAP6 POP SWAP3 SWAP6 SWAP1 SWAP4 POP JUMP JUMPDEST PUSH1 0x0 DUP1 PUSH1 0x40 DUP4 DUP6 SUB SLT ISZERO PUSH3 0xBDE JUMPI PUSH1 0x0 DUP1 REVERT JUMPDEST DUP3 CALLDATALOAD PUSH8 0xFFFFFFFFFFFFFFFF DUP2 GT ISZERO PUSH3 0xBF6 JUMPI PUSH1 0x0 DUP1 REVERT JUMPDEST PUSH3 0xC04 DUP6 DUP3 DUP7 ADD PUSH3 0x913 JUMP JUMPDEST SWAP6 PUSH1 0x20 SWAP5 SWAP1 SWAP5 ADD CALLDATALOAD SWAP5 POP POP POP POP JUMP JUMPDEST PUSH1 0x0 PUSH1 0x20 DUP3 DUP5 SUB SLT ISZERO PUSH3 0xC26 JUMPI PUSH1 0x0 DUP1 REVERT JUMPDEST POP CALLDATALOAD SWAP2 SWAP1 POP JUMP JUMPDEST PUSH1 0x0 PUSH1 0x20 DUP3 DUP5 SUB SLT ISZERO PUSH3 0xC40 JUMPI PUSH1 0x0 DUP1 REVERT JUMPDEST POP MLOAD SWAP2 SWAP1 POP JUMP JUMPDEST PUSH1 0x0 DUP2 MLOAD DUP1 DUP5 MSTORE PUSH3 0xC61 DUP2 PUSH1 0x20 DUP7 ADD PUSH1 0x20 DUP7 ADD PUSH3 0xE6E JUMP JUMPDEST PUSH1 0x1F ADD PUSH1 0x1F NOT AND SWAP3 SWAP1 SWAP3 ADD PUSH1 0x20 ADD SWAP3 SWAP2 POP POP JUMP JUMPDEST PUSH1 0x0 DUP2 DUP4 SLOAD DUP4 SWAP2 POP DUP5 PUSH1 0x0 MSTORE PUSH1 0x20 DUP1 PUSH1 0x0 KECCAK256 PUSH1 0x0 JUMPDEST DUP4 DUP2 LT ISZERO PUSH3 0xCB1 JUMPI DUP2 SLOAD PUSH1 0x1 PUSH1 0x1 PUSH1 0xA0 SHL SUB AND DUP6 MSTORE SWAP4 DUP3 ADD SWAP4 PUSH1 0x1 SWAP2 DUP3 ADD SWAP2 ADD PUSH3 0xC8A JUMP JUMPDEST POP SWAP3 SWAP7 SWAP6 POP POP POP POP POP POP JUMP JUMPDEST PUSH1 0x0 DUP3 MLOAD PUSH3 0xCD1 DUP2 DUP5 PUSH1 0x20 DUP8 ADD PUSH3 0xE6E JUMP JUMPDEST SWAP2 SWAP1 SWAP2 ADD SWAP3 SWAP2 POP POP JUMP JUMPDEST PUSH1 0x20 DUP1 DUP3 MSTORE DUP3 MLOAD DUP3 DUP3 ADD DUP2 SWAP1 MSTORE PUSH1 0x0 SWAP2 SWAP1 DUP5 DUP3 ADD SWAP1 PUSH1 0x40 DUP6 ADD SWAP1 DUP5 JUMPDEST DUP2 DUP2 LT ISZERO PUSH3 0xD1E JUMPI DUP4 MLOAD PUSH1 0x1 PUSH1 0x1 PUSH1 0xA0 SHL SUB AND DUP4 MSTORE SWAP3 DUP5 ADD SWAP3 SWAP2 DUP5 ADD SWAP2 PUSH1 0x1 ADD PUSH3 0xCF7 JUMP JUMPDEST POP SWAP1 SWAP7 SWAP6 POP POP POP POP POP POP JUMP JUMPDEST PUSH1 0x80 DUP2 MSTORE PUSH1 0x0 PUSH3 0xD3F PUSH1 0x80 DUP4 ADD DUP8 PUSH3 0xC47 JUMP JUMPDEST DUP3 DUP2 SUB PUSH1 0x20 DUP5 ADD MSTORE PUSH3 0xD53 DUP2 DUP8 PUSH3 0xC47 JUMP JUMPDEST SWAP1 POP DUP3 DUP2 SUB PUSH1 0x40 DUP5 ADD MSTORE PUSH3 0xD69 DUP2 DUP7 PUSH3 0xC47 JUMP JUMPDEST SWAP2 POP POP PUSH1 0x1 DUP1 PUSH1 0xA0 SHL SUB DUP4 AND PUSH1 0x60 DUP4 ADD MSTORE SWAP6 SWAP5 POP POP POP POP POP JUMP JUMPDEST PUSH1 0xA0 DUP2 MSTORE PUSH1 0x0 PUSH3 0xD98 PUSH1 0xA0 DUP4 ADD DUP9 PUSH3 0xC47 JUMP JUMPDEST DUP3 DUP2 SUB PUSH1 0x20 DUP5 ADD MSTORE PUSH3 0xDAC DUP2 DUP9 PUSH3 0xC47 JUMP JUMPDEST SWAP1 POP DUP6 PUSH1 0x40 DUP5 ADD MSTORE DUP5 PUSH1 0x60 DUP5 ADD MSTORE DUP3 DUP2 SUB PUSH1 0x80 DUP5 ADD MSTORE PUSH3 0xDCE DUP2 DUP6 PUSH3 0xC47 JUMP JUMPDEST SWAP9 SWAP8 POP POP POP POP POP POP POP POP JUMP JUMPDEST PUSH1 0x60 DUP2 MSTORE PUSH1 0x0 PUSH3 0xDEF PUSH1 0x60 DUP4 ADD DUP7 PUSH3 0xC47 JUMP JUMPDEST PUSH1 0x20 DUP4 ADD SWAP5 SWAP1 SWAP5 MSTORE POP PUSH1 0x1 PUSH1 0x1 PUSH1 0xA0 SHL SUB SWAP2 SWAP1 SWAP2 AND PUSH1 0x40 SWAP1 SWAP2 ADD MSTORE SWAP2 SWAP1 POP JUMP JUMPDEST PUSH1 0x40 MLOAD PUSH1 0x1F DUP3 ADD PUSH1 0x1F NOT AND DUP2 ADD PUSH8 0xFFFFFFFFFFFFFFFF DUP2 GT DUP3 DUP3 LT OR ISZERO PUSH3 0xE3B JUMPI PUSH3 0xE3B PUSH3 0xEA1 JUMP JUMPDEST PUSH1 0x40 MSTORE SWAP2 SWAP1 POP JUMP JUMPDEST PUSH1 0x0 PUSH8 0xFFFFFFFFFFFFFFFF DUP3 GT ISZERO PUSH3 0xE60 JUMPI PUSH3 0xE60 PUSH3 0xEA1 JUMP JUMPDEST POP PUSH1 0x1F ADD PUSH1 0x1F NOT AND PUSH1 0x20 ADD SWAP1 JUMP JUMPDEST PUSH1 0x0 JUMPDEST DUP4 DUP2 LT ISZERO PUSH3 0xE8B JUMPI DUP2 DUP2 ADD MLOAD DUP4 DUP3 ADD MSTORE PUSH1 0x20 ADD PUSH3 0xE71 JUMP JUMPDEST DUP4 DUP2 GT ISZERO PUSH3 0xE9B JUMPI PUSH1 0x0 DUP5 DUP5 ADD MSTORE JUMPDEST POP POP POP POP JUMP JUMPDEST PUSH4 0x4E487B71 PUSH1 0xE0 SHL PUSH1 0x0 MSTORE PUSH1 0x41 PUSH1 0x4 MSTORE PUSH1 0x24 PUSH1 0x0 REVERT INVALID PUSH1 0x80 PUSH1 0x40 MSTORE CALLVALUE DUP1 ISZERO PUSH3 0x11 JUMPI PUSH1 0x0 DUP1 REVERT JUMPDEST POP PUSH1 0x40 MLOAD PUSH3 0xF4D CODESIZE SUB DUP1 PUSH3 0xF4D DUP4 CODECOPY DUP2 ADD PUSH1 0x40 DUP2 SWAP1 MSTORE PUSH3 0x34 SWAP2 PUSH3 0x1F8 JUMP JUMPDEST PUSH1 0x0 DUP1 SLOAD PUSH1 0x1 PUSH1 0x1 PUSH1 0xA0 SHL SUB NOT AND PUSH1 0x1 PUSH1 0x1 PUSH1 0xA0 SHL SUB DUP4 AND OR SWAP1 SSTORE DUP4 MLOAD PUSH3 0x64 SWAP1 PUSH1 0x1 SWAP1 PUSH1 0x20 DUP8 ADD SWAP1 PUSH3 0x9B JUMP JUMPDEST POP DUP3 MLOAD PUSH3 0x7A SWAP1 PUSH1 0x3 SWAP1 PUSH1 0x20 DUP7 ADD SWAP1 PUSH3 0x9B JUMP JUMPDEST POP DUP2 MLOAD PUSH3 0x90 SWAP1 PUSH1 0x2 SWAP1 PUSH1 0x20 DUP6 ADD SWAP1 PUSH3 0x9B JUMP JUMPDEST POP POP POP POP POP PUSH3 0x2FE JUMP JUMPDEST DUP3 DUP1 SLOAD PUSH3 0xA9 SWAP1 PUSH3 0x2AB JUMP JUMPDEST SWAP1 PUSH1 0x0 MSTORE PUSH1 0x20 PUSH1 0x0 KECCAK256 SWAP1 PUSH1 0x1F ADD PUSH1 0x20 SWAP1 DIV DUP2 ADD SWAP3 DUP3 PUSH3 0xCD JUMPI PUSH1 0x0 DUP6 SSTORE PUSH3 0x118 JUMP JUMPDEST DUP3 PUSH1 0x1F LT PUSH3 0xE8 JUMPI DUP1 MLOAD PUSH1 0xFF NOT AND DUP4 DUP1 ADD OR DUP6 SSTORE PUSH3 0x118 JUMP JUMPDEST DUP3 DUP1 ADD PUSH1 0x1 ADD DUP6 SSTORE DUP3 ISZERO PUSH3 0x118 JUMPI SWAP2 DUP3 ADD JUMPDEST DUP3 DUP2 GT ISZERO PUSH3 0x118 JUMPI DUP3 MLOAD DUP3 SSTORE SWAP2 PUSH1 0x20 ADD SWAP2 SWAP1 PUSH1 0x1 ADD SWAP1 PUSH3 0xFB JUMP JUMPDEST POP PUSH3 0x126 SWAP3 SWAP2 POP PUSH3 0x12A JUMP JUMPDEST POP SWAP1 JUMP JUMPDEST JUMPDEST DUP1 DUP3 GT ISZERO PUSH3 0x126 JUMPI PUSH1 0x0 DUP2 SSTORE PUSH1 0x1 ADD PUSH3 0x12B JUMP JUMPDEST PUSH1 0x0 DUP3 PUSH1 0x1F DUP4 ADD SLT PUSH3 0x153 JUMPI PUSH1 0x0 DUP1 REVERT JUMPDEST DUP2 MLOAD PUSH1 0x1 PUSH1 0x1 PUSH1 0x40 SHL SUB DUP1 DUP3 GT ISZERO PUSH3 0x170 JUMPI PUSH3 0x170 PUSH3 0x2E8 JUMP JUMPDEST PUSH1 0x40 MLOAD PUSH1 0x1F DUP4 ADD PUSH1 0x1F NOT SWAP1 DUP2 AND PUSH1 0x3F ADD AND DUP2 ADD SWAP1 DUP3 DUP3 GT DUP2 DUP4 LT OR ISZERO PUSH3 0x19B JUMPI PUSH3 0x19B PUSH3 0x2E8 JUMP JUMPDEST DUP2 PUSH1 0x40 MSTORE DUP4 DUP2 MSTORE PUSH1 0x20 SWAP3 POP DUP7 DUP4 DUP6 DUP9 ADD ADD GT ISZERO PUSH3 0x1B8 JUMPI PUSH1 0x0 DUP1 REVERT JUMPDEST PUSH1 0x0 SWAP2 POP JUMPDEST DUP4 DUP3 LT ISZERO PUSH3 0x1DC JUMPI DUP6 DUP3 ADD DUP4 ADD MLOAD DUP2 DUP4 ADD DUP5 ADD MSTORE SWAP1 DUP3 ADD SWAP1 PUSH3 0x1BD JUMP JUMPDEST DUP4 DUP3 GT ISZERO PUSH3 0x1EE JUMPI PUSH1 0x0 DUP4 DUP6 DUP4 ADD ADD MSTORE JUMPDEST SWAP7 SWAP6 POP POP POP POP POP POP JUMP JUMPDEST PUSH1 0x0 DUP1 PUSH1 0x0 DUP1 PUSH1 0x80 DUP6 DUP8 SUB SLT ISZERO PUSH3 0x20F JUMPI PUSH1 0x0 DUP1 REVERT JUMPDEST DUP5 MLOAD PUSH1 0x1 PUSH1 0x1 PUSH1 0x40 SHL SUB DUP1 DUP3 GT ISZERO PUSH3 0x227 JUMPI PUSH1 0x0 DUP1 REVERT JUMPDEST PUSH3 0x235 DUP9 DUP4 DUP10 ADD PUSH3 0x141 JUMP JUMPDEST SWAP6 POP PUSH1 0x20 DUP8 ADD MLOAD SWAP2 POP DUP1 DUP3 GT ISZERO PUSH3 0x24C JUMPI PUSH1 0x0 DUP1 REVERT JUMPDEST PUSH3 0x25A DUP9 DUP4 DUP10 ADD PUSH3 0x141 JUMP JUMPDEST SWAP5 POP PUSH1 0x40 DUP8 ADD MLOAD SWAP2 POP DUP1 DUP3 GT ISZERO PUSH3 0x271 JUMPI PUSH1 0x0 DUP1 REVERT JUMPDEST POP PUSH3 0x280 DUP8 DUP3 DUP9 ADD PUSH3 0x141 JUMP JUMPDEST PUSH1 0x60 DUP8 ADD MLOAD SWAP1 SWAP4 POP SWAP1 POP PUSH1 0x1 PUSH1 0x1 PUSH1 0xA0 SHL SUB DUP2 AND DUP2 EQ PUSH3 0x2A0 JUMPI PUSH1 0x0 DUP1 REVERT JUMPDEST SWAP4 SWAP7 SWAP3 SWAP6 POP SWAP1 SWAP4 POP POP JUMP JUMPDEST PUSH1 0x1 DUP2 DUP2 SHR SWAP1 DUP3 AND DUP1 PUSH3 0x2C0 JUMPI PUSH1 0x7F DUP3 AND SWAP2 POP JUMPDEST PUSH1 0x20 DUP3 LT DUP2 EQ ISZERO PUSH3 0x2E2 JUMPI PUSH4 0x4E487B71 PUSH1 0xE0 SHL PUSH1 0x0 MSTORE PUSH1 0x22 PUSH1 0x4 MSTORE PUSH1 0x24 PUSH1 0x0 REVERT JUMPDEST POP SWAP2 SWAP1 POP JUMP JUMPDEST PUSH4 0x4E487B71 PUSH1 0xE0 SHL PUSH1 0x0 MSTORE PUSH1 0x41 PUSH1 0x4 MSTORE PUSH1 0x24 PUSH1 0x0 REVERT JUMPDEST PUSH2 0xC3F DUP1 PUSH3 0x30E PUSH1 0x0 CODECOPY PUSH1 0x0 RETURN INVALID PUSH1 0x80 PUSH1 0x40 MSTORE PUSH1 0x4 CALLDATASIZE LT PUSH2 0xDD JUMPI PUSH1 0x0 CALLDATALOAD PUSH1 0xE0 SHR DUP1 PUSH4 0x893D20E8 GT PUSH2 0x7F JUMPI DUP1 PUSH4 0xB69EF8A8 GT PUSH2 0x59 JUMPI DUP1 PUSH4 0xB69EF8A8 EQ PUSH2 0x236 JUMPI DUP1 PUSH4 0xB7629A86 EQ PUSH2 0x24C JUMPI DUP1 PUSH4 0xDC0D3DFF EQ PUSH2 0x284 JUMPI DUP1 PUSH4 0xDC79A7FC EQ PUSH2 0x2A4 JUMPI PUSH1 0x0 DUP1 REVERT JUMPDEST DUP1 PUSH4 0x893D20E8 EQ PUSH2 0x1A4 JUMPI DUP1 PUSH4 0x8F84AA09 EQ PUSH2 0x1D6 JUMPI DUP1 PUSH4 0xB436C2BF EQ PUSH2 0x1F6 JUMPI PUSH1 0x0 DUP1 REVERT JUMPDEST DUP1 PUSH4 0x48005109 GT PUSH2 0xBB JUMPI DUP1 PUSH4 0x48005109 EQ PUSH2 0x152 JUMPI DUP1 PUSH4 0x51CFF8D9 EQ PUSH2 0x167 JUMPI DUP1 PUSH4 0x65AC2320 EQ PUSH2 0x17A JUMPI DUP1 PUSH4 0x7284E416 EQ PUSH2 0x18F JUMPI PUSH1 0x0 DUP1 REVERT JUMPDEST DUP1 PUSH4 0x6FDDE03 EQ PUSH2 0xE2 JUMPI DUP1 PUSH4 0x12065FE0 EQ PUSH2 0x10D JUMPI DUP1 PUSH4 0x152583DE EQ PUSH2 0x12C JUMPI JUMPDEST PUSH1 0x0 DUP1 REVERT JUMPDEST CALLVALUE DUP1 ISZERO PUSH2 0xEE JUMPI PUSH1 0x0 DUP1 REVERT JUMPDEST POP PUSH2 0xF7 PUSH2 0x2B9 JUMP JUMPDEST PUSH1 0x40 MLOAD PUSH2 0x104 SWAP2 SWAP1 PUSH2 0xAB2 JUMP JUMPDEST PUSH1 0x40 MLOAD DUP1 SWAP2 SUB SWAP1 RETURN JUMPDEST CALLVALUE DUP1 ISZERO PUSH2 0x119 JUMPI PUSH1 0x0 DUP1 REVERT JUMPDEST POP PUSH1 0x4 SLOAD JUMPDEST PUSH1 0x40 MLOAD SWAP1 DUP2 MSTORE PUSH1 0x20 ADD PUSH2 0x104 JUMP JUMPDEST CALLVALUE DUP1 ISZERO PUSH2 0x138 JUMPI PUSH1 0x0 DUP1 REVERT JUMPDEST POP PUSH2 0x141 PUSH2 0x347 JUMP JUMPDEST PUSH1 0x40 MLOAD PUSH2 0x104 SWAP6 SWAP5 SWAP4 SWAP3 SWAP2 SWAP1 PUSH2 0xAC5 JUMP JUMPDEST PUSH2 0x165 PUSH2 0x160 CALLDATASIZE PUSH1 0x4 PUSH2 0x95E JUMP JUMPDEST PUSH2 0x516 JUMP JUMPDEST STOP JUMPDEST PUSH2 0x165 PUSH2 0x175 CALLDATASIZE PUSH1 0x4 PUSH2 0x8FF JUMP JUMPDEST PUSH2 0x661 JUMP JUMPDEST CALLVALUE DUP1 ISZERO PUSH2 0x186 JUMPI PUSH1 0x0 DUP1 REVERT JUMPDEST POP PUSH2 0xF7 PUSH2 0x778 JUMP JUMPDEST CALLVALUE DUP1 ISZERO PUSH2 0x19B JUMPI PUSH1 0x0 DUP1 REVERT JUMPDEST POP PUSH2 0xF7 PUSH2 0x785 JUMP JUMPDEST CALLVALUE DUP1 ISZERO PUSH2 0x1B0 JUMPI PUSH1 0x0 DUP1 REVERT JUMPDEST POP PUSH1 0x0 SLOAD PUSH1 0x1 PUSH1 0x1 PUSH1 0xA0 SHL SUB AND JUMPDEST PUSH1 0x40 MLOAD PUSH1 0x1 PUSH1 0x1 PUSH1 0xA0 SHL SUB SWAP1 SWAP2 AND DUP2 MSTORE PUSH1 0x20 ADD PUSH2 0x104 JUMP JUMPDEST CALLVALUE DUP1 ISZERO PUSH2 0x1E2 JUMPI PUSH1 0x0 DUP1 REVERT JUMPDEST POP PUSH1 0x0 SLOAD PUSH2 0x1BE SWAP1 PUSH1 0x1 PUSH1 0x1 PUSH1 0xA0 SHL SUB AND DUP2 JUMP JUMPDEST CALLVALUE DUP1 ISZERO PUSH2 0x202 JUMPI PUSH1 0x0 DUP1 REVERT JUMPDEST POP PUSH2 0x226 PUSH2 0x211 CALLDATASIZE PUSH1 0x4 PUSH2 0x8FF JUMP JUMPDEST PUSH1 0x6 PUSH1 0x20 MSTORE PUSH1 0x0 SWAP1 DUP2 MSTORE PUSH1 0x40 SWAP1 KECCAK256 SLOAD PUSH1 0xFF AND DUP2 JUMP JUMPDEST PUSH1 0x40 MLOAD SWAP1 ISZERO ISZERO DUP2 MSTORE PUSH1 0x20 ADD PUSH2 0x104 JUMP JUMPDEST CALLVALUE DUP1 ISZERO PUSH2 0x242 JUMPI PUSH1 0x0 DUP1 REVERT JUMPDEST POP PUSH2 0x11E PUSH1 0x4 SLOAD DUP2 JUMP JUMPDEST CALLVALUE DUP1 ISZERO PUSH2 0x258 JUMPI PUSH1 0x0 DUP1 REVERT JUMPDEST POP PUSH2 0x11E PUSH2 0x267 CALLDATASIZE PUSH1 0x4 PUSH2 0x921 JUMP JUMPDEST DUP1 MLOAD PUSH1 0x20 DUP2 DUP4 ADD DUP2 ADD DUP1 MLOAD PUSH1 0x5 DUP3 MSTORE SWAP3 DUP3 ADD SWAP2 SWAP1 SWAP4 ADD KECCAK256 SWAP2 MSTORE SLOAD DUP2 JUMP JUMPDEST CALLVALUE DUP1 ISZERO PUSH2 0x290 JUMPI PUSH1 0x0 DUP1 REVERT JUMPDEST POP PUSH2 0xF7 PUSH2 0x29F CALLDATASIZE PUSH1 0x4 PUSH2 0x9B5 JUMP JUMPDEST PUSH2 0x792 JUMP JUMPDEST CALLVALUE DUP1 ISZERO PUSH2 0x2B0 JUMPI PUSH1 0x0 DUP1 REVERT JUMPDEST POP PUSH1 0x7 SLOAD PUSH2 0x11E JUMP JUMPDEST PUSH1 0x1 DUP1 SLOAD PUSH2 0x2C6 SWAP1 PUSH2 0xB71 JUMP JUMPDEST DUP1 PUSH1 0x1F ADD PUSH1 0x20 DUP1 SWAP2 DIV MUL PUSH1 0x20 ADD PUSH1 0x40 MLOAD SWAP1 DUP2 ADD PUSH1 0x40 MSTORE DUP1 SWAP3 SWAP2 SWAP1 DUP2 DUP2 MSTORE PUSH1 0x20 ADD DUP3 DUP1 SLOAD PUSH2 0x2F2 SWAP1 PUSH2 0xB71 JUMP JUMPDEST DUP1 ISZERO PUSH2 0x33F JUMPI DUP1 PUSH1 0x1F LT PUSH2 0x314 JUMPI PUSH2 0x100 DUP1 DUP4 SLOAD DIV MUL DUP4 MSTORE SWAP2 PUSH1 0x20 ADD SWAP2 PUSH2 0x33F JUMP JUMPDEST DUP3 ADD SWAP2 SWAP1 PUSH1 0x0 MSTORE PUSH1 0x20 PUSH1 0x0 KECCAK256 SWAP1 JUMPDEST DUP2 SLOAD DUP2 MSTORE SWAP1 PUSH1 0x1 ADD SWAP1 PUSH1 0x20 ADD DUP1 DUP4 GT PUSH2 0x322 JUMPI DUP3 SWAP1 SUB PUSH1 0x1F AND DUP3 ADD SWAP2 JUMPDEST POP POP POP POP POP DUP2 JUMP JUMPDEST PUSH1 0x60 DUP1 PUSH1 0x0 DUP1 PUSH1 0x60 PUSH1 0x1 PUSH1 0x2 PUSH1 0x4 SLOAD PUSH2 0x35F PUSH1 0x7 SLOAD SWAP1 JUMP JUMPDEST PUSH1 0x3 DUP5 DUP1 SLOAD PUSH2 0x36D SWAP1 PUSH2 0xB71 JUMP JUMPDEST DUP1 PUSH1 0x1F ADD PUSH1 0x20 DUP1 SWAP2 DIV MUL PUSH1 0x20 ADD PUSH1 0x40 MLOAD SWAP1 DUP2 ADD PUSH1 0x40 MSTORE DUP1 SWAP3 SWAP2 SWAP1 DUP2 DUP2 MSTORE PUSH1 0x20 ADD DUP3 DUP1 SLOAD PUSH2 0x399 SWAP1 PUSH2 0xB71 JUMP JUMPDEST DUP1 ISZERO PUSH2 0x3E6 JUMPI DUP1 PUSH1 0x1F LT PUSH2 0x3BB JUMPI PUSH2 0x100 DUP1 DUP4 SLOAD DIV MUL DUP4 MSTORE SWAP2 PUSH1 0x20 ADD SWAP2 PUSH2 0x3E6 JUMP JUMPDEST DUP3 ADD SWAP2 SWAP1 PUSH1 0x0 MSTORE PUSH1 0x20 PUSH1 0x0 KECCAK256 SWAP1 JUMPDEST DUP2 SLOAD DUP2 MSTORE SWAP1 PUSH1 0x1 ADD SWAP1 PUSH1 0x20 ADD DUP1 DUP4 GT PUSH2 0x3C9 JUMPI DUP3 SWAP1 SUB PUSH1 0x1F AND DUP3 ADD SWAP2 JUMPDEST POP POP POP POP POP SWAP5 POP DUP4 DUP1 SLOAD PUSH2 0x3F9 SWAP1 PUSH2 0xB71 JUMP JUMPDEST DUP1 PUSH1 0x1F ADD PUSH1 0x20 DUP1 SWAP2 DIV MUL PUSH1 0x20 ADD PUSH1 0x40 MLOAD SWAP1 DUP2 ADD PUSH1 0x40 MSTORE DUP1 SWAP3 SWAP2 SWAP1 DUP2 DUP2 MSTORE PUSH1 0x20 ADD DUP3 DUP1 SLOAD PUSH2 0x425 SWAP1 PUSH2 0xB71 JUMP JUMPDEST DUP1 ISZERO PUSH2 0x472 JUMPI DUP1 PUSH1 0x1F LT PUSH2 0x447 JUMPI PUSH2 0x100 DUP1 DUP4 SLOAD DIV MUL DUP4 MSTORE SWAP2 PUSH1 0x20 ADD SWAP2 PUSH2 0x472 JUMP JUMPDEST DUP3 ADD SWAP2 SWAP1 PUSH1 0x0 MSTORE PUSH1 0x20 PUSH1 0x0 KECCAK256 SWAP1 JUMPDEST DUP2 SLOAD DUP2 MSTORE SWAP1 PUSH1 0x1 ADD SWAP1 PUSH1 0x20 ADD DUP1 DUP4 GT PUSH2 0x455 JUMPI DUP3 SWAP1 SUB PUSH1 0x1F AND DUP3 ADD SWAP2 JUMPDEST POP POP POP POP POP SWAP4 POP DUP1 DUP1 SLOAD PUSH2 0x485 SWAP1 PUSH2 0xB71 JUMP JUMPDEST DUP1 PUSH1 0x1F ADD PUSH1 0x20 DUP1 SWAP2 DIV MUL PUSH1 0x20 ADD PUSH1 0x40 MLOAD SWAP1 DUP2 ADD PUSH1 0x40 MSTORE DUP1 SWAP3 SWAP2 SWAP1 DUP2 DUP2 MSTORE PUSH1 0x20 ADD DUP3 DUP1 SLOAD PUSH2 0x4B1 SWAP1 PUSH2 0xB71 JUMP JUMPDEST DUP1 ISZERO PUSH2 0x4FE JUMPI DUP1 PUSH1 0x1F LT PUSH2 0x4D3 JUMPI PUSH2 0x100 DUP1 DUP4 SLOAD DIV MUL DUP4 MSTORE SWAP2 PUSH1 0x20 ADD SWAP2 PUSH2 0x4FE JUMP JUMPDEST DUP3 ADD SWAP2 SWAP1 PUSH1 0x0 MSTORE PUSH1 0x20 PUSH1 0x0 KECCAK256 SWAP1 JUMPDEST DUP2 SLOAD DUP2 MSTORE SWAP1 PUSH1 0x1 ADD SWAP1 PUSH1 0x20 ADD DUP1 DUP4 GT PUSH2 0x4E1 JUMPI DUP3 SWAP1 SUB PUSH1 0x1F AND DUP3 ADD SWAP2 JUMPDEST POP POP POP POP POP SWAP1 POP SWAP5 POP SWAP5 POP SWAP5 POP SWAP5 POP SWAP5 POP SWAP1 SWAP2 SWAP3 SWAP4 SWAP5 JUMP JUMPDEST PUSH6 0xE91BAEC5F507 PUSH1 0x1 PUSH1 0x1 PUSH1 0xA0 SHL SUB DUP3 AND BALANCE DUP2 GT ISZERO PUSH2 0x57C JUMPI PUSH1 0x40 MLOAD PUSH3 0x461BCD PUSH1 0xE5 SHL DUP2 MSTORE PUSH1 0x20 PUSH1 0x4 DUP3 ADD MSTORE PUSH1 0x1E PUSH1 0x24 DUP3 ADD MSTORE PUSH32 0x5468697320697320746F6F206C6974746C6520746F2062652073656E742E0000 PUSH1 0x44 DUP3 ADD MSTORE PUSH1 0x64 ADD JUMPDEST PUSH1 0x40 MLOAD DUP1 SWAP2 SUB SWAP1 REVERT JUMPDEST DUP3 PUSH1 0x4 PUSH1 0x0 DUP3 DUP3 SLOAD PUSH2 0x58E SWAP2 SWAP1 PUSH2 0xB16 JUMP JUMPDEST SWAP3 POP POP DUP2 SWAP1 SSTORE POP DUP3 PUSH1 0x5 DUP6 PUSH1 0x40 MLOAD PUSH2 0x5A6 SWAP2 SWAP1 PUSH2 0x9FA JUMP JUMPDEST SWAP1 DUP2 MSTORE PUSH1 0x20 ADD PUSH1 0x40 MLOAD DUP1 SWAP2 SUB SWAP1 KECCAK256 PUSH1 0x0 DUP3 DUP3 SLOAD PUSH2 0x5C3 SWAP2 SWAP1 PUSH2 0xB16 JUMP JUMPDEST SWAP1 SWAP2 SSTORE POP POP PUSH1 0x1 PUSH1 0x1 PUSH1 0xA0 SHL SUB DUP3 AND PUSH1 0x0 SWAP1 DUP2 MSTORE PUSH1 0x6 PUSH1 0x20 MSTORE PUSH1 0x40 SWAP1 KECCAK256 SLOAD PUSH1 0xFF AND ISZERO ISZERO PUSH1 0x1 EQ ISZERO PUSH2 0x5F3 JUMPI PUSH2 0x65B JUMP JUMPDEST PUSH1 0x7 DUP1 SLOAD PUSH1 0x1 DUP2 ADD DUP3 SSTORE PUSH1 0x0 SWAP2 SWAP1 SWAP2 MSTORE DUP5 MLOAD PUSH2 0x636 SWAP2 PUSH32 0xA66CC928B5EDB82AF9BD49922954155AB7B0942694BEA4CE44661D9A8736C688 ADD SWAP1 PUSH1 0x20 DUP8 ADD SWAP1 PUSH2 0x7BD JUMP JUMPDEST POP PUSH1 0x1 PUSH1 0x1 PUSH1 0xA0 SHL SUB DUP3 AND PUSH1 0x0 SWAP1 DUP2 MSTORE PUSH1 0x6 PUSH1 0x20 MSTORE PUSH1 0x40 SWAP1 KECCAK256 DUP1 SLOAD PUSH1 0xFF NOT AND PUSH1 0x1 OR SWAP1 SSTORE JUMPDEST POP POP POP POP JUMP JUMPDEST PUSH1 0x0 SLOAD PUSH1 0x1 PUSH1 0x1 PUSH1 0xA0 SHL SUB DUP3 DUP2 AND SWAP2 AND EQ PUSH2 0x6C9 JUMPI PUSH1 0x40 MLOAD PUSH3 0x461BCD PUSH1 0xE5 SHL DUP2 MSTORE PUSH1 0x20 PUSH1 0x4 DUP3 ADD MSTORE PUSH1 0x22 PUSH1 0x24 DUP3 ADD MSTORE PUSH32 0x4F6E6C7920546865204F776E65722043616E2057697468647261772046756E64 PUSH1 0x44 DUP3 ADD MSTORE PUSH2 0x3997 PUSH1 0xF1 SHL PUSH1 0x64 DUP3 ADD MSTORE PUSH1 0x84 ADD PUSH2 0x573 JUMP JUMPDEST SELFBALANCE PUSH1 0x4 PUSH1 0x0 DUP3 DUP3 SLOAD PUSH2 0x6DB SWAP2 SWAP1 PUSH2 0xB2E JUMP JUMPDEST SWAP1 SWAP2 SSTORE POP POP PUSH1 0x40 MLOAD PUSH1 0x1 PUSH1 0x1 PUSH1 0xA0 SHL SUB DUP3 AND SWAP1 SELFBALANCE DUP1 ISZERO PUSH2 0x8FC MUL SWAP2 PUSH1 0x0 DUP2 DUP2 DUP2 DUP6 DUP9 DUP9 CALL SWAP4 POP POP POP POP ISZERO DUP1 ISZERO PUSH2 0x715 JUMPI RETURNDATASIZE PUSH1 0x0 DUP1 RETURNDATACOPY RETURNDATASIZE PUSH1 0x0 REVERT JUMPDEST POP PUSH1 0x0 JUMPDEST PUSH1 0x7 SLOAD DUP2 LT ISZERO PUSH2 0x774 JUMPI PUSH1 0x0 PUSH1 0x5 PUSH1 0x7 PUSH1 0x0 DUP2 SLOAD DUP2 LT PUSH2 0x73B JUMPI PUSH2 0x73B PUSH2 0xBDD JUMP JUMPDEST SWAP1 PUSH1 0x0 MSTORE PUSH1 0x20 PUSH1 0x0 KECCAK256 ADD PUSH1 0x40 MLOAD PUSH2 0x752 SWAP2 SWAP1 PUSH2 0xA16 JUMP JUMPDEST SWAP1 DUP2 MSTORE PUSH1 0x40 MLOAD SWAP1 DUP2 SWAP1 SUB PUSH1 0x20 ADD SWAP1 KECCAK256 SSTORE DUP1 PUSH2 0x76C DUP2 PUSH2 0xBAC JUMP JUMPDEST SWAP2 POP POP PUSH2 0x719 JUMP JUMPDEST POP POP JUMP JUMPDEST PUSH1 0x2 DUP1 SLOAD PUSH2 0x2C6 SWAP1 PUSH2 0xB71 JUMP JUMPDEST PUSH1 0x3 DUP1 SLOAD PUSH2 0x2C6 SWAP1 PUSH2 0xB71 JUMP JUMPDEST PUSH1 0x7 DUP2 DUP2 SLOAD DUP2 LT PUSH2 0x7A2 JUMPI PUSH1 0x0 DUP1 REVERT JUMPDEST SWAP1 PUSH1 0x0 MSTORE PUSH1 0x20 PUSH1 0x0 KECCAK256 ADD PUSH1 0x0 SWAP2 POP SWAP1 POP DUP1 SLOAD PUSH2 0x2C6 SWAP1 PUSH2 0xB71 JUMP JUMPDEST DUP3 DUP1 SLOAD PUSH2 0x7C9 SWAP1 PUSH2 0xB71 JUMP JUMPDEST SWAP1 PUSH1 0x0 MSTORE PUSH1 0x20 PUSH1 0x0 KECCAK256 SWAP1 PUSH1 0x1F ADD PUSH1 0x20 SWAP1 DIV DUP2 ADD SWAP3 DUP3 PUSH2 0x7EB JUMPI PUSH1 0x0 DUP6 SSTORE PUSH2 0x831 JUMP JUMPDEST DUP3 PUSH1 0x1F LT PUSH2 0x804 JUMPI DUP1 MLOAD PUSH1 0xFF NOT AND DUP4 DUP1 ADD OR DUP6 SSTORE PUSH2 0x831 JUMP JUMPDEST DUP3 DUP1 ADD PUSH1 0x1 ADD DUP6 SSTORE DUP3 ISZERO PUSH2 0x831 JUMPI SWAP2 DUP3 ADD JUMPDEST DUP3 DUP2 GT ISZERO PUSH2 0x831 JUMPI DUP3 MLOAD DUP3 SSTORE SWAP2 PUSH1 0x20 ADD SWAP2 SWAP1 PUSH1 0x1 ADD SWAP1 PUSH2 0x816 JUMP JUMPDEST POP PUSH2 0x83D SWAP3 SWAP2 POP PUSH2 0x841 JUMP JUMPDEST POP SWAP1 JUMP JUMPDEST JUMPDEST DUP1 DUP3 GT ISZERO PUSH2 0x83D JUMPI PUSH1 0x0 DUP2 SSTORE PUSH1 0x1 ADD PUSH2 0x842 JUMP JUMPDEST DUP1 CALLDATALOAD PUSH1 0x1 PUSH1 0x1 PUSH1 0xA0 SHL SUB DUP2 AND DUP2 EQ PUSH2 0x86D JUMPI PUSH1 0x0 DUP1 REVERT JUMPDEST SWAP2 SWAP1 POP JUMP JUMPDEST PUSH1 0x0 DUP3 PUSH1 0x1F DUP4 ADD SLT PUSH2 0x883 JUMPI PUSH1 0x0 DUP1 REVERT JUMPDEST DUP2 CALLDATALOAD PUSH8 0xFFFFFFFFFFFFFFFF DUP1 DUP3 GT ISZERO PUSH2 0x89E JUMPI PUSH2 0x89E PUSH2 0xBF3 JUMP JUMPDEST PUSH1 0x40 MLOAD PUSH1 0x1F DUP4 ADD PUSH1 0x1F NOT SWAP1 DUP2 AND PUSH1 0x3F ADD AND DUP2 ADD SWAP1 DUP3 DUP3 GT DUP2 DUP4 LT OR ISZERO PUSH2 0x8C6 JUMPI PUSH2 0x8C6 PUSH2 0xBF3 JUMP JUMPDEST DUP2 PUSH1 0x40 MSTORE DUP4 DUP2 MSTORE DUP7 PUSH1 0x20 DUP6 DUP9 ADD ADD GT ISZERO PUSH2 0x8DF JUMPI PUSH1 0x0 DUP1 REVERT JUMPDEST DUP4 PUSH1 0x20 DUP8 ADD PUSH1 0x20 DUP4 ADD CALLDATACOPY PUSH1 0x0 PUSH1 0x20 DUP6 DUP4 ADD ADD MSTORE DUP1 SWAP5 POP POP POP POP POP SWAP3 SWAP2 POP POP JUMP JUMPDEST PUSH1 0x0 PUSH1 0x20 DUP3 DUP5 SUB SLT ISZERO PUSH2 0x911 JUMPI PUSH1 0x0 DUP1 REVERT JUMPDEST PUSH2 0x91A DUP3 PUSH2 0x856 JUMP JUMPDEST SWAP4 SWAP3 POP POP POP JUMP JUMPDEST PUSH1 0x0 PUSH1 0x20 DUP3 DUP5 SUB SLT ISZERO PUSH2 0x933 JUMPI PUSH1 0x0 DUP1 REVERT JUMPDEST DUP2 CALLDATALOAD PUSH8 0xFFFFFFFFFFFFFFFF DUP2 GT ISZERO PUSH2 0x94A JUMPI PUSH1 0x0 DUP1 REVERT JUMPDEST PUSH2 0x956 DUP5 DUP3 DUP6 ADD PUSH2 0x872 JUMP JUMPDEST SWAP5 SWAP4 POP POP POP POP JUMP JUMPDEST PUSH1 0x0 DUP1 PUSH1 0x0 PUSH1 0x60 DUP5 DUP7 SUB SLT ISZERO PUSH2 0x973 JUMPI PUSH1 0x0 DUP1 REVERT JUMPDEST DUP4 CALLDATALOAD PUSH8 0xFFFFFFFFFFFFFFFF DUP2 GT ISZERO PUSH2 0x98A JUMPI PUSH1 0x0 DUP1 REVERT JUMPDEST PUSH2 0x996 DUP7 DUP3 DUP8 ADD PUSH2 0x872 JUMP JUMPDEST SWAP4 POP POP PUSH1 0x20 DUP5 ADD CALLDATALOAD SWAP2 POP PUSH2 0x9AC PUSH1 0x40 DUP6 ADD PUSH2 0x856 JUMP JUMPDEST SWAP1 POP SWAP3 POP SWAP3 POP SWAP3 JUMP JUMPDEST PUSH1 0x0 PUSH1 0x20 DUP3 DUP5 SUB SLT ISZERO PUSH2 0x9C7 JUMPI PUSH1 0x0 DUP1 REVERT JUMPDEST POP CALLDATALOAD SWAP2 SWAP1 POP JUMP JUMPDEST PUSH1 0x0 DUP2 MLOAD DUP1 DUP5 MSTORE PUSH2 0x9E6 DUP2 PUSH1 0x20 DUP7 ADD PUSH1 0x20 DUP7 ADD PUSH2 0xB45 JUMP JUMPDEST PUSH1 0x1F ADD PUSH1 0x1F NOT AND SWAP3 SWAP1 SWAP3 ADD PUSH1 0x20 ADD SWAP3 SWAP2 POP POP JUMP JUMPDEST PUSH1 0x0 DUP3 MLOAD PUSH2 0xA0C DUP2 DUP5 PUSH1 0x20 DUP8 ADD PUSH2 0xB45 JUMP JUMPDEST SWAP2 SWAP1 SWAP2 ADD SWAP3 SWAP2 POP POP JUMP JUMPDEST PUSH1 0x0 DUP1 DUP4 SLOAD DUP2 PUSH1 0x1 DUP3 DUP2 SHR SWAP2 POP DUP1 DUP4 AND DUP1 PUSH2 0xA32 JUMPI PUSH1 0x7F DUP4 AND SWAP3 POP JUMPDEST PUSH1 0x20 DUP1 DUP5 LT DUP3 EQ ISZERO PUSH2 0xA52 JUMPI PUSH4 0x4E487B71 PUSH1 0xE0 SHL DUP7 MSTORE PUSH1 0x22 PUSH1 0x4 MSTORE PUSH1 0x24 DUP7 REVERT JUMPDEST DUP2 DUP1 ISZERO PUSH2 0xA66 JUMPI PUSH1 0x1 DUP2 EQ PUSH2 0xA77 JUMPI PUSH2 0xAA4 JUMP JUMPDEST PUSH1 0xFF NOT DUP7 AND DUP10 MSTORE DUP5 DUP10 ADD SWAP7 POP PUSH2 0xAA4 JUMP JUMPDEST PUSH1 0x0 DUP11 DUP2 MSTORE PUSH1 0x20 SWAP1 KECCAK256 PUSH1 0x0 JUMPDEST DUP7 DUP2 LT ISZERO PUSH2 0xA9C JUMPI DUP2 SLOAD DUP12 DUP3 ADD MSTORE SWAP1 DUP6 ADD SWAP1 DUP4 ADD PUSH2 0xA83 JUMP JUMPDEST POP POP DUP5 DUP10 ADD SWAP7 POP JUMPDEST POP SWAP5 SWAP9 SWAP8 POP POP POP POP POP POP POP POP JUMP JUMPDEST PUSH1 0x20 DUP2 MSTORE PUSH1 0x0 PUSH2 0x91A PUSH1 0x20 DUP4 ADD DUP5 PUSH2 0x9CE JUMP JUMPDEST PUSH1 0xA0 DUP2 MSTORE PUSH1 0x0 PUSH2 0xAD8 PUSH1 0xA0 DUP4 ADD DUP9 PUSH2 0x9CE JUMP JUMPDEST DUP3 DUP2 SUB PUSH1 0x20 DUP5 ADD MSTORE PUSH2 0xAEA DUP2 DUP9 PUSH2 0x9CE JUMP JUMPDEST SWAP1 POP DUP6 PUSH1 0x40 DUP5 ADD MSTORE DUP5 PUSH1 0x60 DUP5 ADD MSTORE DUP3 DUP2 SUB PUSH1 0x80 DUP5 ADD MSTORE PUSH2 0xB0A DUP2 DUP6 PUSH2 0x9CE JUMP JUMPDEST SWAP9 SWAP8 POP POP POP POP POP POP POP POP JUMP JUMPDEST PUSH1 0x0 DUP3 NOT DUP3 GT ISZERO PUSH2 0xB29 JUMPI PUSH2 0xB29 PUSH2 0xBC7 JUMP JUMPDEST POP ADD SWAP1 JUMP JUMPDEST PUSH1 0x0 DUP3 DUP3 LT ISZERO PUSH2 0xB40 JUMPI PUSH2 0xB40 PUSH2 0xBC7 JUMP JUMPDEST POP SUB SWAP1 JUMP JUMPDEST PUSH1 0x0 JUMPDEST DUP4 DUP2 LT ISZERO PUSH2 0xB60 JUMPI DUP2 DUP2 ADD MLOAD DUP4 DUP3 ADD MSTORE PUSH1 0x20 ADD PUSH2 0xB48 JUMP JUMPDEST DUP4 DUP2 GT ISZERO PUSH2 0x65B JUMPI POP POP PUSH1 0x0 SWAP2 ADD MSTORE JUMP JUMPDEST PUSH1 0x1 DUP2 DUP2 SHR SWAP1 DUP3 AND DUP1 PUSH2 0xB85 JUMPI PUSH1 0x7F DUP3 AND SWAP2 POP JUMPDEST PUSH1 0x20 DUP3 LT DUP2 EQ ISZERO PUSH2 0xBA6 JUMPI PUSH4 0x4E487B71 PUSH1 0xE0 SHL PUSH1 0x0 MSTORE PUSH1 0x22 PUSH1 0x4 MSTORE PUSH1 0x24 PUSH1 0x0 REVERT JUMPDEST POP SWAP2 SWAP1 POP JUMP JUMPDEST PUSH1 0x0 PUSH1 0x0 NOT DUP3 EQ ISZERO PUSH2 0xBC0 JUMPI PUSH2 0xBC0 PUSH2 0xBC7 JUMP JUMPDEST POP PUSH1 0x1 ADD SWAP1 JUMP JUMPDEST PUSH4 0x4E487B71 PUSH1 0xE0 SHL PUSH1 0x0 MSTORE PUSH1 0x11 PUSH1 0x4 MSTORE PUSH1 0x24 PUSH1 0x0 REVERT JUMPDEST PUSH4 0x4E487B71 PUSH1 0xE0 SHL PUSH1 0x0 MSTORE PUSH1 0x32 PUSH1 0x4 MSTORE PUSH1 0x24 PUSH1 0x0 REVERT JUMPDEST PUSH4 0x4E487B71 PUSH1 0xE0 SHL PUSH1 0x0 MSTORE PUSH1 0x41 PUSH1 0x4 MSTORE PUSH1 0x24 PUSH1 0x0 REVERT INVALID LOG2 PUSH5 0x6970667358 0x22 SLT KECCAK256 0xC9 PUSH12 0xEB64AA082D5BFE9E4E053868 PUSH16 0x89BD711A281350C30F2ADC4B0C444758 SWAP10 PUSH5 0x736F6C6343 STOP ADDMOD SMOD STOP CALLER LOG2 PUSH5 0x6970667358 0x22 SLT KECCAK256 CREATE PUSH24 0x2D2003DD6522F32878960F72D82AAB74DCF7D8898E57CA2A OR 0xD4 MULMOD ISZERO 0xE2 0xB1 PUSH5 0x736F6C6343 STOP ADDMOD SMOD STOP CALLER ",
  "sha1": "6c1fde2bb904d13d4e1b3189c43293a025697f51",
  "source": "// SPDX-License-Identifier: MIT\n\n// smart contract that allows anyone to deposit ETH into the crowd_fund contract\n// and only the owners can withdraw\npragma solidity ^0.8;\n\ncontract CrowdFund{\n    // state variables\n    address public ownerAddress;\n    string public name;\n    string public ownerName;\n    string public description;\n    uint256 public balance;\n\n    // mappings and arrays\n    mapping(string => uint) public userToAmountSent;\n    mapping(address => bool) public Funded;\n\n    // array\n    string[] public funders;\n\n    // modifiers\n    modifier onlyOwner {\n        // checking if the message sender is the owner of the contract.\n        require(msg.sender == ownerAddress, \"Only The Owner Can Withdraw Funds.\");\n        _;\n    }\n\n    constructor(string memory _name, string memory _description, string memory _ownerName, address _sender){\n        // assigning whoever creates the contract as the owner\n        ownerAddress = _sender;\n        name = _name;\n        description = _description;\n        ownerName = _ownerName;\n    }\n\n\n    function fund(string memory _username, uint256 amount, address sender) public payable {\n        uint256 leastValue = 256305105597703;\n\n        // checking to make sure something is sent\n        require(sender.balance >= leastValue, \"This is too little to be sent.\");\n\n        // updating balance value\n        // uint256 valueInWei = amount ether;\n        balance += amount;\n        \n        // mapping sender to the amount sent\n        userToAmountSent[_username] += amount;\n\n        // adding sender to array\n        if (Funded[sender] == true){}\n        else {\n            funders.push(_username);\n            Funded[sender] = true;\n        }\n    }\n\n    function getBalance() public view returns (uint) {\n        return balance;\n    }\n\n    function getOwner() public view returns (address) {\n        return ownerAddress;\n    }\n\n    function withdraw(address sender) public payable{\n        // checking if transaction sender is the owner of the crowd fund\n        require(sender == ownerAddress, \"Only The Owner Can Withdraw Funds.\");\n\n        // transferring all the funds sent to the smart contract to the owner's address\n        balance -= address(this).balance;\n        payable(sender).transfer(address(this).balance);\n\n        // setting all the values from funders to zero since all funds have been withdrawn\n        for (uint i = 0; i < funders.length; i++){\n            userToAmountSent[funders[0]] = 0;\n        }\n    }\n\n    function getAttributes() public view returns (string memory, string memory, uint256, uint256, string memory) {\n        return (name, ownerName, balance, numberOfFunders(), description);\n    }\n\n    function numberOfFunders() public view returns (uint256) {return funders.length;}\n}\n\n\n\n\n\n\n\n\n\n\n\n\n\n\n// A Contract Factory that creates CrowdFund Contracts and interacts with them\n\ncontract CrowdFundFactory{\n    // mappings and arrays\n    mapping(string => CrowdFund) public nameToCrowdFund;\n    mapping(string => CrowdFund[]) public ownerToCrowdFunds;\n    CrowdFund[] public createdCrowdFunds;\n\n\n\n    function createCrowdFundContract(string memory _name, string memory _description, string memory _ownerName) public {\n        // checking if a crowd fund with this name exists\n        require(crowdFundExists(_name) == false, \"A Crowd Fund With This Name Already Exists.\");\n\n        // creating new CrowdFund contract\n        CrowdFund newCrowdFund = new CrowdFund(_name, _description, _ownerName, msg.sender);\n\n        // adding to maps and creating array\n        ownerToCrowdFunds[_ownerName].push(newCrowdFund);\n        nameToCrowdFund[_name] = newCrowdFund;\n        createdCrowdFunds.push(newCrowdFund);\n    }\n\n    function getSingleCrowdFund(string memory _name) public view returns (string memory, string memory, uint256, uint256, string memory) {\n        require(crowdFundExists(_name), \"There Is No CrowdFund With That Name\");\n        CrowdFund crowd_fund = getCrowdFundObject(_name);\n\n        // return data\n        return(crowd_fund.getAttributes());\n    }\n\n    function getSingleCrowdFundByAddress(address _address) public view returns (string memory, string memory, uint256, uint256, string memory) {\n        CrowdFund crowd_fund = CrowdFund(address(_address));\n\n        // return data\n        return(crowd_fund.getAttributes());\n    }\n\n    function getOwnerCrowdFunds(string memory _ownerName) public view returns (CrowdFund[] memory){\n        require(ownerExists(_ownerName), \"This User Does Not Have Any Crowd Fund.\");\n        CrowdFund[] memory crowd_funds = ownerToCrowdFunds[_ownerName];\n        return crowd_funds;\n    }\n\n    function fund(string memory _username, string memory _crowd_fund_name) public payable {\n        CrowdFund crowd_fund = getCrowdFundObject(_crowd_fund_name);\n\n        // checking to see if the user can send this amount (Based on the sender's balance)\n        // require(msg.sender.balance >= msg.value, \"sender does not have enough funds\");\n\n        // calling the fund function in the crowd fund contract and passing in the username, amount and sender's address\n        // as arguments\n        crowd_fund.fund{value : msg.value}(_username, msg.value, msg.sender);\n    }\n\n    function withdrawBalance(string memory _crowd_fund_name) public payable {\n        CrowdFund crowd_fund = getCrowdFundObject(_crowd_fund_name);\n        crowd_fund.withdraw(msg.sender);\n    }\n\n    function crowdFundBalance(string memory _name) public view returns (uint256) {\n        CrowdFund crowd_fund = getCrowdFundObject(_name);\n        return crowd_fund.balance();\n    }\n\n\n\n\n    // helper functions\n\n    function crowdFundExists(string memory _name) internal view returns (bool) {\n        // checking if there is any crowd fund linked to this name\n        if (address(nameToCrowdFund[_name]) == 0x0000000000000000000000000000000000000000) {\n            return false;\n        }\n        return true;\n        // return abi.encodePacked(nameToCrowdFund[_name]).length > 0 ? true : false;\n    }\n\n    function ownerExists(string memory _ownerName) internal view returns (bool) {\n        // checking if there is any crowd fund with an owner that has that name\n        return abi.encodePacked(ownerToCrowdFunds[_ownerName]).length > 0 ? true : false;\n    }\n\n    function getCrowdFundObject(string memory _name) public view returns (CrowdFund) {\n         return(CrowdFund(address(nameToCrowdFund[_name])));\n    }\n}",
  "sourcePath": "contracts/crowd_fund.sol",
  "type": "contract"
}